:020000040000fa
:080000000002040000000000f2
:020000040000fa
:04000800f6030000fb
:020000040000fa
:04000c00f6030000f7
:020000040000fa
:04001000f6030000f3
:020000040000fa
:04001400f6030000ef
:020000040000fa
:04001800f6030000eb
:020000040000fa
:04001c00f6030000e7
:020000040000fa
:04002000f6030000e3
:020000040000fa
:04002400f6030000df
:020000040000fa
:04002800f6030000db
:020000040000fa
:04002c00f6030000d7
:020000040000fa
:04003000f6030000d3
:020000040000fa
:0400340004030000c1
:020000040000fa
:04003800f6030000cb
:020000040000fa
:04003c00f6030000c7
:020000040000fa
:04004000f6030000c3
:020000040000fa
:04004400f6030000bf
:020000040000fa
:04004800520300005f
:020000040000fa
:04004c00f6030000b7
:020000040000fa
:04005000f6030000b3
:020000040000fa
:04005400ae030000f7
:020000040000fa
:04005800820300001f
:020000040000fa
:04005c005c03000041
:020000040000fa
:04006000f6030000a3
:020000040000fa
:04006400f60300009f
:020000040000fa
:04006800f60300009b
:020000040000fa
:04006c00f603000097
:020000040000fa
:04007000f603000093
:020000040000fa
:04007400f60300008f
:020000040000fa
:04007800f60300008b
:020000040000fa
:04007c00f603000087
:020000040000fa
:04008000f603000083
:020000040000fa
:04008400f60300007f
:020000040000fa
:04008800f60300007b
:020000040000fa
:04008c00f603000077
:020000040000fa
:04009000f603000073
:020000040000fa
:04009400260300003f
:020000040000fa
:04009800f60300006b
:020000040000fa
:04009c00f603000067
:020000040000fa
:0400a000f603000063
:020000040000fa
:0400a400f60300005f
:020000040000fa
:0400a800f60300005b
:020000040000fa
:0400ac00f603000057
:020000040000fa
:0400b000f603000053
:020000040000fa
:0400b400f60300004f
:020000040000fa
:0400b800f60300004b
:020000040000fa
:0400bc00f603000047
:020000040000fa
:0400c000f603000043
:020000040000fa
:0400c400f60300003f
:020000040000fa
:0400c800f60300003b
:020000040000fa
:0400cc00f603000037
:020000040000fa
:0400d000f603000033
:020000040000fa
:0400d400f60300002f
:020000040000fa
:0400d800f60300002b
:020000040000fa
:0400dc00f603000027
:020000040000fa
:0400e000f603000023
:020000040000fa
:0400e400f60300001f
:020000040000fa
:0400e800f60300001b
:020000040000fa
:0400ec00f603000017
:020000040000fa
:0400f000f603000013
:020000040000fa
:0400f400f60300000f
:020000040000fa
:0400f800f60300000b
:020000040000fa
:0400fc00f603000007
:020000040000fa
:04010000f603000002
:020000040000fa
:04010400f6030000fe
:020000040000fa
:04010800f6030000fa
:020000040000fa
:04010c00f6030000f6
:020000040000fa
:04011000f6030000f2
:020000040000fa
:04011400f6030000ee
:020000040000fa
:04011800f6030000ea
:020000040000fa
:04011c00f6030000e6
:020000040000fa
:04012000f6030000e2
:020000040000fa
:04012400f6030000de
:020000040000fa
:04012800f6030000da
:020000040000fa
:04012c00f6030000d6
:020000040000fa
:04013000f6030000d2
:020000040000fa
:04013400f6030000ce
:020000040000fa
:04013800f6030000ca
:020000040000fa
:04013c00f6030000c6
:020000040000fa
:04014000f6030000c2
:020000040000fa
:04014400f6030000be
:020000040000fa
:04014800f6030000ba
:020000040000fa
:04014c00f6030000b6
:020000040000fa
:04015000f6030000b2
:020000040000fa
:04015400f6030000ae
:020000040000fa
:04015800f6030000aa
:020000040000fa
:04015c00f6030000a6
:020000040000fa
:04016000f6030000a2
:020000040000fa
:04016400f60300009e
:020000040000fa
:04016800f60300009a
:020000040000fa
:04016c00f603000096
:020000040000fa
:04017000f603000092
:020000040000fa
:04017400f60300008e
:020000040000fa
:04017800f60300008a
:020000040000fa
:04017c00f603000086
:020000040000fa
:04018000f603000082
:020000040000fa
:04018400f60300007e
:020000040000fa
:04018800f60300007a
:020000040000fa
:04018c00f603000076
:020000040000fa
:04019000f603000072
:020000040000fa
:04019400f60300006e
:020000040000fa
:04019800f60300006a
:020000040000fa
:04019c00f603000066
:020000040000fa
:0401a000f603000062
:020000040000fa
:0401a400f60300005e
:020000040000fa
:0401a800f60300005a
:020000040000fa
:0401ac00f603000056
:020000040000fa
:0401b000f603000052
:020000040000fa
:0401b400f60300004e
:020000040000fa
:0401b800f60300004a
:020000040000fa
:0401bc00f603000046
:020000040000fa
:0401c000f603000042
:020000040000fa
:0401c400f60300003e
:020000040000fa
:0401c800f60300003a
:020000040000fa
:0401cc00f603000036
:020000040000fa
:0401d000f603000032
:020000040000fa
:0401d400f60300002e
:020000040000fa
:0401d800f60300002a
:020000040000fa
:0401dc00f603000026
:020000040000fa
:0401e000f603000022
:020000040000fa
:0401e400f60300001e
:020000040000fa
:0401e800f60300001a
:020000040000fa
:0401ec00f603000016
:020000040000fa
:0401f000f603000012
:020000040000fa
:0401f400f60300000e
:020000040000fa
:0401f800f60300000a
:020000040000fa
:0401fc00f603000006
:020000040000fa
:04020000f603000001
:020000040000fa
:04020400f6030000fd
:020000040000fa
:04020800f6030000f9
:020000040000fa
:04020c00f6030000f5
:020000040000fa
:04021000f6030000f1
:020000040000fa
:04021400f6030000ed
:020000040000fa
:04021800f6030000e9
:020000040000fa
:04021c00f6030000e5
:020000040000fa
:04022000f6030000e1
:020000040000fa
:04022400f6030000dd
:020000040000fa
:04022800f6030000d9
:020000040000fa
:04022c00f6030000d5
:020000040000fa
:04023000f6030000d1
:020000040000fa
:04023400f6030000cd
:020000040000fa
:04023800f6030000c9
:020000040000fa
:04023c00f6030000c5
:020000040000fa
:04024000f6030000c1
:020000040000fa
:04024400f6030000bd
:020000040000fa
:04024800f6030000b9
:020000040000fa
:04024c00f6030000b5
:020000040000fa
:04025000f6030000b1
:020000040000fa
:04025400f6030000ad
:020000040000fa
:04025800f6030000a9
:020000040000fa
:04025c00f6030000a5
:020000040000fa
:04026000f6030000a1
:020000040000fa
:04026400f60300009d
:020000040000fa
:10040000ef5e21000eff27000e01880000000000b3
:10041000000020000000e000020032000001200087
:100420002002880018000700f20007000000e0002a
:1004300003003a0080e7210001002000020037009d
:100440000000200001002000810f70000200320037
:100450000001eb0012000700100007000000200060
:100460000000e00002003200000002000000000076
:100470008d040700780c0200000000009b040700b8
:100480000040da000000fe00200020000000e00034
:1004900002003200100020009001880000000600d9
:1004a000a1028800800478000000eb0020003700e3
:1004b0000a054100e284440054a0b4009905ba0042
:1004c000e284440054a0b4009906ba00e2844400d7
:1004d00054a0b4000006eb00476fde00fd07b20039
:1004e000ae018800636ce10003003a000ad8010005
:1004f0000000eb000e003700606ce10008003a00dd
:10050000004deb000a05e800020039003420ec0041
:100510000af0a0008b05e900f9ff3e000400370057
:100520006168e100010032000086eb000b0007006b
:1005300019c7ba000e04e0001905ba0003003a001a
:100540000a00e000daff3a0000000600fe07b200f1
:10055000ae0288008a047800f5ff37000cd0a300b3
:10056000e20f4d001c003b0089027800354dba00b7
:100570000a05e800020039003420ec000af0a0006f
:100580008b05e9000f003200254dba000a05e8008e
:10059000020039003420ec000af0a0008b05e900cd
:1005a000080032000c00e0000600320015cdba0051
:1005b0000a05e800020039003420ec000af0a0002f
:1005c0008b05e9008984e80054a0b4000b00e0002a
:1005d000e2ff3a00000006009902ba00055d7800cb
:1005e0008b05e900f7ff3200c82ade00055d7800c0
:1005f0008b05e900f3ff32000c00e000f1ff320050
:1006000019ddba00eeff37003600f800809fbe000b
:10061000829fbe00849fbe00869fbe000000fa003d
:100620000068a900080d0700c70a070000000000c5
:100630000080fa004f03be004f02be004f01be0013
:100640004f00be003600f900004006003600f800fa
:10065000809fbe00829fbe00849fbe00869fbe001a
:100660000000fa000368a900d0808000e1808000cb
:1006700061004000e0804800d0808800e180880070
:1006800013060700000000000080fa004f03be00c0
:100690004f02be004f01be004f00be003600f90001
:1006a000004006000000fa000108a9000000000058
:1006b0000080fa0000400600801f78000000fa0069
:1006c00001a8a90000188000c0ae880010188000a2
:1006d000d0ae880020188000e0ae8800301880007e
:1006e000f0ae88004018800000af880010c0b30052
:1006f0002ff0b700000000000080fa004f007800e3
:10070000004006003600f800809fbe00829fbe00b9
:10071000849fbe00869fbe000000fa000188a900e9
:100720001181800000818000808f50000200320023
:10073000600c0700010037002470ef00000000008b
:100740000080fa004f03be004f02be004f01be0002
:100750004f00be003600f900004006003600f800e9
:10076000809fbe00829fbe00849fbe00869fbe0009
:100770000000fa000168a900101180004200de00ac
:1007800061406000e14f500001003a002242a900a0
:10079000101180000000d10061406000e14f500066
:1007a00005003a002222a900030037003011800022
:1007b00000407800040d0700101180000040780010
:1007c00061406000e14f5000f8ff3200000000007f
:1007d0000080fa004f03be004f02be004f01be0072
:1007e0004f00be003600f900004006000040da006d
:1007f0000000fe000000050014002000c4033700c4
:10080000f4ff2f00c20337000001be003c000700c8
:100810000470a70003f0a1006509b10016003200c2
:100820000d0035006828e10006003500f0ff2f00bc
:10083000f1ff27000300e00013003b000100280047
:100840000000050000004000818048008502e900aa
:10085000fcff3a0008003700f88f420002003c001d
:100860008000eb00000005008100d1000080d30073
:100870008502e800fcff3a000300e00002003b00b4
:1008800060001000e0801800000006000001be00bb
:100890001b0007000470a70003f0a10003f8a300e9
:1008a00013003a006509b10010003200090035005c
:1008b0006928e10002003500010028000000050061
:1008c00000004000818048008502e900fcff3a00fa
:1008d00000000600f88f4200050035008100d100bd
:1008e0000080d3008502e800fcff3a00000006000b
:1008f0008000eb00000005006011b8009f03370086
:10090000c70ade00f107b200f50fb200080032009e
:10091000e1cf4200020032000170a0002400050077
:10092000810f70000100320004080500440005003a
:10093000810f700002003a00140005008502e900f2
:100940000000400081c04800fcff3b000170a00097
:100950002400050007f82700078361000638e1003e
:1009600004003a00f70720008783610087037100c5
:1009700001003a0003f0a200889fbe008a9fbe00db
:100980008c9fbe00470ade000480a100c71ade006b
:100990000580a100070028000785600087856100a9
:1009a000f70f20000720e1009e0032000728e10039
:1009b0009c003200010678000400e000b400320020
:1009c000f7072000878060000170a0000500e000ac
:1009d000c0003200f7072000878161000370a0008b
:1009e000050652000f003a000b50e1000b003200e8
:1009f0000308e10002003a000200e1007e0032003c
:100a00000204500083845800040031000001fd00fe
:100a10008101fd008402fd008a05fd006044b800ec
:100a2000210037000520e10005003d000001fd0028
:100a30008101fd008402fd008a05fd0005065200cb
:100a40007a60e100050035000170a1004722dd0059
:100a5000848070008a807000630037006044b800b2
:100a6000ef02660007ff2f00070666000500e000a2
:100a700006003400f08312008714dd000511de004b
:100a8000071bdd00060171008519de007060e100c2
:100a9000050035000904780082047800030178001d
:100aa0008001eb00700656000b50e10003003a0095
:100ab00002004000838048000400370060041400f6
:100ac000e0841c0002005800838058000188a300c5
:100ad000060032008100d1000080d3008984d30059
:100ae0000884d3000402e800270037000178a3003f
:100af00025003a000100e000030032008186cf00ab
:100b0000698656000a0037008c0020000000e000d3
:100b100004003a0009007800880478000004eb0023
:100b2000700252008086cf000d0646000c06e900d8
:100b30007060e10006003500800078000900780050
:100b4000880478000004eb00700656007002520022
:100b50000c00e0000c0034008c08dd00f0031600ef
:100b60000703de00868070000c00dd00074bde000e
:100b7000060070008c4cdd000743de0086847400a4
:100b80000c44dd000c0252006120e1002000350021
:100b9000610160000700280087816400f7ff2700db
:100ba00087836400070374000300e000060032003e
:100bb00082037300040032000000e800e080480077
:100bc0000188a3000e003a00f70f20000720e10083
:100bd0004a003d000170a1004722dd008100720043
:100be0008a8070000000be004f06be004f05be00a8
:100bf0004f04be00000006006000b800faff370096
:100c00008100d1000080d3000402e800eeff37002d
:100c10000401780089017400a10107008a80700036
:100c2000f1ff3700f7010700070278000001fd001f
:100c30008101fd00f301070087027800850372003f
:100c40000778a300040032000001fd008101fd00cf
:100c500006020700e4ff3700850362000768a3006f
:100c6000080032000b50e10003003200f0ff2f00bb
:100c7000f1ff2700dcff37000001fd008101fd00ce
:100c8000d9ff37000468a300d7ff3200faff37000e
:100c9000f8ff2700888360000b003a000000e000a6
:100ca00009003a008303640082837300020032006b
:100cb0000200be00ccff37000b50e100ceff3a002f
:100cc0000200be00c8ff370014002000810064004d
:100cd0003eff3700f8ff27008883610004003a00d8
:100ce0000200e00002003a008c007800beff3700ee
:100cf000150020008301640039ff370001f8270048
:100d00000000200081007500b7ff3700889fbe00fb
:100d10008a9fbe008c9fbe001b0020000202be0006
:100d20000586680006002800060666004709de0002
:100d3000f20fb200820032000243e800800032006d
:100d4000c729de00f30fb2007d0032000343e80044
:100d50007b003200f107b2000170a000f507b2007d
:100d60000570a000c708dd004903de008680700022
:100d70004700dd00c72add004923de0086827200bd
:100d80004722dd000305510004035000858358000d
:100d90000300310000004000818048000a05e9009e
:100da0008c1f78008a9fbe00040050008580580088
:100db0000402420085824a00000040008180480011
:100dc0000005eb000004be006033b8000406be005e
:100dd0000d48e10056003100110009004dccd8004b
:100de0000c01b8000d02b8008481410060824a0005
:100df0008283530003045c0084845c0060055d0012
:100e00000a00e00025003a00800578000d40e1006e
:100e100049003100880078000700780011000900bf
:100e20004d88d8000c01b8000d02b8008481410043
:100e300060824a006003110083835b0004045c004d
:100e4000e0845c000900e00021003a004f01be0090
:100e50000300e0002b003200e3016000070673008e
:100e60008c81710001003200640070004200de00dd
:100e70004e5edd000c007000c258de0001e0a000f4
:100e800083010700cf017800818071004f06be000a
:100e90004f05be004f04be00000006008c834300d7
:100ea0000d044c00e0844c0060054d000000e9009a
:100eb0000a00e000d4ff32008c8343000d044c0094
:100ec000e0844c0060054d000000e900ceff3700d3
:100ed0000c0343008d834b0060044c00e0844c0005
:100ee0000000e9000900e000d8ff32000c034300d5
:100ef0008d834b0060044c00e0844c000000e9004e
:100f0000d2ff37004200de004e5edd000c007000b4
:100f1000c258de0001e0a000cf0178000300e0002d
:100f2000daff320060001000e0801800d7ff3700c1
:100f3000f0ff2f00aaff3700f0ff2f00b9ff3700a6
:100f40000404be002f010700870678000004fd009e
:100f50008104fd002b010700078366000678a300cb
:100f6000030032000960a7000800be002c00370013
:100f70000d78a300020032000800be0028003700f0
:100f80000778a30026003a0001f0a10009f0a100b3
:100f90000668a30003003200f1ff2700f0ff2f00d6
:100fa000baff37000d68a300030032000800be003e
:100fb0008c807000b5ff37000768a30007003a0077
:100fc0000648a30003003200f1ff2700f0ff2f00c6
:100fd000aeff37000d48a300030032006000b800e8
:100fe0008c807000a9ff37000748a300040032007e
:100ff00001f82700000020008c807000a3ff37005c
:10100000760107000004fd008104fd000205780060
:10101000720107000802be008a01780059ff3700fc
:101020000160a000120220008281880097ff370033
:101030000100e000120032000500e0001000320064
:10104000889fbe008a9fbe008c9fbe000006eb00fa
:1010500001f8a3000300320060001000e0801800d7
:101060000cf0a00005f8a30003003200600212009b
:10107000e0821a000cf0a2008005eb0041ff37006f
:101080006000b80002000500038368000700280024
:1010900007036300470ade000480a100c71ade00d0
:1010a0000580a100f70f20000720e1004200320078
:1010b0000728e10040003200889fbe008a9fbe00e2
:1010c0008c1f7800f107b200f307b2000400e000c3
:1010d000640032000170a0000500e00068003200ea
:1010e0000370a00085054200eb07b1000204b800c0
:1010f0000302b8008484440060854a00020ab800f4
:10110000848444000a854a00030ab80004054500a7
:10111000040033000804d0008984d2000a85d2007c
:101120008b05e9006158e1003d0035000210200008
:10113000090161000308200089816100f707200090
:101140008783640008867300c84cde00c853dd0046
:10115000878474004855de000300e000060032007a
:1011600082037600040032008904e80060054d0027
:101170000a88a3000c003a00f70f20000758e1008e
:1011800044003d000a70a100c75ddd000a857500be
:101190008a007300090078004f0678004f05be00f2
:1011a0004f04be00000006000a05d1008984d30068
:1011b0008b05e800f0ff3700881f780006047800f0
:1011c00090000700070278000001fd008101fd008a
:1011d0008c00070087027800850372000778a3005f
:1011e000050032000001fd008101fd009f000700a5
:1011f0004f04780000000600850372000748a30032
:1012000003003200f0ff2f00f1ff2700f8ff370046
:101210000000200001f8270088807000f4ff3700ec
:10122000880178004848dd00808171004848de0070
:10123000c850dd0001007000c850de0006047800d0
:101240000b0178001600070088807000d2ff37007d
:101250000500e00005003200170020003a000700fa
:101260009dff370081037000f9ff3a008600780087
:101270004f0678004f05be004f04be000000050079
:1012800083037100f9ff3200270020002e000700c1
:1012900094ff370001f8270086807000f4ff3700c4
:1012a0000100e00026003200610111007810e10029
:1012b00023003c006022b8007010e10004003500fb
:1012c00080027800010078008000eb00700151007e
:1012d0000200e0000900340070031100062add005e
:1012e000822ade008603dd00878272000200de00b3
:1012f000860bdd00070070008208de00848171002b
:10130000f4ff270004826200848171000400280039
:10131000848262006102600005f0a6000000060001
:1013200004827100070032000000e800e0804800fd
:10133000000006000002be006000b800efff3700aa
:101340006000b80000000600889fbe000004eb00ab
:101350006138e10016003a000100e00008003a00a0
:10136000c800de004800dd00880020000100e00029
:1013700003003a00c800de004800dd0068044400b5
:101380008184cf00e9845400060034008908dd0020
:10139000f08314008703de00878070000900dd0001
:1013a00009044400610214004f04be00000006005e
:1013b0000300e00008003a00c811de004811dd001b
:1013c000880020000300e00003003a00c811de009e
:1013d0004811dd00680444008384cf00e984540090
:1013e000060034008919dd00f08314008713de0045
:1013f000878171000911dd0009044400e102140035
:10140000e9ff37002700200001f0a70017002000a7
:10141000470bde00f60fb200040032000643e8007e
:101420000a0032004702b300000006000103780002
:10143000f607b2000603700002003a000703b3008b
:10144000000006008702b3000000060001037800d8
:10145000f607b20006037000020032000770a00019
:10146000000006000760a000000006000478a3004a
:10147000040032000578a300030032000168a300d5
:1014800001003a000200be000160a000000006005a
:1014900081017000270032008002eb0001f8a300f8
:1014a0000300320060001000e080180015002000ea
:1014b000f40720000202420020003400f70320005d
:1014c0008703600006042000000363000208200078
:1014d000000161004700de00c909dd0000807100e5
:1014e000c708de000600e000080032008703710034
:1014f000060032001000b0000180b0000188a30097
:1015000002003200c108de000402e800f107b20068
:10151000f30f20000320e10003003d004722dd001f
:10152000810072002900370001f827000000eb005d
:10153000260037006000b8000000060068021200b4
:101540007f20e100020034006000b8001f00370077
:101550006011b8007020e1000400350080017800bf
:10156000010078008000eb00700252000400e000ef
:1015700009003400f00312000719dd008419de00b1
:101580000703dd00868171000400de00070bdd002b
:10159000060070008408de00f7ff270083836300e5
:1015a0008703710006002800030363000700320070
:1015b0000700e00003003a0061016000028173004f
:1015c000020032001000b0000180b0000500a6004b
:1015d0000000060001f0a000000006004f0ade0037
:1015e0004709de00f107b200f20fb2000b00320033
:1015f000f207b1000170a000c708dd00c901de00dc
:10160000838070004700dd000400a6000000060093
:1016100060001000e080180000000600810f7000dc
:1016200001003a00000006008182cf000500e000c2
:1016300010003e008082cf00ee8242007028e10060
:101640000400390007003e00800078000000eb0035
:101650000e003700708312008600de000500dd00fa
:101660000a003700708352008600dd000000eb00a6
:1016700006003700e28252008508dd007083120008
:101680000603de00868070000500dd007507b000ef
:101690000501ea000400a60000000600600010003a
:1016a000e080180000000600889fbe008a9fbe00f0
:1016b0005400f8000a0020000a00e0000700320091
:1016c0000900200008002000a9028800b805ba001f
:1016d0000b0001000a85e900fcff3c005400f90002
:1016e0004f05be004f04be0000000600889fbe00ec
:1016f0008a9fbe005400f8000a0020000a00e000a3
:10170000f6ff32000900200008002000eeff37003d
:10171000889fbe008a9fbe00841f78006c0007006f
:101720004f00780011003300f0ff2f00838f6c0012
:1017300006003b00040565000a00a700080037000a
:1017400009f0a6001000200008003700820f5400a6
:10175000838f5c00030039001000200001003e0070
:101760000000200009f0a7000000ea004f05be00bd
:101770004f04be000000e00000000600889fbe008d
:101780008a9fbe0000827000040271000482710012
:10179000260032000004be000200be006011b80046
:1017a0006b092000950220000182cf000a00390059
:1017b0000541b1000082cf00070039000541b100aa
:1017c0000982cf00040039000541b1000882cf0032
:1017d000010039000541b1000542520012003200fb
:1017e0000a003b0082817100610164008100d10028
:1017f0000080d3008984d3000884d3008b05e800df
:101800000442e800f7ff3a000700370008044400ec
:1018100089844c0000004800818048008b05e90065
:101820000442e900f9ff3a00030007004f05be003b
:101830004f04be00000006008100200061805500ba
:101840000b003d000b00200061fe2f000100e100b5
:101850001d00340082817100610164008904d1009f
:101860000884d3000000e800faff3a00710020006d
:101870006100640003007000020060000900320093
:1018800061044400e0844c000988a5000500320092
:101890008b05e8006808e10002003a008904d100e5
:1018a0000884d300f20f20000258e10005003d003b
:1018b000c75ddd00f907b200898075000800780077
:1018c000000006000bf827008b00780000000500e0
:1018d0000004be000afc07000003be000405be00b1
:1018e0000200be0006fc0700844f750000000600e1
:020000040000fa
:1018f0000a00fa00660807007009070015080700cb
:10190000e2050700ee020700f902070032090700ae
:10191000854ea800550807000004e000fdff3200d6
:10192000560807004d080700000f78001e007800d9
:10193000100078008000eb00effb0700323323003b
:1019400033052400d0fd0700000178000100780075
:101950008202780000027800020020000358240070
:1019600005007800840078000000be00e7fc070056
:1019700010079800210798001e019000ae0190000a
:101980000000200081202400e0fc07000001780016
:101990000100780082027800000278000200200036
:1019a000030a240005007800840078000000be00cf
:1019b000e8fb07008001780001017800030078004f
:1019c000820078000000be0080ae880091ae8800e2
:1019d0001e80e800100078008000eb00c6fb0700c6
:1019e0003233230033052400a7fd070000017800ef
:1019f00001007800820278000002780002002000d6
:101a00000358240005007800840078000000be0020
:101a1000befc070010079800210798001e019000e7
:101a2000ae0190000000200081202400b7fc0700d8
:101a3000000178000100780082027800000278003e
:101a400002002000030a24000500780084007800ca
:101a50000000be00bffb0700800178000101780094
:101a600003007800820078000000be00a0ae88006d
:101a7000b1ae8800410020001e80400010007800b8
:101a80008000eb009cfb0700323323003305240069
:101a90007dfd0700000178000100780082027800d7
:101aa000000278000200200003582400050078009e
:101ab000840078000000be0094fc07001007980026
:101ac000210798001e019000ae0190000000200048
:101ad000812024008dfc07000001780001007800bf
:101ae000820278000002780002002000030a24002d
:101af00005007800840078000000be0095fb070018
:101b000080017800010178000300780082007800ed
:101b10000000be0060ae880071ae88006200200048
:101b20001e004100100078008000eb0072fb0700ef
:101b3000323323003305240053fd070000017800f1
:101b40000100780082027800000278000200200084
:101b50000358240005007800840078000000be00cf
:101b60006afc070010079800210798001e019000ea
:101b7000ae019000000020008120240063fc0700db
:101b800000017800010078008202780000027800ed
:101b900002002000030a2400050078008400780079
:101ba0000000be006bfb0700800178000101780097
:101bb00003007800820078000000be0040ae88007c
:101bc00051ae8800810020001e8040001000780087
:101bd0008000eb0048fb070032332300330524006c
:101be00029fd0700000178000100780082027800da
:101bf000000278000200200003582400050078004d
:101c0000840078000000be0040fc07001007980028
:101c1000210798001e019000ae01900000002000f6
:101c20008120240039fc07000001780001007800c1
:101c3000820278000002780002002000030a2400db
:101c400005007800840078000000be0041fb07001a
:101c5000800178000101780003007800820078009c
:101c60000000be0020ae880031ae8800b080800049
:101c70008000e800b1808800210320000101780085
:101c8000110009000200d8008000fd000000e00003
:101c900019003a00a0ae8000b1ae8000fbfa070048
:101ca00080407800600020000177780060ae8000fe
:101cb00071ae8000f5fa07008040780060002000d7
:101cc0000000e8000177780040ae800051ae80004f
:101cd000eefa070080407800600020000080e800f5
:101ce000017778006600470000017800310020008d
:101cf00000032000c403070080ae800091ae800086
:101d000002002000031f2400bbfa07000000e000cf
:101d100005003d0084cea800a08080000040a00007
:101d2000a08088000400370084cea900a080800035
:101d30006f006000a0808800a0ae8000b1ae80007f
:101d40000200200003202400abfa07000000e0009e
:101d500005003d0084aea800a08080000030a000f7
:101d6000a08088000400370084aea900a080800015
:101d700077006000a080880060ae800071ae8000b7
:101d800002002000032224009bfa07000000e0006c
:101d900005003d00848ea800a08080000020a000e7
:101da000a080880004003700848ea900a0808000f5
:101db0007b006000a080880040ae800051ae8000b3
:101dc00002002000032024008bfa07000000e0003e
:101dd00005003d00856ea800a08080000010a000d6
:101de000a080880004003700856ea900a0808000d4
:101df0007d006000a080880020ae800031ae8000b1
:101e000002002000031f24007bfa07000000e0000e
:101e100005003d00754ea800a08080000000a000d5
:101e2000a080880004003700754ea900a0808000c3
:101e30007e006000a080880060ae800071ae8000ef
:101e400002002000c32024006dfa07000000e0001b
:101e50001e003400a0ae8000b1ae80000200200061
:101e6000031a240066fa07000000e000170034009f
:101e700040ae800051ae800002002000031a240012
:101e80005ffa07000000e0001000340020ae800080
:101e900031ae800002002000031a240058fa070027
:101ea0000000e0000900340080ae800091ae8000a8
:101eb00002002000031a240051fa07000000e0008d
:101ec0000200340010012000a080880091fe37003d
:101ed0000000fa0018d0bf000080fb006100b900cc
:101ee0000001be004001200001002000800f5100d1
:101ef000818f590074003e00020601001400370073
:101f00001d00370026003700300037003100370051
:101f10003a0037003b0037004400370045003700e7
:101f20004f003700500037005a0037006600370076
:101f30006500370064003700630037006200370037
:101f400061003700600037005f0037005300370042
:101f50001a30ef001c30ef000001eb006000b80009
:101f600066040700120020006000b8006304070048
:101f700010c0b30018f0b700d2808000e38080006a
:101f8000803e200001002000800f5100818f590009
:101f90004f00360020c0b30018f0b7004c003700e7
:101fa0000001eb0000002000011f24005304070083
:101fb0001200200000002000011f24004f04070031
:101fc00030c0b30018f0b7004200370044000700eb
:101fd000400037000001eb00000020000112240047
:101fe00046040700120020006000b8004304070008
:101ff00050c0b30018f0b7003600370038000700b3
:10200000340037000001eb006000b8003b0407001b
:1020100012002000000020000112240037040700f5
:1020200070c0b30018f0b7002a0037002c0007007a
:10203000280037000001eb000000200001142400fc
:102040002e040700120020000000200001142c00c4
:102050002a04070090c0b30018f0b7001d00370035
:102060001f0007001b0037000001eb0000002000ec
:1020700001142c00210407001200200000002000a1
:10208000011424001d040700b0c0b30018f0b7000d
:1020900010003700120007000e0037000001eb00af
:1020a0000000200001172c0014040700120020007b
:1020b0000000200001172c0010040700b0c0b3007e
:1020c00018f0b700030037001870ef000100370068
:1020d00000000000000000000080fa000000060080
:1020e0000200fa000040eb00004f7800a080800062
:1020f000e10f500003003a0050c0b300004f7800d9
:10210000b9003700a0808000e20f500003003a00c1
:1021100050c0b300004f7800b3003700a0808000ab
:10212000e40f500003003a0030c0b300004f7800c5
:10213000ad003700a0808000e80f500003003a0097
:1021400010c0b300004f7800a7003700a0808000c7
:10215000f00f500003003a0030c0b300004f780089
:10216000a1003700a0808000f10f500003003a006a
:1021700080c0b300004f78009b003700a080800033
:10218000fb0f500003003a0030c0b300004f78004e
:1021900095003700a0808000f80f500003003a003f
:1021a00030c0b300004f78008f003700a08080005f
:1021b000fc0f500003003a0030c0b300004f78001d
:1021c00089003700a0808000fe0f500003003a0015
:1021d00030c0b300004f780083003700a08080003b
:1021e000e30f500003003a0050c0b300004f7800e6
:1021f0007d003700a0808000e70f500003003a0008
:1022000050c0b300004f780077003700a0808000f6
:10221000ef0f500003003a0050c0b300004f7800a9
:1022200071003700a0808000ff0f500003003a00cb
:1022300050c0b300004f78006b003700a0808000d2
:10224000e60f500003003a0050c0b300004f780082
:1022500065003700a0808000ec0f500003003a00ba
:1022600030c0b300004f78005f003700a0808000ce
:10227000e90f500003003a0020c0b300004f78007f
:1022800059003700a0808000f20f500003003a0090
:1022900010c0b300004f780053003700a0808000ca
:1022a000eb0f500003003a0050c0b300004f78001d
:1022b0004d003700a0808000ea0f500003003a0074
:1022c00030c0b300004f780047003700a080800086
:1022d000f30f500003003a0020c0b300004f780015
:1022e00041003700a0808000f90f500003003a0041
:1022f00010c0b300004f78003b003700a080800082
:10230000f50f500003003a0030c0b300004f7800d2
:1023100035003700a0808000fd0f500003003a0018
:1023200030c0b300004f78002f003700a08080003d
:10233000f70f500003003a0010c0b300004f7800c0
:1023400029003700a0808000fa0f500003003a00f7
:1023500050c0b300004f780023003700a0808000f9
:10236000ee0f500003003a0050c0b300004f780059
:102370001d003700a0808000ed0f500003003a00e0
:1023800050c0b300004f780017003700a0808000d5
:10239000f60f500003003a0030c0b300004f780041
:1023a00011003700a0808000e50f500003003a00c4
:1023b00050c0b300004f78000b003700a0808000b1
:1023c000f40f500003003a0030c0b300004f780013
:1023d00005003700a08080000000e00002003a0005
:1023e0000040eb00004f78001e4078000004e00041
:1023f00003003a0020c0b30019f0b70023003700f3
:102400001e407800e24f500003003a0040c0b30085
:1024100019f0b7001d0037001e407800e14f500052
:1024200003003a0060c0b30019f0b700170037008e
:102430001e407800e14f500003003a0060c0b30036
:1024400019f0b700110037001e407800e54f50002a
:1024500003003a0080c0b30019f0b7000b0037004a
:102460001e407800e84f500003003a0020c0b3003f
:1024700019f0b700050037001e407800e34f500008
:1024800002003a00a0c0b30019f0b70019d0bf0095
:102490000080fb0081012100914078008180fb00d9
:1024a0008100e900810f50000200320019d0bf0006
:1024b00018f0b700000000000080fa0000000600dd
:1024c0000000fa0005e1a9000421a90000002c0089
:1024d000a15d24002c0007000068a9002068a80066
:1024e00005e1a800000000000080fa0000000600de
:1024f0000000fa001fe1a9001e21a900000024002d
:10250000c1612400d50007000368a9002368a80062
:102510001fe1a800000000000080fa000000060093
:102520000000fa0013e1a90011e1a9001061a80060
:102530001021a900800880000040a1000050a100e7
:10254000800888000a21ef000621ef007072200049
:102550007008880000e020006008880020428000a9
:102560000000a0000010a1000020a100204288006f
:102570000108a9002108a80011e1a800000000003e
:102580000080fa00000006000400fa00008fbe0080
:10259000200880000040a1000050a1002008880011
:1025a00030818000418180001e0178009e019000f2
:1025b000d6f9070000017800010078008202780057
:1025c0000002780002f02f00f37724000500780065
:1025d000840078000000be0089f807000000e000d9
:1025e0008d003400200880000040a0000050a100b1
:1025f0002008880030818000418180001e01780021
:102600009e019000c1f907000001780001007800e8
:1026100082027800000278000200200003102400eb
:1026200005007800840078000000be00b7f90700bc
:102630000001780001007800820278000002780032
:1026400002f02f00f3772400050078008400780062
:102650000000be006af807000000e00055003400ea
:10266000200880000040a1000050a0002008880041
:1026700030818000418180001e0178009e01900021
:10268000a2f90700000178000100780082027800ba
:1026900000027800020020000328240005007800d2
:1026a000840078000000be0098f90700000178005f
:1026b00001007800820278000002780002f02f000a
:1026c000f377240005007800840078000000be0045
:1026d0004bf807000000e0001d00340020088000d7
:1026e0000040a0000050a000200888003081800039
:1026f000418180001e0178009e01900083f907004f
:102700000001780001007800820278000002780061
:1027100002002000033824000500780084007800bf
:102720000000be0079f90700000178000100780080
:1027300082017800000178000300780082007800b0
:102740000000be0030f80700100888004000370085
:1027500030818000418180001e0178009e01900040
:102760006af9070000017800010078008202780011
:1027700000027800020020000328240005007800f1
:10278000840078000000be0060f9070000017800b6
:1027900001007800820178000001780003007800d1
:1027a000820078000000be0017f8070010088800bb
:1027b0002700370030818000418180001e017800b1
:1027c0009e01900051f90700000178000100780097
:1027d000820278000002780002002000031024002a
:1027e00005007800840078000000be0047f907006b
:1027f0000001780001007800820178000001780073
:1028000003007800820078000000be00fef7070099
:10281000100888000e003700308180004181800060
:102820001e0178009e01900038f907000001780031
:102830000100780082017800000178000300780030
:10284000820078000000be00eff707001008880043
:10285000000000000080fa00000006000400fa00fa
:10286000008fbe00f00880000040a1000050a100d1
:10287000f008880030818000418180001e017800ce
:102880009e01900021f90700000178000100780006
:10289000820278000002780002f02f00f377240013
:1028a00005007800840078000000be00d4f707001f
:1028b0000000e0008d003400f00880000040a0001f
:1028c0000050a100f0088800308180004181800024
:1028d0001e0178009e0190000cf9070000017800ad
:1028e00001007800820278000002780002002000d7
:1028f0000310240005007800840078000000be006a
:1029000002f90700000178000100780082027800d7
:102910000002780002f02f00f37724000500780011
:10292000840078000000be00b5f707000000e0005a
:1029300055003400f00880000040a1000050a000c5
:10294000f008880030818000418180001e017800fd
:102950009e019000edf8070000017800010078006a
:102960008202780000027800020020000328240080
:1029700005007800840078000000be00e3f807003e
:1029800000017800010078008202780000027800df
:1029900002f02f00f377240005007800840078000f
:1029a0000000be0096f707000000e0001d003400a4
:1029b000f00880000040a0000050a000f00888004f
:1029c00030818000418180001e0178009e019000ce
:1029d000cef807000001780001007800820278003c
:1029e000000278000200200003382400050078006f
:1029f000840078000000be00c4f8070000017800e1
:102a0000010078008201780000017800030078005e
:102a1000820078000000be007bf70700d008880025
:102a20004000370030818000418180001e01780025
:102a30009e019000b5f807000001780001007800c1
:102a4000820278000002780002002000032824009f
:102a500005007800840078000000be00abf8070095
:102a60000001780001007800820178000001780000
:102a700003007800820078000000be0062f70700c3
:102a8000d008880027003700308180004181800015
:102a90001e0178009e0190009cf80700000178005c
:102aa0000100780082027800000278000200200015
:102ab0000310240005007800840078000000be00a8
:102ac00092f8070000017800010078008201780088
:102ad0000001780003007800820078000000be004a
:102ae00049f70700d00888000e00370030818000c9
:102af000418180001e0178009e01900083f807004c
:102b0000000178000100780082017800000178005f
:102b100003007800820078000000be003af707004a
:102b2000d0088800000000000080fa0000000600c5
:102b30000a00fa0020079800310798004207980021
:102b40000040eb00004f78009e407800e0cfb300db
:102b500000c06800004f78002e0090004880de0022
:102b6000804078001e40780000c06800004f780068
:102b70002e009000804078001e40780000c0680061
:102b8000004f78003e0090004880de0080407800d2
:102b90001e40780000c06800004f78003e009000a2
:102ba000804078001e40780000c06800004f780028
:102bb0000000eb00100798000c0037001e0090008a
:102bc000e800470011004000104078009e40780067
:102bd00000c06800004f78000e80e8008e80e8009a
:102be0001108e80090007800110798009e009000fe
:102bf0003e009000808f5000f0ff35001e407800ae
:102c00000080fa00000006000a00fa00881f780021
:102c10002007980031079800420798000000eb0059
:102c2000000f78009e007800010fe800200b2100c3
:102c300001004000e1cfb300014878002e00900071
:102c40004880de009e007800010fe8000041780017
:102c5000200b210001004000024878009e0078000f
:102c6000010fe8002e00900000417800200b2100a9
:102c700001004000024878003e0090004880de00dd
:102c80009e007800010fe80000417800200b210031
:102c900001004000024878009e007800010fe80023
:102ca0003e00900000417800200b21000100400010
:102cb000024878000000eb00100798000e00370073
:102cc0001e009000e8004700110040009e007800c0
:102cd000010fe80010417800200b210001004000a6
:102ce000024878000e80e8008e80e8001108e800b5
:102cf00090007800110798009e0090003e00900020
:102d0000808f5000eeff35001e047800080fe800a9
:102d10004e019000be0090002e00900084ff07003e
:102d200080407800200b2100080040000148780016
:102d30009e007800200b21009e020700000000008a
:102d40004f0478000080fa00000006000400fa003a
:102d5000204798000000eb00000f780050808000b2
:102d6000e30f500024003200e30f500007003c0046
:102d7000e10f500012003200e10f500018003c003b
:102d80000000e0000800320050003700e50f50005e
:102d900028003200e50f50001e003500e60f5000fd
:102da00039003200490037002e409000e24f4000c9
:102db00048003a001000200050808800450037008d
:102dc0002e4090000004e00003003a0020002000a4
:102dd00050808800420037000a30ef004000370082
:102de0000e80e8001080fb0000808800300020008a
:102df000508088003a0037000e80e8001080fb0009
:102e00004800dd00108088004000200050808800cd
:102e1000330037000e80e8001080fb001180800036
:102e20000100400010808800500020005080880081
:102e30002b0037002180800020032100010040008a
:102e400090407800228080000e80e80090c0400012
:102e5000200321000200400001487800208080000b
:102e60000000e80020808800218080001080800021
:102e7000808f5000190035006000200050808800cd
:102e80000430ef00150037000e80e8001080fb00d2
:102e900030808800118080000080800022032100a3
:102ea00023ff07000080fb004080880041808000f5
:102eb00030808000808f5000020032000000eb0064
:102ec000000f78000a30ef00050037000a30ef00ed
:102ed0000300370000000000010037000000000080
:102ee000000000000080fa00000006000600fa0062
:102ef000000f7800110798002207980000022000b8
:102f00009e007800808f50000500320000042000f1
:102f10009e007800808f5000480032005800370033
:102f20002e0090009040780010c3b30080cf500076
:102f300009003a00640047001000e8009040780063
:102f400010c3b30080cf500002003a0084cea80026
:102f50000100370084cea9002e0090009040780038
:102f600020c3b30080cf500009003a00640047003e
:102f70001000e8009040780010c3b30080cf5000ec
:102f800002003a0084aea8000100370084aea90018
:102f90002e0090009040780030c3b30080cf5000e6
:102fa00009003a00640047001000e80090407800f3
:102fb00010c3b30080cf500002003a00848ea800f6
:102fc00001003700848ea9002e0090009040780008
:102fd00040c3b30080cf500009003a0064004700ae
:102fe0001000e8009040780010c3b30080cf50007c
:102ff00002003a00856ea80001003700856ea90026
:103000002e0090009040780050c3b30080cf500055
:103010001a003a00640047001000e8009040780071
:1030200010c3b30080cf500002003a00754ea800d4
:1030300012003700754ea900100037002e009000d6
:10304000104078000080fb008000eb002af60700ab
:103050000001eb0029000700640047001000e800b1
:10306000104078000080fb008000eb0022f6070093
:1030700012002000210007000100370000000000be
:10308000000000000080fa00000006000000fa00c6
:1030900002ccbf000000a1000010a1000020a10090
:1030a00002ecb700009620002060880010618000cc
:1030b00000a0a00000b0a0001061880023cca800f0
:1030c00023eca800300020002061880010628000fe
:1030d00000a0a00000b0a0001062880043cca800af
:1030e00043eca800300020002062880001eca8001a
:1030f000000000000080fa00000006000600fa0050
:10310000008fbe00220798002e0090000000e00013
:1031100006003a001e0078009e00900001f0a20018
:10312000e0ad8800f1ad8800040037001e01780092
:103130009e019000a2ad8800b3ad880000000000a1
:103140000080fa00000006000000fa00889fbe0020
:10315000c4ad8000d5ad8000a0ad8000b1ad8000d1
:103160000001be000400be00a3f507000000e0005f
:1031700014003d00a8ad8000b9ad8000c4ad800052
:10318000d5ad800060808000718080000001be00ad
:103190000400be00f8f50700000178000100780087
:1031a00082027800000278000801be000500780065
:1031b000840078000000be000d010700c0ad88004b
:1031c000d1ad8800c4ad8000d5ad8000a0ad800039
:1031d000b1ad80000001be000400be0088f507000c
:1031e0000000e00014003400a8ad8000b9ad8000fc
:1031f000c4ad8000d5ad800060808000718080000b
:103200000001be000400be00d2f5070000017800f6
:103210000100780082027800000278000801be00f8
:1032200005007800840078000000be00d900070087
:10323000c0ad8800d1ad8800c0ad8000d1ad8000a8
:103240006011b8006ef507000000e0001e003400b9
:10325000c0ad8000d1ad800002002000031c24001e
:1032600089f70700000178000100780082027800e9
:103270000002780080808000918080000001be0004
:1032800005007800840078000000be00baf5070051
:1032900000017800010078008201780000017800c8
:1032a00003007800820078000000be0077f5070078
:1032b00030618800808080009180800073f5070075
:1032c000706188001e00370080808000918080003f
:1032d0006ef5070030618800c0ad8000d1ad800080
:1032e00001f0a20002002000031c240066f7070082
:1032f0000001780001007800820278000002780066
:1033000080808000918080000001be000500780070
:10331000840078000000be0097f5070000017800e7
:103320000100780082017800000178000300780035
:10333000820078000000be0054f50700706188002c
:1033400004ae800015ae8000e0ad8000f1ad8000dd
:103350000001be000400be0027f507000000e000e9
:1033600014003d00e8ad8000f9ad800004ae80009f
:1033700015ae800060808000718080000001be007a
:103380000400be007cf50700000178000100780011
:1033900082027800000278000801be000500780073
:1033a000840078000000be009100070000ae880095
:1033b00011ae880004ae800015ae8000e0ad800044
:1033c000f1ad80000001be000400be000cf5070056
:1033d0000000e00014003400e8ad8000f9ad80008a
:1033e00004ae800015ae8000608080007180800097
:1033f0000001be000400be0056f507000001780081
:103400000100780082027800000278000801be0006
:1034100005007800840078000000be005d00070011
:1034200000ae880011ae880000ae800011ae8000b2
:103430006011b800f2f407000000e0001e00350043
:1034400000ae800011ae800002002000031c2400aa
:103450000df7070000017800010078008202780073
:103460000002780080808000918080000001be0012
:1034700005007800840078000000be003ef50700db
:1034800000017800010078008201780000017800d6
:1034900003007800820078000000be00fbf4070003
:1034a000306288008080800091808000f7f40700ff
:1034b000706288001e00370080808000918080004c
:1034c000f2f407003062880000ae800011ae800088
:1034d00001f0a20002002000031c2400eaf607000d
:1034e0000001780001007800820278000002780074
:1034f00080808000918080000001be00050078007f
:10350000840078000000be001bf507000001780071
:103510000100780082017800000178000300780043
:10352000820078000000be00d8f4070070628800b6
:10353000000000004f04be000080fa0000000600fa
:103540000400fa00008fbe006011b8001e00780071
:103550009e009000aaf407000000e0000300350080
:103560001e0078009e009000030037001e007800c7
:103570009e00900001f0a200800178000101780017
:1035800003007800820078000000be000080fa008e
:10359000000006000800fa00008fbe002207980015
:1035a000330798002e019000be0190001e007800a5
:1035b0009e00900092f407000000e0000300340039
:1035c0009e0078001e00900002003700ae009000c0
:1035d0003e0090008101780000017800030078002f
:1035e000820078000000be000080fa0000000600a3
:1035f0000800fa00008fbe002207980033079800e9
:103600002e019000be0190001e0078009e009000e8
:1036100079f407000000e00003003d009e00780000
:103620001e00900002003700ae0090003e009000a7
:1036300081017800000178000300780082007800a2
:103640000000be000080fa00000006000c00fa0036
:10365000008fbe00220798003307980044079800a7
:10366000550798004e019000de0190001e00780082
:103670009e00900062f407000000e00004003400a7
:103680004e019000de019000028fbe000a0037005c
:103690002e019000be0190001e0078009e00900058
:1036a00055f407000000e00003003d002e019000eb
:1036b000be019000028fbe009e0078001e009000a8
:1036c0008101780000017800030078008200780012
:1036d0000000be000080fa00000006000400fa00ae
:1036e000008fbe00b2fd2000930424001e0078006d
:1036f0009e00900085f50700000178000100780029
:103700008202780000027800020020004333240087
:1037100005007800840078000000be005af607001b
:1037200000017800010078008200780081017800b3
:103730000001780003007800820078000000be00dd
:103740000080fa00000006000400fa00008fbe00ae
:10375000b2fd2000930424001e0078009e0090001b
:1037600049f6070000017800010078008202780025
:103770000002780002002000433324000500780096
:10378000840078000000be0060f5070000017800aa
:103790000100780082007800810178000001780043
:1037a00003007800820078000000be000080fa006c
:1037b000000006000600fa00100798002107980094
:1037c0000040eb00004f78005b000700ae00900067
:1037d000808f500013003d000040eb00004f780048
:1037e000080037001e80fb008e80e80011004000ba
:1037f000104078000e0007001e4078000040e800ee
:10380000004f78001e80fb00ae009000808f5000bb
:10381000f4ff3c00310007000004e00001003a0022
:1038200024000700000000000080fa0000000600ed
:103830000200fa00004f780001818000204b210037
:10384000010040001e487800008180000000e80070
:103850000081880001818000f0072000808f5000e7
:10386000010034002030ef00000000000080fa006a
:10387000000006000200fa0011818000204b2100a8
:1038800001004000104f7800108180000000e80027
:103890001081880011818000f0072000808f500087
:1038a000010034002230ef001e4078000080fa0052
:1038b000000006000200fa0010c0b30024f0b700b8
:1038c000ecff0700004f78001e80fb0020118800ed
:1038d000000000000080fa00000006000000fa006e
:1038e00024d0bf000080fa00000006000200fa00a9
:1038f0000181800010818000808f5000050035001c
:10390000018180001081800000805000000f78004d
:103910000600370011818000008180008080500007
:103920000008200001005000000f78001e00780001
:103930000080fa00000006000000fa00ebff07001c
:103940008000780000082000010050000080fa008c
:10395000000006000000fa0021e3a9002143a800ae
:10396000001980000080a1000090a10000198800cb
:103970002043a900001980000050a0000060a000b2
:103980000070a000001988001019800000d0a1006c
:1039900000e0a10000f0a100101988002343a80056
:1039a000101980000080a1000090a100101988006b
:1039b0001119800030f82f00008060000040a00046
:1039c000101988002203a9002223a90025e3a900d9
:1039d000f0c0b30024e3b70021198000f00f2e00df
:1039e0008080600000f02000010070002019880035
:1039f0003303a9001e0ea8001f0ea8001f2ea8004a
:103a00001f4ea8001f6ea8003003a8003103a800b5
:103a10003123a8003143a8003163a8004119800078
:103a200000fe2f00008060004019880028e3a900f4
:103a300001a8a90021a8a80021e3a8000000000017
:103a40000080fa00000006000000fa002023a80011
:103a5000000000000080fa00000006000000fa00ec
:103a6000805d21000080fa00000006000000fa00de
:103a70002fd0bf000080fa00000006000000fa000e
:103a80002f70ef00000000000080fa000000060028
:103a90000000fa00817420009140780000ccb3004f
:103aa00000c060007041b30048e7b700313a8000c1
:103ab00000e02f0080806000800520000100700081
:103ac000303a8800203a80000060a1000070a10018
:103ad000203a8800213a800000fe2f00008060001c
:103ae0000000a000203a880012c0b30080c7b300d5
:103af000a1c9b3003374200080497800814978005f
:103b000082497800103a8000004078000041780037
:103b10000204a00060c4b30071c5b3002374200088
:103b200080497800814978008249780000000000cf
:103b3000103a80004c00de0067406000e14f50000a
:103b4000fbff3a005927a800c03a80000000a000ff
:103b50000010a1000020a100c03a88005ac7bf0091
:103b60000000a0000010a0000020a0005ae7b7004d
:103b7000c03a80000050a1000060a0000070a000ca
:103b8000c03a880059a7a80059e7a8000000000023
:103b9000c03a80004e00de0061406000e14f5000fe
:103ba000fbff3a0000000000103a80004500de00f4
:103bb00061406000e14f5000fbff3a000000000050
:103bc0000080fa00000006000200fa00004f7800b2
:103bd0003e0007000000e0000c003400518180002e
:103be00020532100010040001e48780050818000d1
:103bf0000000e8005081880051818000f00720001b
:103c0000808f5000010034002a30ef0000000000d7
:103c10000080fa00000006000200fa0061818000c6
:103c20002053210001004000104f78006081800087
:103c30000000e8006081880061818000f0072000ba
:103c4000808f5000010034002c30ef001e407800bf
:103c50000080fa00000006000000fa005181800098
:103c600060818000808f50000200320010c0b300dd
:103c7000010037000040eb000080fa000000060061
:103c80000200fa005181800060818000808f500026
:103c90000500350051818000608180000080500067
:103ca000000f78000600370061818000508180009d
:103cb000808050000008200001005000000f7800b4
:103cc0001e0078000080fa00000006000200fa00e2
:103cd000ebff070080007800000820000100500082
:103ce000000f78001e0078000080fa000000060037
:020000040000fa
:103cf000e41500000800000082000000426f6e0022
:103d00006a6f7500720000001410000006000000c9
:103d1000800000001a100000060000008000000073
:103d2000261000000400000082000000c0e16400d2
:103d30004c000000b21500002600000080000000ca
:103d40000c10000008000000820000000000f000dd
:103d50004100000048420000d81500000c0000009f
:103d6000800000002e100000020000008000000013
:103d7000b21400008000000080000000201000004d
:103d800006000000800000003215000080000000e6
:103d9000800000002a1000000400000080000000e5
:103da00032100000800400008000000000100000bd
:103db0000c00000080000000ec1500000200000074
:103dc000820000000100000030100000020000002e
:083dd00080000000000000006b
:020000040000fa
:103dd8000000fa002002a900001180000010a100d4
:103de8000020a1000011880020a2a9002062a800dc
:103df800100820004011880023a2a90023e2a9008e
:103e08000188a9002188a800101180000060a10085
:103e18000070a100101188000168a9002168a8009d
:103e280021e2a8002342a800000000000080fa0058
:103e3800000006000600fa00100798002107980005
:103e48000040eb00004f78000040eb00004f780086
:103e58001100370000000000101180004900de004a
:103e6800614060000004e000fbff3a009e00900003
:103e78000e80e8000108e800100178001207980099
:103e8800114078000080fb00201188001e40780057
:103e98000040e800004f78001e80fb00ae00900054
:103ea800808f5000ebff3c00000000000080fa000b
:103eb800000006000000fa000e2eef001e2eef0094
:103ec8003e2eef002e2eef004e2eef006e2eef004e
:103ed80080cea90080aea900808ea900816ea900bd
:103ee800714ea900012ea900014ea900706ea9000b
:103ef80091eea900000ea900814ea9001900070043
:103f08002136800000f82f0080806000e004200047
:103f180001007000203688004134800000fc2f002a
:103f2800008060000000a000403488000300070003
:103f3800000000000080fa00000006000000fa00ff
:103f48002174200062042000730520008248780054
:103f58008348780042c7a800000000000080fa00eb
:103f6800000006000000fa0021742000620420000e
:103f780073052000824878008348780042c7a9006a
:0c3f8800000000000080fa0000000600ad
:020000040000fa
:0200000401f009
:04000800cfffff0027
:020000040000fa
:0200000401f009
:04000c00f9ffff00f9
:020000040000fa
:0200000401f009
:040010005bffff0093
:020000040000fa
:0200000401f009
:040014007fffff006b
:020000040000fa
:0200000401f009
:04001800cfffff0017
:020000040000fa
:0200000401f009
:04001c00deffff0004
:020000040000fa
:0200000401f009
:04002000cfffff000f
:00000001FF
