:020000040000fa
:080000000002040000000000f2
:020000040000fa
:0400080012040000de
:020000040000fa
:04000c0012040000da
:020000040000fa
:0400100012040000d6
:020000040000fa
:0400140012040000d2
:020000040000fa
:0400180012040000ce
:020000040000fa
:04001c0012040000ca
:020000040000fa
:0400200012040000c6
:020000040000fa
:0400240012040000c2
:020000040000fa
:0400280012040000be
:020000040000fa
:04002c0012040000ba
:020000040000fa
:0400300012040000b6
:020000040000fa
:0400340004030000c1
:020000040000fa
:0400380012040000ae
:020000040000fa
:04003c0012040000aa
:020000040000fa
:0400400012040000a6
:020000040000fa
:0400440012040000a2
:020000040000fa
:040048006e03000043
:020000040000fa
:04004c00120400009a
:020000040000fa
:040050001204000096
:020000040000fa
:04005400ca030000db
:020000040000fa
:040058009e03000003
:020000040000fa
:04005c007803000025
:020000040000fa
:040060001204000086
:020000040000fa
:040064001204000082
:020000040000fa
:04006800120400007e
:020000040000fa
:04006c00120400007a
:020000040000fa
:040070001204000076
:020000040000fa
:040074001204000072
:020000040000fa
:04007800120400006e
:020000040000fa
:04007c00120400006a
:020000040000fa
:040080001204000066
:020000040000fa
:040084001204000062
:020000040000fa
:04008800120400005e
:020000040000fa
:04008c00120400005a
:020000040000fa
:040090001204000056
:020000040000fa
:040094004203000023
:020000040000fa
:04009800120400004e
:020000040000fa
:04009c00120400004a
:020000040000fa
:0400a0001204000046
:020000040000fa
:0400a4001204000042
:020000040000fa
:0400a800120400003e
:020000040000fa
:0400ac00120400003a
:020000040000fa
:0400b0001204000036
:020000040000fa
:0400b4001204000032
:020000040000fa
:0400b800120400002e
:020000040000fa
:0400bc00120400002a
:020000040000fa
:0400c0001204000026
:020000040000fa
:0400c4001204000022
:020000040000fa
:0400c800120400001e
:020000040000fa
:0400cc00120400001a
:020000040000fa
:0400d0001204000016
:020000040000fa
:0400d4001204000012
:020000040000fa
:0400d800120400000e
:020000040000fa
:0400dc00120400000a
:020000040000fa
:0400e0001204000006
:020000040000fa
:0400e4001204000002
:020000040000fa
:0400e80012040000fe
:020000040000fa
:0400ec0012040000fa
:020000040000fa
:0400f00012040000f6
:020000040000fa
:0400f40012040000f2
:020000040000fa
:0400f80012040000ee
:020000040000fa
:0400fc0012040000ea
:020000040000fa
:0401000012040000e5
:020000040000fa
:0401040012040000e1
:020000040000fa
:0401080012040000dd
:020000040000fa
:04010c0012040000d9
:020000040000fa
:0401100012040000d5
:020000040000fa
:0401140012040000d1
:020000040000fa
:0401180012040000cd
:020000040000fa
:04011c0012040000c9
:020000040000fa
:0401200012040000c5
:020000040000fa
:0401240012040000c1
:020000040000fa
:0401280012040000bd
:020000040000fa
:04012c0012040000b9
:020000040000fa
:0401300012040000b5
:020000040000fa
:0401340012040000b1
:020000040000fa
:0401380012040000ad
:020000040000fa
:04013c0012040000a9
:020000040000fa
:0401400012040000a5
:020000040000fa
:0401440012040000a1
:020000040000fa
:04014800120400009d
:020000040000fa
:04014c001204000099
:020000040000fa
:040150001204000095
:020000040000fa
:040154001204000091
:020000040000fa
:04015800120400008d
:020000040000fa
:04015c001204000089
:020000040000fa
:040160001204000085
:020000040000fa
:040164001204000081
:020000040000fa
:04016800120400007d
:020000040000fa
:04016c001204000079
:020000040000fa
:040170001204000075
:020000040000fa
:040174001204000071
:020000040000fa
:04017800120400006d
:020000040000fa
:04017c001204000069
:020000040000fa
:040180001204000065
:020000040000fa
:040184001204000061
:020000040000fa
:04018800120400005d
:020000040000fa
:04018c001204000059
:020000040000fa
:040190001204000055
:020000040000fa
:040194001204000051
:020000040000fa
:04019800120400004d
:020000040000fa
:04019c001204000049
:020000040000fa
:0401a0001204000045
:020000040000fa
:0401a4001204000041
:020000040000fa
:0401a800120400003d
:020000040000fa
:0401ac001204000039
:020000040000fa
:0401b0001204000035
:020000040000fa
:0401b4001204000031
:020000040000fa
:0401b800120400002d
:020000040000fa
:0401bc001204000029
:020000040000fa
:0401c0001204000025
:020000040000fa
:0401c4001204000021
:020000040000fa
:0401c800120400001d
:020000040000fa
:0401cc001204000019
:020000040000fa
:0401d0001204000015
:020000040000fa
:0401d4001204000011
:020000040000fa
:0401d800120400000d
:020000040000fa
:0401dc001204000009
:020000040000fa
:0401e0001204000005
:020000040000fa
:0401e4001204000001
:020000040000fa
:0401e80012040000fd
:020000040000fa
:0401ec0012040000f9
:020000040000fa
:0401f00012040000f5
:020000040000fa
:0401f40012040000f1
:020000040000fa
:0401f80012040000ed
:020000040000fa
:0401fc0012040000e9
:020000040000fa
:0402000012040000e4
:020000040000fa
:0402040012040000e0
:020000040000fa
:0402080012040000dc
:020000040000fa
:04020c0012040000d8
:020000040000fa
:0402100012040000d4
:020000040000fa
:0402140012040000d0
:020000040000fa
:0402180012040000cc
:020000040000fa
:04021c0012040000c8
:020000040000fa
:0402200012040000c4
:020000040000fa
:0402240012040000c0
:020000040000fa
:0402280012040000bc
:020000040000fa
:04022c0012040000b8
:020000040000fa
:0402300012040000b4
:020000040000fa
:0402340012040000b0
:020000040000fa
:0402380012040000ac
:020000040000fa
:04023c0012040000a8
:020000040000fa
:0402400012040000a4
:020000040000fa
:0402440012040000a0
:020000040000fa
:04024800120400009c
:020000040000fa
:04024c001204000098
:020000040000fa
:040250001204000094
:020000040000fa
:040254001204000090
:020000040000fa
:04025800120400008c
:020000040000fa
:04025c001204000088
:020000040000fa
:040260001204000084
:020000040000fa
:040264001204000080
:020000040000fa
:100400006fa121000eff27000e01880000000000f0
:10041000000020000000e000020032000001200087
:100420002002880018000700000107000000e0001b
:1004300003003a0080012300010020000200370081
:100440000000200001002000810f70000200320037
:100450000001eb0012000700100007000000200060
:100460000000e00002003200000002000000000076
:100470009e040700d818020000000000ac0407002a
:100480000040da000000fe00200020000000e00034
:1004900002003200100020009001880000000600d9
:1004a000a1028800800478000000eb0020003700e3
:1004b0000a054100e284440054a0b4009905ba0042
:1004c000e284440054a0b4009906ba00e2844400d7
:1004d00054a0b4000006eb00476fde00fd07b20039
:1004e000ae018800636ce10003003a000ad8010005
:1004f0000000eb000e003700606ce10008003a00dd
:10050000004deb000a05e800020039003420ec0041
:100510000af0a0008b05e900f9ff3e000400370057
:100520006168e100010032000086eb000b0007006b
:1005300019c7ba000e04e0001905ba0003003a001a
:100540000a00e000daff3a0000000600fe07b200f1
:10055000ae0288008a047800f5ff37000cd0a300b3
:10056000e20f4d001c003b0089027800354dba00b7
:100570000a05e800020039003420ec000af0a0006f
:100580008b05e9000f003200254dba000a05e8008e
:10059000020039003420ec000af0a0008b05e900cd
:1005a000080032000c00e0000600320015cdba0051
:1005b0000a05e800020039003420ec000af0a0002f
:1005c0008b05e9008984e80054a0b4000b00e0002a
:1005d000e2ff3a00000006009902ba00055d7800cb
:1005e0008b05e900f7ff3200c82ade00055d7800c0
:1005f0008b05e900f3ff32000c00e000f1ff320050
:1006000019ddba00eeff37003600f800809fbe000b
:10061000829fbe00849fbe00869fbe000000fa003d
:100620000068a900811307000e170700d611070004
:10063000d7080700508380008000e80051838800bd
:10064000e101200001017800110009000200d8003a
:100650008000fd000000e00002003a0007130700e0
:1006600001090700000000000080fa004f03be00ef
:100670004f02be004f01be004f00be003600f90021
:10068000004006003600f800809fbe00829fbe003a
:10069000849fbe00869fbe000000fa000368a90088
:1006a000308380004183800061004000e08048008a
:1006b0003083880041838800890c07000000000017
:1006c0000080fa004f03be004f02be004f01be0083
:1006d0004f00be003600f900004006000000fa009e
:1006e0000108a900000000000080fa000040060098
:1006f000801f78000000fa0001a8a90000188000ff
:1007000010d088001018800020d0880020188000a9
:1007100030d088003018800040d088004018800019
:1007200050d0880010c0b30089f0b700000000006e
:100730000080fa004f007800004006003600f80004
:10074000809fbe00829fbe00849fbe00869fbe0029
:100750000000fa000188a900c1838000b0838000f6
:10076000808f500002003200091607000100370098
:100770007a70ef00000000000080fa004f03be0016
:100780004f02be004f01be004f00be003600f90010
:10079000004006003600f800809fbe00829fbe0029
:1007a000849fbe00869fbe000000fa000168a90079
:1007b000101180004200de0061406000e14f5000f7
:1007c00001003a002242a900101180000000d1006f
:1007d00061406000e14f500005003a002222a9006c
:1007e0000300370030118000004078004b170700ed
:1007f000101180000040780061406000e14f50001f
:10080000f8ff3200000000000080fa004f03be0035
:100810004f02be004f01be004f00be003600f9007f
:10082000004006000040da000000fe000000050065
:1008300014002000c7033700f4ff2f00c503370062
:100840000001be003f0007000470a70003f0a100f4
:100850006509b100160032000d0035006828e1007e
:1008600006003500f0ff2f00f1ff27000300e00035
:1008700013003b00010028000000050000004000bc
:10088000818048008502e900fcff3a00080037003b
:10089000f88f420002003c008000eb0000000500e1
:1008a0008100d1000080d3008502e800fcff3a00ff
:1008b0000300e00002003b0060001000e080180030
:1008c000000006000001be001e0007000470a70023
:1008d00003f0a10003f8a30013003a006509b1007a
:1008e00010003200090035006928e10002003500df
:1008f0000100280000000500000040008180480041
:100900008502e900fcff3a0000000600f88f420073
:10091000050035008100d1000080d3008502e80089
:10092000fcff3a00000006008000eb00000005001c
:100930004f89de0082017800a10337006011b80002
:10094000af033700c70ade00f107b200f50fb200af
:1009500008003200e1cf4200020032000170a00026
:1009600024000500810f700001003200040805001a
:1009700044000500810f700002003a0014000500d9
:100980008502e9000000400081c04800fcff3b00f8
:100990000170a0002400050007f82700078361000c
:1009a0000638e10004003a00f70720008783610061
:1009b0008703710001003a0003f0a200889fbe0087
:1009c0008a9fbe008c9fbe00470ade000480a10003
:1009d000c71ade000580a100070028000785600017
:1009e00087856100f70f20000720e1009e0032009c
:1009f0000728e1009c003200010678000400e000b6
:100a0000b4003200f7072000878060000170a0006a
:100a10000500e000c0003200f70720008781610078
:100a20000370a000050652000f003a000b50e100d1
:100a30000b0032000308e10002003a000200e1006e
:100a40007e0032000204500083845800040031000c
:100a50000001fd008101fd008402fd008a05fd000a
:100a60006044b800210037000520e10005003d008a
:100a70000001fd008101fd008402fd008a05fd00ea
:100a8000050652007a60e100050035000170a10002
:100a90004722dd00848070008a8070006300370088
:100aa0006044b800ef02660007ff2f0007066600eb
:100ab0000500e00006003400f08312008714dd001a
:100ac0000511de00071bdd00060171008519de003f
:100ad0007060e100050035000904780082047800a8
:100ae000030178008001eb00700656000b50e10016
:100af00003003a00020040008380480004003700f1
:100b000060041400e0841c00020058008380580038
:100b10000188a300060032008100d1000080d300cc
:100b20008984d3000884d3000402e800270037003a
:100b30000178a30025003a000100e0000300320024
:100b40008186cf00698656000a0037008c0020009d
:100b50000000e00004003a000900780088047800f2
:100b60000004eb00700252008086cf000d064600a4
:100b70000c06e9007060e100060035008000780096
:100b800009007800880478000004eb007006560025
:100b9000700252000c00e0000c0034008c08dd00f4
:100ba000f00316000703de00868070000c00dd00f5
:100bb000074bde00060070008c4cdd000743de00b2
:100bc000868474000c44dd000c0252006120e100b8
:100bd0002000350061016000070028008781640063
:100be000f7ff270087836400070374000300e00019
:100bf0000600320082037300040032000000e800a7
:100c0000e08048000188a3000e003a00f70f2000a2
:100c10000720e1004a003d000170a1004722dd00ed
:100c2000810072008a8070000000be004f06be0086
:100c30004f05be004f04be00000006006000b80073
:100c4000faff37008100d1000080d3000402e800e1
:100c5000eeff37000401780089017400a10107004c
:100c60008a807000f1ff3700f70107000702780063
:100c70000001fd008101fd00f301070087027800fb
:100c8000850372000778a300040032000001fd0014
:100c90008101fd0006020700e4ff370085036200c2
:100ca0000768a300080032000b50e1000300320087
:100cb000f0ff2f00f1ff2700dcff37000001fd00ef
:100cc0008101fd00d9ff37000468a300d7ff32007f
:100cd000faff3700f8ff2700888360000b003a0016
:100ce0000000e00009003a0083036400828373007f
:100cf000020032000200be00ccff37000b50e100c2
:100d0000ceff3a000200be00c8ff370014002000ea
:100d1000810064003eff3700f8ff270088836100f0
:100d200004003a000200e00002003a008c00780063
:100d3000beff3700150020008301640039ff370033
:100d400001f827000000200081007500b7ff370080
:100d5000889fbe008a9fbe008c9fbe001b002000a3
:100d60000202be000586680006002800060666002e
:100d70004709de00f20fb200820032000243e800b1
:100d800080003200c729de00f30fb2007d00320080
:100d90000343e8007b003200f107b2000170a000bd
:100da000f507b2000570a000c708dd004903de00aa
:100db000868070004700dd00c72add004923de0081
:100dc000868272004722dd000305510004035000b3
:100dd00085835800030031000000400081804800f6
:100de0000a05e9008c1f78008a9fbe0004005000ad
:100df000858058000402420085824a0000004000bd
:100e0000818048000005eb000004be006033b8009c
:100e10000406be000d48e100560031001100090033
:100e20004dccd8000c01b8000d02b80084814100ff
:100e300060824a008283530003045c0084845c0067
:100e400060055d000a00e00025003a00800578009a
:100e50000d40e1004900310088007800070078006b
:100e6000110009004d88d8000c01b8000d02b8002f
:100e70008481410060824a006003110083835b002b
:100e800004045c00e0845c000900e00021003a00fa
:100e90004f01be000300e0002b003200e3016000c0
:100ea000070673008c81710001003200640070003d
:100eb0004200de004e5edd000c007000c258de0015
:100ec00001e0a00083010700cf017800818071005c
:100ed0004f06be004f05be004f04be0000000600d6
:100ee0008c8343000d044c00e0844c0060054d00f1
:100ef0000000e9000a00e000d4ff32008c834300c8
:100f00000d044c00e0844c0060054d000000e90039
:100f1000ceff37000c0343008d834b0060044c0070
:100f2000e0844c000000e9000900e000d8ff320036
:100f30000c0343008d834b0060044c00e0844c00a4
:100f40000000e900d2ff37004200de004e5edd0007
:100f50000c007000c258de0001e0a000cf01780054
:100f60000300e000daff320060001000e0801800ab
:100f7000d7ff3700f0ff2f00aaff3700f0ff2f0048
:100f8000b9ff37000404be002f0107008706780070
:100f90000004fd008104fd002b01070007836600ab
:100fa0000678a300030032000960a7000800be0015
:100fb0002c0037000d78a300020032000800be00ac
:100fc000280037000778a30026003a0001f0a100ae
:100fd00009f0a1000668a30003003200f1ff27001a
:100fe000f0ff2f00baff37000d68a30003003200a6
:100ff0000800be008c807000b5ff37000768a300b2
:1010000007003a000648a30003003200f1ff270062
:10101000f0ff2f00aeff37000d48a30003003200a1
:101020006000b8008c807000a9ff37000748a3005b
:101030000400320001f82700000020008c807000be
:10104000a3ff3700760107000004fd008104fd00c6
:1010500002057800720107000802be008a017800cc
:1010600059ff37000160a00012022000528488005e
:1010700097ff37000100e000120032000500e00099
:1010800010003200889fbe008a9fbe008c9fbe0069
:101090000006eb0001f8a30003003200600010001e
:1010a000e08018000cf0a00005f8a3000300320057
:1010b00060021200e0821a000cf0a2008005eb0032
:1010c00041ff37006000b80002000500038368009c
:1010d0000700280007036300470ade000480a10020
:1010e000c71ade000580a100f70f20000720e100ed
:1010f000420032000728e10040003200889fbe0015
:101100008a9fbe008c1f7800f107b200f307b2007f
:101110000400e000640032000170a0000500e0005f
:10112000680032000370a00085054200eb07b100a3
:101130000204b8000302b8008484440060854a00b9
:10114000020ab800848444000a854a00030ab800f1
:1011500004054500040033000804d0008984d2004f
:101160000a85d2008b05e9006158e1003d00350099
:10117000021020000901610003082000898161003c
:10118000f70720008783640008867300c84cde00e0
:10119000c853dd00878474004855de000300e0007a
:1011a0000600320082037600040032008904e80061
:1011b00060054d000a88a3000c003a00f70f2000dc
:1011c0000758e10044003d000a70a100c75ddd0042
:1011d0000a8575008a007300090078004f067800c0
:1011e0004f05be004f04be00000006000a05d100f6
:1011f0008984d3008b05e800f0ff3700881f780052
:101200000604780090000700070278000001fd0046
:101210008101fd008c0007008702780085037200c1
:101220000778a300050032000001fd008101fd00e8
:101230009f0007004f04780000000600850372003d
:101240000748a30003003200f0ff2f00f1ff270042
:10125000f8ff37000000200001f8270088807000a8
:10126000f4ff3700880178004848dd008081710074
:101270004848de00c850dd0001007000c850de00a4
:10128000060478000b0178001600070088807000c3
:10129000d2ff37000500e0000500320017002000f3
:1012a0003a0007009dff370081037000f9ff3a0004
:1012b000860078004f0678004f05be004f04be0040
:1012c0000000050083037100f9ff320027002000b1
:1012d0002e00070094ff370001f827008680700079
:1012e000f4ff37000100e000260032006101110028
:1012f0007810e10023003c006022b8007010e1008b
:101300000400350080027800010078008000eb00c6
:10131000700151000200e000090034007003110068
:10132000062add00822ade008603dd008782720045
:101330000200de00860bdd00070070008208de0080
:1013400084817100f4ff27000482620084817100af
:1013500004002800848262006102600005f0a6009b
:101360000000060004827100070032000000e8005f
:10137000e0804800000006000002be006000b800e7
:10138000efff37006000b80000000600889fbe0035
:101390000004eb006138e10016003a000100e000b3
:1013a00008003a00c800de004800dd008800200088
:1013b0000100e00003003a00c800de004800dd0044
:1013c000680444008184cf00e9845400060034009e
:1013d0008908dd00f08314008703de008780700039
:1013e0000900dd0009044400610214004f04be003e
:1013f000000006000300e00008003a00c811de000b
:101400004811dd00880020000300e00003003a00de
:10141000c811de004811dd00680444008384cf0059
:10142000e9845400060034008919dd00f0831400bb
:101430008713de00878171000911dd000904440073
:10144000e1021400e9ff37002700200001f0a700a7
:1014500017002000470bde00f60fb2000400320038
:101460000643e8000a0032004702b300000006000d
:1014700001037800f607b2000603700002003a008c
:101480000703b300000006008702b3000000060057
:1014900001037800f607b200060370000200320074
:1014a0000770a000000006000760a0000000060012
:1014b0000478a300040032000578a3000300320082
:1014c0000168a30001003a000200be000160a00014
:1014d0000000060081017000270032008002eb004e
:1014e00001f8a3000300320060001000e080180043
:1014f00015002000f4072000020242002000340002
:10150000f703200087036000060420000003630047
:1015100002082000000161004700de00c909dd006b
:1015200000807100c708de000600e00008003200fd
:1015300087037100060032001000b0000180b00087
:101540000188a30002003200c108de000402e800a6
:10155000f107b200f30f20000320e10003003d007b
:101560004722dd00810072002900370001f82700c2
:101570000000eb00260037006000b8000000060005
:10158000680212007f20e100020034006000b80011
:101590001f0037006011b8007020e1000400350022
:1015a00080017800010078008000eb00700252009a
:1015b0000400e00009003400f00312000719dd0008
:1015c0008419de000703dd00868171000400de005f
:1015d000070bdd00060070008408de00f7ff27001f
:1015e0008383630087037100060028000303630000
:1015f000070032000700e00003003a0061016000cc
:1016000002817300020032001000b0000180b000bf
:101610000500a6000000060001f0a0000000060082
:101620004f0ade004709de00f107b200f20fb200f8
:101630000b003200f207b1000170a000c708dd0006
:10164000c901de00838070004700dd000400a600b1
:101650000000060060001000e08018000000060096
:10166000810f700001003a00000006008182cf0067
:101670000500e00010003e008082cf00ee824200b4
:101680007028e1000400390007003e008000780067
:101690000000eb000e003700708312008600de00b1
:1016a0000500dd000a003700708352008600dd006f
:1016b0000000eb0006003700e28252008508dd00e2
:1016c000708312000603de00868070000500dd00d6
:1016d0007507b0000501ea000400a600000006003e
:1016e00060001000e080180000000600889fbe0027
:1016f0008a9fbe005400f8000a0020000a00e000a3
:10170000070032000900200008002000a90288001c
:10171000b805ba000b0001000a85e900fcff3c0097
:101720005400f9004f05be004f04be000000060043
:10173000889fbe008a9fbe005400f8000a00200067
:101740000a00e000f6ff3200090020000800200037
:10175000eeff3700889fbe008a9fbe00841f78007e
:101760007c0007004f00780011003300f0ff2f00cd
:10177000838f6c0006003b00040565000a00a7008b
:101780000800370009f0a60010002000080037000c
:10179000820f5400838f5c0003003900100020008a
:1017a00001003e000000200009f0a7000000ea0050
:1017b0004f05be004f04be000000e0000000060020
:1017c000881f7800030478000300e00007003d0054
:1017d00060001000e080180060011900e08119002d
:1017e00002003b0001f02d00030037000400070059
:1017f00008f0a70001f0a0004f04780000000600e8
:10180000889fbe008a9fbe000082700004027100a3
:1018100004827100260032000004be000200be00f7
:101820006011b8006b092000950220000182cf00f2
:101830000a0039000541b1000082cf0007003900dd
:101840000541b1000982cf00040039000541b10013
:101850000882cf00010039000541b1000542520065
:10186000120032000a003b008281710061016400b5
:101870008100d1000080d3008984d3000884d30084
:101880008b05e8000442e800f7ff3a000700370044
:101890000804440089844c0000004800818048000e
:1018a0008b05e9000442e900f9ff3a000300070054
:1018b0004f05be004f04be0000000600810020005e
:1018c000618055000b003d000b00200061fe2f00e1
:1018d0000100e1001d00340082817100610164009b
:1018e0008904d1000884d3000000e800faff3a0020
:1018f00071002000610064000300700002006000bd
:101900000900320061044400e0844c000988a5000d
:10191000050032008b05e8006808e10002003a008b
:101920008904d1000884d300f20f20000258e1009e
:1019300005003d00c75ddd00f907b2008980750034
:1019400008007800000006000bf827008b007800e4
:10195000000005000004be00fafb07000003be0003
:101960000405be000200be00f6fb0700844f7500b0
:10197000000006000400fa000001780081017800f0
:1019800003f0a100a4fd200095f42300840f510072
:10199000858f59000e003e00f4ff2f00f5972300bd
:1019a000840f5100858f59003a003e00020020004c
:1019b00003b8270001fc0700e0bf9f00f1bf9f00b4
:1019c0000000200001f823000080fa00000006005b
:1019d0004f0ade0005002000163d2500b707240051
:1019e000860f5100878f59001b003e0036be2c0029
:1019f00067012400860f5100878f59000a003600c6
:101a0000b2fd2000930424000400e0000400320032
:101a1000eafb07005a01070001f0a200eaff3700c5
:101a2000ddfb0700fbff37000400e000050032008b
:101a3000b2fd200093fc2300e0fb0700db01070060
:101a4000e1ff37000001be00b0fd200091fc230043
:101a5000d1fb0700f9ff3700561d2300270e240095
:101a6000860f5100878f590014003e00f6dd2e00ce
:101a7000f70a2400860f5100878f590009003600ad
:101a8000b2fd2000930c24000400e00003003200ab
:101a9000cafb07003a010700cbff3700befb070077
:101aa000fcff37000400e0000100320001f0a2005a
:101ab00042be2c0063092400e5ff3700f4ff2f002d
:101ac000f5f72700840f5100858f59000300360079
:101ad0000001be00b0fb0700bbff37006481570068
:101ae0005b010700630160006fb89700ffb89700c3
:101af000e10f510005003200e20f5100c5ff320036
:101b00000200e000cdff3a00e2ff370001f0a20042
:101b1000caff37000400fa00889fbe008a9fbe00fb
:101b20000203410083834900e00f5300e08f5b0014
:101b300010003200020278008302780005f0a10054
:101b40000800200009f82700880f5200898f5a00ea
:101b500008003e00a0bf9f00b1bf9f00470dde0000
:101b60000b002000f40f20000a056200840f5500ce
:101b700007003a0055fd07000001be0074fc070095
:101b80004f05be004f04be000080fa0000000600b2
:101b90000002400081824800840f5300858f5b0063
:101ba00006003900840f5300858f5b00f4ff3a0074
:101bb0006011b80045fd0700f1ff37000a00e000a2
:101bc0004c003a002fbb9700bfbb9700493add009d
:101bd000c732de00850272004932dd00e00f52009c
:101be000e08f5a003f003d00610215002fbb9700b7
:101bf000bfbb9700040478000804e9000300330029
:101c00000603430087834b00fbff37000602be003c
:101c1000471bde00070020000683fb000600e000f3
:101c20003d003a00491cdd00c714de008904740041
:101c30004914dd00e00f5400e08f5c0032003d00ed
:101c4000e10313000204be008703e9000300330030
:101c50000804440089844c00fbff3700080152004f
:101c600089815a00860f55002f003c00e00f51007b
:101c7000e08f590004003500e00f5100e08f59005b
:101c8000cbff32000202be004728de000100200028
:101c9000e00f5000e08f58002e0032000a00e000f4
:101ca000300034000000200001f82f000402400042
:101cb000858248006150b900c700dd0000002000a7
:101cc00004007000858070006022b80002002800c7
:101cd000bfb997008302610000007200818072002a
:101ce000a7ff37000a05e9000402420085824a0086
:101cf000baff37002fba9700bfba9700f507b200b6
:101d00000570a000c2ff37000603e9000804440084
:101d100089844c00c7ff37000204be00f907b200f7
:101d20000970a000cdff3700e00f5100e08f59008f
:101d300004003500e00f5100e08f59009cff320095
:101d40000202be000402420085824a000a05e90040
:101d5000c2ff37000402420085824a000a05e900fa
:101d6000c9ff3700610515000400be000a05e9003f
:101d7000030033008100d1000080d300fbff370057
:101d8000d1ff37000400fa00889fbe000004be00a7
:101d90008900780001f0a100a4fd200095f4230043
:101da000840f5000858f58001e003e00f4ff2f0066
:101db000f5972300840f5000858f580016003e00d1
:101dc0006000b80003f8270089806100e00f500030
:101dd000e08f58000b003a0002002000033820007a
:101de0000800be00b9fc07000001be00c2bf9f0092
:101df000d3bf9f000800be004f04be000080fa0061
:101e0000000006000200200003b827000800be0002
:101e1000eafa0700f4ff37000800be00e3000700fd
:101e2000180037004f49de0003002000143d250054
:101e3000b5072400840f5000858f58001d003e0018
:101e400034be2c0065012400840f5000858f58009b
:101e50000e003e000800be000200e000b2fd2000bf
:101e600093fc230005003200d4fa07004400070069
:101e70000004be0009f0a200deff3700c6fa07002a
:101e80003f0007000004be00daff37000800be0074
:101e90000200e000b2fd20009304240003003200a1
:101ea000c6fa070001f0a200dcff3700bafa07000b
:101eb000fcff3700541d2300250e2400840f500022
:101ec000858f580017003e00f4dd2e00f50a24002f
:101ed000840f5000858f580009003e000800be00a6
:101ee0000200e00042be2c00630924000200320020
:101ef000b2fa0700e2ff3700a7fa0700dbff37005e
:101f00000800be000200e000b2fd2000930c240097
:101f100002003200a9fa0700c0ff37009efa07004e
:101f2000beff3700f2ff2f00f3f72700820f5000ab
:101f3000838f5800050036000801be000800be006f
:101f400095fa07000004be00aaff37006881570019
:101f50000800be003e000700630160004fb8970014
:101f6000dfb89700e10f5100c5ff3200e20f5100ca
:101f7000ccff32000200e000bcff3a00a7ff3700b0
:101f80000400fa00889fbe008a9fbe008c9fbe009e
:101f90000001be004dfc07000004be000001be00b1
:101fa0004afc07000005be000200200003f02b00e1
:101fb0000800be0045fc07000200200003f82300d3
:101fc0007efa07000006be00f2a92a00a3d2230071
:101fd0000a00be003dfc07000001be000c00be0070
:101fe00076fa07000002be0072a12900c37c23001c
:101ff0000800be0084bf9f0095bf9f0033fc070010
:10200000f243200063ab230063fa07000006be0022
:102010000a01be000800be002cfc07000001be0043
:102020000c00be0029fc07000001be000fba97009b
:102030009fba97000400be0060fa07004f06be007a
:102040004f05be004f04be000080fa0000000600ed
:102050000400fa00889fbe008a9fbe008c9fbe00cd
:1020600000067800810478008206780001f0a10063
:10207000a2fd200093dc2400820f5000838f5800c3
:1020800023003e0032982f0023f2230089007800bd
:102090000efc07000200200003b4240047fa0700ea
:1020a0000200200003b424003bfa07000005be0034
:1020b000e3f9070000047800a2fd200093fc230050
:1020c0000a00be0001fc07000001be000c00780001
:1020d0008900780030fa07000002be00325a28005a
:1020e000832823000a00be0084bf9f0095bf9f0085
:1020f000f6fb07000001be000fba97009fba9700d9
:102100000400be0024fa0700808ebe000b003700da
:10211000f2ff2f00f3f72700820f5000838f580043
:102120000c003600000178008901780089007800f1
:1021300019fa0700808ebe000004eb00080078004a
:102140004f06be004f05be004f04be000080fa00df
:1021500000000600890078004c0007000005be0062
:1021600032982f0023f22300d8fb07000200200042
:1021700003f0230011fa0700530007000004780061
:102180008ffd070032982f0023f22300f0fa07009a
:102190000001be000a00be00fff907006000b800a1
:1021a000a0069800b1069800d7ff37000400fa0097
:1021b000889fbe008a9fbe008c9fbe000006be00a6
:1021c0000001be00c1fb07000004be000001be000c
:1021d0000c00be00bdfb07000005be000801be00ec
:1021e0000800be00b9fb07000a01be00b7fb0700ec
:1021f0000002be00c2c32600636323000800be00c5
:1022000084bf9f0095bf9f00b0fb0700f27c2000b9
:1022100003952300e0f907000001be000fba970004
:102220009fba97000400be00a8fb07000002be0092
:102230004288280083c023000800be0084bf9f009e
:1022400095bf9f00a1fb0700b2aa2a00a3e22300ca
:10225000d1f907000a01be009cfb07000c01be007b
:10226000d6f907000001be000fba97009fba970089
:102270000400be00d1f907004f06be004f05be00a6
:102280004f04be000080fa00000006000400fa00bf
:102290006011b800e2bf9f00f3bf9f006fbb9700c3
:1022a000ffbb97000002be00f3ff2700838163009d
:1022b000f2ff2f00020062008280620002016300d0
:1022c0000080fa00000006000003be009df9070030
:1022d0006011b8000470a70007f0a1006509b10003
:1022e0001b00320012003500860220000628e100a3
:1022f00008003500f3ff2700f2ff2f006110b9003e
:102300000700e00018003b00030028006000b80050
:1023100002000500000040008180480002014900e1
:10232000838149008502e900faff3a00080037007e
:10233000f88f420002003c008000eb000000050026
:102340008100d1000080d3008502e800fcff3a0044
:102350000700e00004003b0060001000e08018006f
:0c23600060011900e08119000000060077
:020000040000fa
:10236c000e00fa00000f780012079800230798005f
:10237c00340798004507980056079800670798009f
:10238c001e0078001e019000ae0190000288be0075
:10239c001e0078003eb99700ceb9970062009800f5
:1023ac00730098001e0078003e019000ce01900052
:1023bc0022009800330098001e0078001eb9970088
:1023cc00aeb9970002089800130898001e00780018
:1023dc005e019000ee0190004200980053009800be
:1023ec001e0078007eb197008eb9970022089800e5
:1023fc0033089800000000000080fa00000006007e
:10240c000800fa00008fbe002207980033079800de
:10241c001e0178009e019000d2cf8800e3cf880087
:10242c002e019000be019000f2cf880003d08800ee
:10243c00000000000080fa00000006000800fa000e
:10244c00008fbe00220798003307980042b6230085
:10245c00f3dd23002e009000be00900018fb070057
:10246c0000017800010078008202780000027800f8
:10247c001e0178009e019000050078008400780011
:10248c000000be004af907008001780001017800c5
:10249c0003007800820078000000be0030ca88007b
:1024ac0041ca880042b62300f3dd23002e009000c1
:1024bc00be00900002fb07000001780001007800cc
:1024cc008201780000017800030078008200780017
:1024dc000001be001e0078009e0090002bf9070042
:1024ec0080017800010178000300780082007800f8
:1024fc000000be00f0c9880001ca880030ca800004
:10250c0041ca80000200200003202c00ecfa0700d6
:10251c0080017800010178000300780082007800c7
:10252c000000be0050cc880061cc8800f0c980004f
:10253c0001ca80000200200003202400e0fa0700fa
:10254c008001780001017800030078008200780097
:10255c000000be0070cc880081cc880050cc80007c
:10256c0061cc800004002000852c24000200200097
:10257c00832c2c00c80d070070cc800081cc80000f
:10258c0004002000852c240002002000832c2c0049
:10259c00c10d0700000000000080fa0000000600da
:1025ac001200fa00889fbe0060079800720798001e
:1025bc00030f98006e0090007e0190008e09900031
:1025cc0002109800131098006e00900060029000aa
:1025dc00f00290006e0090009000900010007800c7
:1025ec000001be000400be00d6f90700000178000f
:1025fc000100780082047800000478006e009000de
:10260c00f00090006000900001f0a2006e019000bc
:10261c009201900012017800caf9070000017800bd
:10262c000100780082017800000178007e039000a0
:10263c008e0b900009007800880078000002be0024
:10264c0003007800820078000001be000600be0086
:10265c00910d0700008fbe006e009000900090005e
:10266c00100078001e0178009e01900094fa07007b
:10267c008001780001017800030078008200780066
:10268c000001be006e0090002210980033109800dc
:10269c006e009000400c9000d00c900002002000c6
:1026ac00a33724007e0090008e089000a5f9070047
:1026bc0000017800010078008201780000017800a8
:1026cc0003007800820078000001be000800be0004
:1026dc00b7f807008001780001017800030078004a
:1026ec00820078000001be006e0090004208980045
:1026fc00530898006e009000000a9000900a900019
:10270c006e009000b0009000200090000001be0010
:10271c000400be008bf9070000017800010078006e
:10272c0082047800000478006e00900090089000fd
:10273c000008900001f0a2006e019000b201900020
:10274c00220190007ff90700000178000100780059
:10275c0082017800000178006e009000400b900020
:10276c00d00b900009007800880078000002be00b1
:10277c0003007800820078000001be000600be0055
:10278c00450d07000001be006e0090004208980045
:10279c00530898006e00900020029000b002900048
:1027ac006e009000d0089000400890000001be0020
:1027bc000400be0042fa0700800178000101780095
:1027cc0003007800820078000001be006e009000cb
:1027dc0042109800531098006e009000f008900082
:1027ec00600890000001be007e0090008e089000f2
:1027fc0066f807000001780001007800820278007a
:10280c000002780002002000a337240005007800a5
:10281c00840078000000be0029fa07002007980009
:10282c00310798006e009000200a9000b00a9000ca
:10283c006e009000d0009000400090000001be009f
:10284c000400be003ff90700000178000100780089
:10285c0082047800000478006e009000b0089000ac
:10286c002008900001f0a2006e019000d2019000af
:10287c004201900033f90700000178000100780054
:10288c0082017800000178002e039000be039000b6
:10289c0009007800880078000002be000300780070
:1028ac00820078000001be000600be00fa0c070092
:1028bc0040079800510798006e0090007e01900030
:1028cc008e09900062089800730898006e009000c2
:1028dc00d0009000400090004e019000de0190006e
:1028ec00f7f90700800178000101780003007800f7
:1028fc00820078000001be006e009000621098000b
:10290c00731098006e00900020129000b01290008e
:10291c006e009000d0109000401090000001be009e
:10292c000400be0022f807000001780001007800c6
:10293c0082027800000278006e009000f010900087
:10294c00601090000001be00050078008400780043
:10295c000000be0016f807000001780001007800a6
:10296c008200780081017800000178000300780073
:10297c00820078000000be004f04be000080fa0008
:10298c00000006000000fa00d4cf8000e5cf8000e4
:10299c0050cb800061cb80000001be000400be0063
:1029ac00faf7070080017800010178000300780035
:1029bc00820078000000be00d0cd8800e1cd8800f8
:1029cc00f4cf800005d0800070cb800081cb8000dc
:1029dc000001be000400be00ecf707008001780087
:1029ec000101780003007800820078000000be002e
:1029fc0050cf880061cf8800d0cd8000e1cd800021
:102a0c000001be00a0992100e5fe070090cc8800d3
:102a1c00a1cc880050cf800061cf80000001be00a7
:102a2c00a09c2100defe0700b0cc8800c1cc880041
:102a3c00b0cc8000c1cc800094cc8000a5cc8000b0
:102a4c000001be000400be007cfe0700030007006e
:102a5c00000000000080fa00000006005800fa0098
:102a6c00d0cd8000e1cd80000001be008000eb00e5
:102a7c000e007800ed0b070050cb800061cb80007e
:102a8c000001be00410020000e007800e70b07009b
:102a9c00d0cc8000e1cc80000001be008100200081
:102aac000e007800e10b0700f0cd800001ce800015
:102abc000001be00c10020000e007800db0b0700f7
:102acc0030cd800041cd80000001be00010120000e
:102adc000e007800d50b0700f0cc800001cd8000f3
:102aec000001be00410120000e007800cf0b070052
:102afc0010ce800021ce80000001be00810120009c
:102b0c000e007800c90b070050cd800061cd80000d
:102b1c000001be00c10120000e007800c30b0700ad
:102b2c0010cd800021cd80000001be0001022000ec
:102b3c000e007800bd0b070030ce800041ce800027
:102b4c000001be00410220000e007800b70b070008
:102b5c0070cd800081cd80000001be00810220007c
:102b6c000e007800b10b070050cf800061cf8000c1
:102b7c000001be00c10220000e007800ab0b070064
:102b8c0070cb800081cb80000001be0001032000cf
:102b9c000e007800a50b070050ce800061ce80009f
:102bac000001be00410320000e0078009f0b0700bf
:102bbc0070cf800081cf80000001be008103200017
:102bcc000e007800990b0700b0ce8000c1ce8000bb
:102bdc000001be00c10320000e007800930b07001b
:102bec0070ce800081ce80000001be000104200068
:102bfc000e0078008d0b070090cf8000a1cf8000d5
:102c0c000001be00410420000e007800870b070075
:102c1c00d0ce8000e1ce80000001be0081042000f7
:102c2c000e007800810b070090ce8000a1ce8000b2
:102c3c000001be00c10420000e0078007b0b0700d1
:102c4c00b0cf8000c1cf80000001be000105200084
:102c5c000e007800750b0700f0ce800001cf8000cd
:102c6c000001be00410520000e0078006f0b07002c
:102c7c000e0178008105200090062000d604070084
:102c8c00000000000080fa00000006001800fa00a6
:102c9c00889fbe008a9fbe00b0818000c1818000e9
:102cac0094828000a58280000001be000400be005a
:102cbc00d90a07000002be0090828000a182800029
:102ccc000001be000400be0030f7070000017800d0
:102cdc000100780082017800000178000300780080
:102cec00820078007082880081828800d481800004
:102cfc00e5818000d0818000e18180000001be0070
:102d0c000400be00eef80700000178000100780016
:102d1c0082047800000478001082800021828000f8
:102d2c000001be0022f707000001780001007800c6
:102d3c00820178000001780003007800820078009e
:102d4c000001be0009007800880078000000be0079
:102d5c00fcf7070000017800010078008201780080
:102d6c00000178000300780082007800b0828800af
:102d7c00c1828800d0818000e181800002002000a7
:102d8c00a3372400eff7070000017800010078005a
:102d9c00820178000001780003007800820078003e
:102dac00f081880001828800d0818000e181800060
:102dbc006011b8009bf607000000e00005003d0024
:102dcc00b0828000c182800001f0a200b082880035
:102ddc00c1828800b0828000c18280006011b8007e
:102dec0092f607000000e0000600350070828000bb
:102dfc00818280006011b8008cf607000000e000b2
:102e0c000c003d00b0828000c18280006011b800cf
:102e1c0084f607000000e0005d003c00708280003a
:102e2c00818280006011b8007ef607000000e0008f
:102e3c0057003c007082800081828000530b070099
:102e4c000004be00b0828000c18280004f0b0700de
:102e5c000001be000800be0074f607000000e00090
:102e6c004b00350070828000818280006011b800b8
:102e7c006ef607000000e0001e003400588280004f
:102e8c006982800010828000218280000200200074
:102e9c00a3372400abf7070000017800010078008d
:102eac008202780000027800d0818000e1818000ed
:102ebc000001be0005007800840078000000be0010
:102ecc00bbf6070000017800010078008202780050
:102edc00000278000801be0005007800840078002c
:102eec000000be00550b0700d0818800e1818800ee
:102efc007a00370070828000818280006011b800f7
:102f0c0048f607000000e0000100350073003700b0
:102f1c0050828000618280000004be0009f0a20093
:102f2c00da818000eb818000108280002182800099
:102f3c0002002000a337240082f70700000178006c
:102f4c00010078008201780000017800030078000d
:102f5c00820078000001be000a00be008bf607005c
:102f6c0000017800010078008202780000027800ed
:102f7c000801be0005007800840078000000be0047
:102f8c002e0b0700d0818800e181880053003700a8
:102f9c00d0818000e18180006011b80023f6070029
:102fac000000e0001c003400d8818000e981800022
:102fbc00108280002182800002002000a3372400b0
:102fcc0060f70700000178000100780082017800aa
:102fdc000001780003007800820078000001be0038
:102fec000800be0069f607000001780001007800b7
:102ffc0082027800000278006011b80005007800a9
:10300c00840078000000be000c0b0700d081880003
:10301c00e181880021003700d0818000e1818000af
:10302c006011b800fff507000000e0001b003d0038
:10303c00108280002182800002002000a33724002f
:10304c0040f7070000017800010078008202780048
:10305c0000027800d0818000e18180000001be0078
:10306c0005007800840078000000be0050f60700d0
:10307c0000017800010078008202780000027800dc
:10308c006011b80005007800840078000000be00d4
:10309c00d30a0700d0818800e1818800708280000b
:1030ac0081828000b90a07000004be0030828000d3
:1030bc0041828000b50a07000001be000800be0076
:1030cc00d8f507000000e00004003d00708280008d
:1030dc0081828000f08188000182880094828000c7
:1030ec00a5828000f0818000018280000001be007a
:1030fc000400be002ef607000001780001007800e5
:10310c0082017800000178000300780082007800ca
:10311c0090828800a182880090828000a182800029
:10312c000001be008000eb000e0078003f0a070093
:10313c000e0178008101200010082000a603070072
:10314c00d0818000e18180006011b800b5f50700e6
:10315c000000e000010032000d003700708280009a
:10316c0081828000890a0700a2702d0033c22300df
:10317c00acf507000000e00001003500040037004a
:10318c00b0818000c181800090828800a18288007b
:10319c00000000004f05be004f04be000080fa0086
:1031ac00000006000e00fa003d0c07008a0c070018
:1031bc00ec0b07005b080700420507004d050700f4
:1031cc001d0d070057050700da060700e306070088
:1031dc00854ea8006000b800809fbe000000200053
:1031ec0081342400809fbe000000200001122400c6
:1031fc00809fbe006033b80004002000c53024005e
:10320c0002002000030e2400a099210054fc0700aa
:10321c00ec8757006000b800809fbe0000002000c3
:10322c0081342400809fbe00000020000112240085
:10323c00809fbe006033b80004002000c53024001d
:10324c0002002000030e2400a09c210044fc070077
:10325c00ec8757000000eb00000f780005003700ea
:10326c00bf0c0700204798002e409000ab030700ce
:10327c001e0fe800d40c07009e007800808f5000d1
:10328c00f7ff3500fd0b07000004e000f1ff3200f2
:10329c00fe0b0700f50b0700200798002e0090008e
:1032ac00100078008000eb00a1f5070032332300fa
:1032bc003305240082f70700000178000100780034
:1032cc0082027800000278000200200003582400db
:1032dc0005007800840078000000be0099f6070015
:1032ec0030079800410798003e019000ce019000f5
:1032fc00000020008120240092f6070000017800d5
:10330c0001007800820278000002780002002000a0
:10331c00030a240005007800840078000000be0039
:10332c009af507008001780001017800030078000d
:10333c00820078000000be00d0ca8800e1ca880074
:10334c00640047001080e800100078008000eb005b
:10335c0077f50700323323003305240058f70700b4
:10336c0000017800010078008202780000027800e9
:10337c000200200003582400050078008400780027
:10338c000000be006ff60700300798004107980058
:10339c003e019000ce01900000002000812024000e
:1033ac0068f60700000178000100780082027800be
:1033bc000002780002002000030a240005007800b7
:1033cc00840078000000be0070f5070080017800d2
:1033dc000101780003007800820078000000be0034
:1033ec00f0ca880001cb880064004700410020002f
:1033fc0010804000100078008000eb004cf50700b6
:10340c0032332300330524002df707000001780028
:10341c00010078008202780000027800020020008f
:10342c000358240005007800840078000000be00da
:10343c0044f6070030079800410798003e019000c1
:10344c00ce01900000002000812024003df60700f2
:10345c0000017800010078008202780000027800f8
:10346c0002002000030a2400050078008400780084
:10347c000000be0045f507008001780001017800ce
:10348c0003007800820078000000be00b0ca8800fb
:10349c00c1ca88006400470062002000100041008f
:1034ac00100078008000eb0021f507003233230078
:1034bc003305240002f707000001780001007800b2
:1034cc0082027800000278000200200003582400d9
:1034dc0005007800840078000000be0019f6070093
:1034ec0030079800410798003e019000ce019000f3
:1034fc00000020008120240012f607000001780053
:10350c00010078008202780000027800020020009e
:10351c00030a240005007800840078000000be0037
:10352c001af507008001780001017800030078008b
:10353c00820078000000be0090ca8800a1ca8800f2
:10354c0064004700810020001080400010007800cb
:10355c008000eb00f6f4070032332300330524001f
:10356c00d7f607000001780001007800820278008d
:10357c0000027800020020000358240005007800a7
:10358c00840078000000be00eef5070030079800bc
:10359c00410798003e019000ce01900000002000f1
:1035ac0081202400e7f50700000178000100780075
:1035bc00820278000002780002002000030a240036
:1035cc0005007800840078000000be00eff40700ce
:1035dc0080017800010178000300780082007800f7
:1035ec000000be0070ca880081ca88001083800069
:1035fc008000e8001183880021032000010178007d
:10360c00110009000200d8008000fd000000e0005d
:10361c0019003a00f0ca800001cb8000a6f4070024
:10362c0080407800a000200001777800b0ca8000ac
:10363c00c1ca8000a0f4070080407800a0002000e0
:10364c000000e8000177780090ca8000a1ca8000d1
:10365c0099f4070080407800a00020000080e8006a
:10366c00017778006a0047000001780031002000e3
:10367c000003200058020700d0ca8000e1ca800075
:10368c0002002000031f240066f407000000e00085
:10369c0005003d0084cea800f08280000040a00010
:1036ac00f08288000400370084cea900f0828000ec
:1036bc006f006000f0828800f0ca800001cb8000af
:1036cc00020020000320240056f407000000e00054
:1036dc0005003d0084aea800f08280000030a00000
:1036ec00f08288000400370084aea900f0828000cc
:1036fc0077006000f0828800b0ca8000c1ca8000e8
:10370c00020020000322240046f407000000e00021
:10371c0005003d00848ea800f08280000020a000ef
:10372c00f082880004003700848ea900f0828000ab
:10373c007b006000f082880090ca8000a1ca8000e3
:10374c00020020000320240036f407000000e000f3
:10375c0005003d00856ea800f08280000010a000de
:10376c00f082880004003700856ea900f08280008a
:10377c007d006000f082880070ca800081ca8000e1
:10378c0002002000031f240026f407000000e000c4
:10379c0005003d00754ea800f08280000000a000de
:1037ac00f082880004003700754ea900f08280007a
:1037bc007e006000f0828800b0ca8000c1ca800020
:1037cc0002002000c320240018f407000000e000d1
:1037dc001e003400f0ca800001cb800002002000e3
:1037ec00031a240011f407000000e0001700340055
:1037fc0090ca8000a1ca800002002000031a240095
:10380c000af407000000e0001000340070ca8000c9
:10381c0081ca800002002000031a240003f4070070
:10382c000000e00009003400d0ca8000e1ca80002a
:10383c0002002000031a2400fcf307000000e00043
:10384c000200340010012000f082880081fe370055
:10385c000600fa0064d0bf00004f7800308380006f
:10386c00418380004808de00010020000040780001
:10387c001047980030838000418380004008de00b0
:10388c000100200000407800204798003083800021
:10389c00418380004809dd004800de000000710013
:1038ac00c808de0000407800304798003083800064
:1038bc0000407800404798000e017800510020002d
:1038cc0000052000c4010700000000000080fa0081
:1038dc00000006000000fa0064d0bf000080fb006e
:1038ec006100b9000001be00400120000100200071
:1038fc00800f5100818f590077003e0002060100b5
:10390c00140037001e003700270037002e00370048
:10391c0032003700390037003d00370044003700d3
:10392c004800370050003700540037005c00370067
:10393c006900370068003700670037006600370001
:10394c006500370064003700630037006200370001
:10395c00580037006630ef006830ef006011b80097
:10396c006000b800a6fa0700608080000000e0004c
:10397c005b00320010c0b30064f0b7005800370091
:10398c003283800043838000803e200001002000b1
:10399c00800f5100818f59005300360020c0b300b6
:1039ac0064f0b70050003700a9ff07006011b800a1
:1039bc000000200001f8230091fa070030c0b3008a
:1039cc0064f0b70053003700608080000000e00016
:1039dc004700320052000700450037009cff0700eb
:1039ec0052592200030324006000b80084fa070037
:1039fc0050c0b30064f0b700460037006080800010
:103a0c000000e0003c003200450007003a0037009f
:103a1c008fff07006011b800a099290091e92300dd
:103a2c0077fa070070c0b30064f0b70039003700b4
:103a3c00608080000000e000310032003800070098
:103a4c002f00370082ff070062cc2d00a3062c004c
:103a5c00d0cc2c00c1ec230069fa070090c0b30055
:103a6c0064f0b7002b003700608080000000e0009d
:103a7c00250032002a0007002300370074ff0700de
:103a8c0062cc2d00a3062400d0cc2c00c1ec2b0062
:103a9c005bfa0700b0c0b30064f0b7001d0037003c
:103aac00608080000000e000190032001c0007005c
:103abc001700370066ff0700c29f2c0023092c005b
:103acc000000200001f02b004dfa0700b0c0b3003d
:103adc0064f0b7000f0037006470ef000d00370082
:103aec00000000000b003700000000000900370048
:103afc000000000007003700000000000500370040
:103b0c000000000003003700000000000100370037
:103b1c0000000000000000000080fa000000060019
:103b2c000200fa000040eb00004f7800f0828000a9
:103b3c00e10f500003003a0050c0b300004f780072
:103b4c00b9003700f0828000e20f500003003a0009
:103b5c0050c0b300004f7800b3003700f0828000f3
:103b6c00e40f500003003a0030c0b300004f78005f
:103b7c00ad003700f0828000e80f500003003a00df
:103b8c0010c0b300004f7800a7003700f08280000f
:103b9c00f00f500003003a0030c0b300004f780023
:103bac00a1003700f0828000f10f500003003a00b2
:103bbc0080c0b300004f78009b003700f08280007b
:103bcc00fb0f500003003a0030c0b300004f7800e8
:103bdc0095003700f0828000f80f500003003a0087
:103bec0030c0b300004f78008f003700f0828000a7
:103bfc00fc0f500003003a0030c0b300004f7800b7
:103c0c0089003700f0828000fe0f500003003a005c
:103c1c0030c0b300004f780083003700f082800082
:103c2c00e30f500003003a0050c0b300004f78007f
:103c3c007d003700f0828000e70f500003003a004f
:103c4c0050c0b300004f780077003700f08280003e
:103c5c00ef0f500003003a0050c0b300004f780043
:103c6c0071003700f0828000ff0f500003003a0013
:103c7c0050c0b300004f78006b003700f08280001a
:103c8c00e60f500003003a0050c0b300004f78001c
:103c9c0065003700f0828000ec0f500003003a0002
:103cac0030c0b300004f78005f003700f082800016
:103cbc00e90f500003003a0020c0b300004f780019
:103ccc0059003700f0828000f20f500003003a00d8
:103cdc0010c0b300004f780053003700f082800012
:103cec00eb0f500003003a0050c0b300004f7800b7
:103cfc004d003700f0828000ea0f500003003a00bc
:103d0c0030c0b300004f780047003700f0828000cd
:103d1c00f30f500003003a0020c0b300004f7800ae
:103d2c0041003700f0828000f90f500003003a0088
:103d3c0010c0b300004f78003b003700f0828000c9
:103d4c00f50f500003003a0030c0b300004f78006c
:103d5c0035003700f0828000fd0f500003003a0060
:103d6c0030c0b300004f78002f003700f082800085
:103d7c00f70f500003003a0010c0b300004f78005a
:103d8c0029003700f0828000fa0f500003003a003f
:103d9c0050c0b300004f780023003700f082800041
:103dac00ee0f500003003a0050c0b300004f7800f3
:103dbc001d003700f0828000ed0f500003003a0028
:103dcc0050c0b300004f780017003700f08280001d
:103ddc00f60f500003003a0030c0b300004f7800db
:103dec0011003700f0828000e50f500003003a000c
:103dfc0050c0b300004f78000b003700f0828000f9
:103e0c00f40f500003003a0030c0b300004f7800ac
:103e1c0005003700f08280000000e00002003a004c
:103e2c000040eb00004f78001e4078000004e000da
:103e3c0003003a0020c0b30065f0b7002300370040
:103e4c001e407800e24f500003003a0040c0b3001f
:103e5c0065f0b7001d0037001e407800e14f5000a0
:103e6c0003003a0060c0b30065f0b70017003700dc
:103e7c001e407800e14f500003003a0060c0b300d0
:103e8c0065f0b700110037001e407800e54f500078
:103e9c0003003a0080c0b30065f0b7000b00370098
:103eac001e407800e84f500003003a0020c0b300d9
:103ebc0065f0b700050037001e407800e34f500056
:103ecc0002003a00a0c0b30065f0b70065d0bf0097
:103edc000080fb0041062100914078008180fb00ae
:103eec008100e900810f50000200320065d0bf0054
:103efc0064f0b700000000000080fa00000006002b
:103f0c000a00fa0020079800310798004207980031
:103f1c000040eb00004f78009e407800e0cfb300eb
:103f2c0000c06800004f78002e0090004880de0032
:103f3c00804078001e40780000c06800004f780078
:103f4c002e009000804078001e40780000c0680071
:103f5c00004f78003e0090004880de0080407800e2
:103f6c001e40780000c06800004f78003e009000b2
:103f7c00804078001e40780000c06800004f780038
:103f8c000000eb00100798000c0037001e0090009a
:103f9c00e800470011004000104078009e40780077
:103fac0000c06800004f78000e80e8008e80e800aa
:103fbc001108e80090007800110798009e0090000e
:103fcc003e009000808f5000f0ff35001e407800be
:103fdc000080fa00000006000a00fa00881f780032
:103fec002007980031079800420798000000eb006a
:103ffc00000f78009e007800010fe800c01321002c
:10400c0001004000e1cfb300014878002e00900081
:10401c004880de009e007800010fe8000041780027
:10402c00c013210001004000024878009e00780077
:10403c00010fe8002e00900000417800c013210011
:10404c0001004000024878003e0090004880de00ed
:10405c009e007800010fe80000417800c013210099
:10406c0001004000024878009e007800010fe80033
:10407c003e00900000417800c01321000100400078
:10408c00024878000000eb00100798000e00370083
:10409c001e009000e8004700110040009e007800d0
:1040ac00010fe80010417800c0132100010040000e
:1040bc00024878000e80e8008e80e8001108e800c5
:1040cc0090007800110798009e0090003e00900030
:1040dc00808f5000eeff35001e047800080fe800ba
:1040ec004e019000be0090002e00900084ff07004f
:1040fc0080407800c013210008004000014878007f
:10410c009e007800c01321005e070700000000002d
:10411c004f0478000080fa00000006000200fa004c
:10412c00004f780050808000e30f500022003200d6
:10413c00e30f500007003c00e10f5000120032006a
:10414c00e10f500015003c000000e00008003200b8
:10415c0045003700e50f500024003200e50f5000f9
:10416c001b003500e60f50002f0032003e003700d8
:10417c001e407800e24f40003d003a001000200045
:10418c00508088003a0037001e80fb0000808800b9
:10419c002000200050808800380037001e80fb0073
:1041ac000180800001004000008088003000200069
:1041bc0050808800310037001e80fb004800dd0075
:1041cc001080880040002000508088002b003700b1
:1041dc001e80fb00118080000100400010808800d0
:1041ec00500020005080880024003700218080007f
:1041fc00c0082100010040001e487800208080008b
:10420c000000e80020808800218080001080800061
:10421c00808f50001800350060002000508088000e
:10422c000430ef0014003700118080000080800003
:10423c00c208210032ff07000080fb00408088008c
:10424c001e80fb0041808000810f500004003a006a
:10425c001180800000808000c20821000a00070045
:10426c000a30ef00050037000a30ef00030037007a
:10427c0000000000010037000000000000000000fa
:10428c000080fa00000006000600fa00889fbe00bd
:10429c008a9fbe00000f7800110798002207980033
:1042ac00200520009e007800808f500061003200b5
:1042bc00200520009e007800808f500009003c00f3
:1042cc00000220009e007800808f50000e0032000b
:1042dc00100520009e007800808f500051003200a5
:1042ec00b2003700700620009e007800808f5000ce
:1042fc0054003200100820009e007800808f50007f
:10430c009f003200a90037002e00900090407800ea
:10431c0010c3b30080cf500009003a00640047007e
:10432c001000e8009040780010c3b30080cf50001c
:10433c0002003a0084cea8000100370084cea90008
:10434c002e0090009040780020c3b30080cf500026
:10435c0009003a00640047001000e8009040780023
:10436c0010c3b30080cf500002003a0084aea80006
:10437c000100370084aea9002e0090009040780018
:10438c0030c3b30080cf500009003a0064004700ee
:10439c001000e8009040780010c3b30080cf5000ac
:1043ac0002003a00848ea80001003700848ea90018
:1043bc002e0090009040780040c3b30080cf500096
:1043cc0009003a00640047001000e80090407800b3
:1043dc0010c3b30080cf500002003a00856ea800d5
:1043ec0001003700856ea9002e00900090407800e7
:1043fc0050c3b30080cf50006b003a0064004700fc
:10440c001000e8009040780010c3b30080cf50003b
:10441c0002003a00754ea80063003700754ea900e3
:10442c00610037002e0090001040780064000700f7
:10443c005e0037002e0090001040780094000700ba
:10444c005a003700c10120002e0090006c060700b6
:10445c000005be00810120002e00900068060700b8
:10446c000004be00410120002e00900064060700ed
:10447c000001be006000b800809fbe00000020005c
:10448c00813c2400809fbe0000002000011224000b
:10449c00809fbe000a03be000802be00a099210046
:1044ac00aff70700ec8757008000eb002e00900060
:1044bc00530607000005be00410020002e009000ae
:1044cc004f0607000004be00810020002e00900063
:1044dc004b0607000001be006000b800809fbe00c4
:1044ec0000002000813c2400809fbe0000002000c2
:1044fc0001122400809fbe000a03be000802be0009
:10450c00a09c210096f70700ec8757002e01900025
:10451c009e00900080062000affe070001012000e5
:10452c002e009000360607000004be00c1002000db
:10453c002e009000320607000801be00b0f70700fd
:10454c00410120002e0090002d060700708088008d
:10455c0081808800810120002e0090002806070031
:10456c0090808800a1808800c10120002e0090005e
:10457c0023060700b0808800c18088000b0037003c
:10458c008000eb002e0090001d060700d0808800f4
:10459c00e18088008000eb002e00900018060700d8
:1045ac00baf907000100370000000000000000000d
:1045bc004f05be004f04be000080fa00000006004c
:1045cc000200fa00004f78001e80fb00e60f50003e
:1045dc001c003200e60f500007003c00e20f5000b8
:1045ec0012003200e40f5000130032000000e00013
:1045fc000d00320021003700ea0f50001700320086
:10460c00ea0f500003003c00e80f5000100032008d
:10461c001a003700ec0f500013003200ee0f500060
:10462c0013003200150037006470ef0020c0b30097
:10463c0064f0b7001300370040c0b30064f0b7005b
:10464c001000370060c0b30064f0b7000d003700f5
:10465c0080c0b30064f0b7000a003700a0c0b300fc
:10466c0064f0b70007003700c0c0b30064f0b700b7
:10467c00e0c0b30064f0b700020037006470ef00d4
:10468c0000000000000000000080fa00000006009e
:10469c000200fa00004f78001e4078000004e00091
:1046ac0003003a000c30ef006470ef00020037009a
:1046bc001000200060808800000000000080fa00dc
:1046cc00000006000000fa0005e1a9000421a90081
:1046dc0000002000a13724002c0007000068a9006e
:1046ec002068a80005e1a800000000000080fa0086
:1046fc00000006000000fa001fe1a9001e21a9001d
:10470c0000002400c1612400d50007000368a90043
:10471c002368a8001fe1a800000000000080fa0038
:10472c00000006000000fa0013e1a90011e1a90045
:10473c001061a8001021a900800880000040a10091
:10474c000050a100800888000a21ef000621ef002c
:10475c0060562100700888006056210060088800af
:10476c00204280000000a0000010a1000020a10049
:10477c00204288000108a9002108a80011e1a80026
:10478c00000000000080fa00000006000400fa009f
:10479c00008fbe00200880000040a1000050a10046
:1047ac002008880000848000118480001e0178009d
:1047bc009e01900063f10700000178000100780071
:1047cc00820278000002780002f02f00f3772400b8
:1047dc0005007800840078000000be0013f007008c
:1047ec000000e0008d003400200880000040a00094
:1047fc000050a100200888000084800011848000f3
:10480c001e0178009e0190004ef107000001780017
:10481c00010078008202780000027800020020007b
:10482c000310240005007800840078000000be000e
:10483c0044f1070000017800010078008202780042
:10484c000002780002f02f00f377240005007800b6
:10485c00840078000000be00f4ef07000000e000c8
:10486c0055003400200880000040a1000050a0003a
:10487c002008880000848000118480001e017800cc
:10488c009e0190002ff107000001780001007800d4
:10489c008202780000027800020020000328240025
:1048ac0005007800840078000000be0025f10700a8
:1048bc000001780001007800820278000002780084
:1048cc0002f02f00f37724000500780084007800b4
:1048dc000000be00d5ef07000000e0001d00340012
:1048ec00200880000040a0000050a0002008880094
:1048fc0000848000118480001e0178009e019000cd
:10490c0010f10700000178000100780082027800a5
:10491c000002780002002000033824000500780013
:10492c00840078000000be0006f10700000178004a
:10493c000100780082017800000178000300780003
:10494c00820078000000be00baef07001008880053
:10495c004000370000848000118480001e01780024
:10496c009e019000f7f0070000017800010078002c
:10497c008202780000027800020020000328240044
:10498c0005007800840078000000be00edf0070000
:10499c0000017800010078008201780000017800a5
:1049ac0003007800820078000000be00a1ef070031
:1049bc0010088800270037000084800011848000d4
:1049cc001e0178009e019000def0070000017800c7
:1049dc0001007800820278000002780002002000ba
:1049ec000310240005007800840078000000be004d
:1049fc00d4f00700000178000100780082017800f3
:104a0c000001780003007800820078000000be00ee
:104a1c0088ef0700100888000e0037000084800023
:104a2c00118480001e0178009e019000c5f00700e3
:104a3c000001780001007800820178000001780004
:104a4c0003007800820078000000be0079ef0700b8
:104a5c0010088800000000000080fa00000006002a
:104a6c000400fa00008fbe00f00880000040a10096
:104a7c000050a100f00888000084800011848000a0
:104a8c001e0178009e019000aef007000001780036
:104a9c0001007800820278000002780002f02f00fa
:104aac00f377240005007800840078000000be0035
:104abc005eef07000000e0008d003400f00880007d
:104acc000040a0000050a100f00888000084800085
:104adc00118480001e0178009e01900099f007005f
:104aec000001780001007800820278000002780052
:104afc0002002000031024000500780084007800d8
:104b0c000000be008ff00700000178000100780063
:104b1c00820278000002780002f02f00f377240064
:104b2c0005007800840078000000be003fef07000d
:104b3c000000e00055003400f00880000040a100a7
:104b4c000050a000f00888000084800011848000d0
:104b5c001e0178009e0190007af007000001780099
:104b6c000100780082027800000278000200200028
:104b7c000328240005007800840078000000be00a3
:104b8c0070f00700000178000100780082027800c4
:104b9c000002780002f02f00f37724000500780063
:104bac00840078000000be0020ef07000000e00049
:104bbc001d003400f00880000040a0000050a00050
:104bcc00f008880000848000118480001e017800a9
:104bdc009e0190005bf00700000178000100780056
:104bec0082027800000278000200200003382400c2
:104bfc0005007800840078000000be0051f007002a
:104c0c000001780001007800820178000001780032
:104c1c0003007800820078000000be0005ef07005a
:104c2c00d008880040003700008480001184800088
:104c3c001e0178009e01900042f0070000017800f0
:104c4c000100780082027800000278000200200047
:104c5c000328240005007800840078000000be00c2
:104c6c0038f007000001780001007800820178001c
:104c7c000001780003007800820078000000be007c
:104c8c00ecee0700d0088800270037000084800075
:104c9c00118480001e0178009e01900029f007000d
:104cac000001780001007800820278000002780090
:104cbc000200200003102400050078008400780016
:104ccc000000be001ff00700000178000100780012
:104cdc0082017800000178000300780082007800df
:104cec000000be00d3ee0700d00888000e0037008d
:104cfc0000848000118480001e0178009e019000c9
:104d0c0010f00700000178000100780082017800a3
:104d1c000001780003007800820078000000be00db
:104d2c00c4ee0700d0088800000000000080fa00e4
:104d3c00000006000000fa00c301a800dca1ef008f
:104d4c00dea1ef00c1e1a8006630ef006830ef0093
:104d5c00000000000080fa00000006000000fa00cd
:104d6c00c305a800dca5ef00dea5ef00c1e5a80097
:104d7c00000000000080fa00000006000800fa00a5
:104d8c00889fbe008a9fbe00108180002181800018
:104d9c00f080880001818800508180006181800052
:104dac003081880041818800300e80008000eb004b
:104dbc00008fbe00500e80008000eb00c000dd00b4
:104dcc00000020001e0f40005e974800302e80002f
:104ddc008000eb002007980031079800502e8000cf
:104dec008000eb00c000dd000000200064014700e3
:104dfc00e401470033194000239148001202780067
:104e0c009202900024079800350798001e00780045
:104e1c009e009000c3ee0700c2532e00737823004f
:104e2c00a7f00700000178000100780082017800eb
:104e3c00000178000300780082007800108188005f
:104e4c00218188002e009000be009000b5ee070076
:104e5c00c2532e0073782b0099f0070000017800e4
:104e6c0001007800820178000001780003007800ce
:104e7c008200780050818800618188001481800054
:104e8c0025818000f0808000018180000001be003f
:104e9c000400be00bdee07000001780001007800a0
:104eac00820178000001780003007800820078000d
:104ebc007081880081818800548180006581800028
:104ecc0030818000418180000001be000400be00e2
:104edc00aeee070000017800010078008201780036
:104eec00000178000300780082007800908188002f
:104efc00a1818800708180008181800002002000e7
:104f0c00a33724006ef007008001780001017800bf
:104f1c0003007800820078000000be0010cb8800ef
:104f2c0021cb880090818000a181800002002000ac
:104f3c00a337240062f0070080017800010178009b
:104f4c0003007800820078000000be0030cb88009f
:104f5c0041cb880014cb800025cb800030cb800067
:104f6c0041cb80000001be000400be0090ee0700a3
:104f7c0000017800010078008202780000027800bd
:104f8c000200200003002400050078008400780053
:104f9c000000be006bef0700800178000101780073
:104fac0003007800820078000000be0050cb88001f
:104fbc0061cb880014cb800025cb800030cb8000e7
:104fcc0041cb80000001be000400be006fee070064
:104fdc00000178000100780082027800000278005d
:104fec0042b62300f3e52300050078008400780026
:104ffc000000be0053ef070080017800010178002b
:10500c0003007800820078000000be0070cb88009e
:10501c0081cb8800b0cb8000c1cb800090cb8800c6
:10502c00a1cb8800f0cb800001cc8000d0cb8800d5
:10503c00e1cb880030cc800041cc800010cc8800c3
:10504c0021cc880098cb8000a9cb80005acb800063
:10505c006bcb800030cc800041cc800042f207004a
:10506c000001be000a00be0015f007000001780028
:10507c000100780082027800000278000200200013
:10508c00a337240005007800840078000000be00df
:10509c002cef0700000178000100780082017800f5
:1050ac000001780003007800820078000001be0047
:1050bc000800be003eee0700800178000101780078
:1050cc0003007800820078000000be00b0cb88009e
:1050dc00c1cb8800d8cb8000e9cb80005acb8000b4
:1050ec006bcb800030cc800041cc800022f30700d9
:1050fc000001be000a00be00f1ef070000017800bd
:10510c000100780082027800000278000200200082
:10511c00a337240005007800840078000000be004e
:10512c0008ef070000017800010078008201780088
:10513c000001780003007800820078000001be00b6
:10514c000800be001aee070080017800010178000b
:10515c0003007800820078000000be00f0cb8800cd
:10516c0001cc880018cc800029cc800070cb80004a
:10517c0081cb800002002000a3372400f1ee070051
:10518c0000017800010078008201780000017800ad
:10519c0003007800820078000001be000800be0009
:1051ac0003ee07008001780001017800030078000d
:1051bc00820078000000be0030cc880041cc880012
:1051cc0030cc800041cc8000b2fd20009304240040
:1051dc0096ed07000000e0000c00340030cc80009d
:1051ec0041cc8000b2fd2000930c2400e7ed0700b9
:1051fc0080017800010178000300780082007800bb
:10520c000000be0030cc880041cc880030cc80003f
:10521c0041cc8000b2fd200093042c0081ed0700ee
:10522c000000e000010035000c00370030cc80009d
:10523c0041cc8000b2fd2000930c2400dced070073
:10524c00800178000101780003007800820078006a
:10525c000000be0030cc880041cc8800000000006b
:10526c004f05be004f04be000080fa00000006008f
:10527c001800fa0030838000418380000001780020
:10528c00810178008000eb000e007800040207001a
:10529c00b0cb8000c1cb80000001be0041002000db
:1052ac000e007800e1010700f0cb800001cc8000fb
:1052bc000001be00810020000e007800db01070019
:1052cc0030cc800041cc80000001be00c100200029
:1052dc000e007800d501070050cb800061cb800018
:1052ec000001be00010120000e007800cf01070074
:1052fc0070cb800081cb80000001be0041012000fa
:10530c000e007800c90107000e0178008101200011
:10531c001006200030fb0700000000000080fa009f
:10532c00000006000000fa0002ccbf000000a10043
:10533c000010a1000020a10002ecb7000096200094
:10534c00206088001061800000a0a00000b0a000c8
:10535c001061880023cca80023eca80030002000aa
:10536c00206188001062800000a0a00000b0a000a6
:10537c001062880043cca80043eca8003000200049
:10538c002062880001eca800000000000080fa00f8
:10539c00000006000600fa00008fbe0022079800ed
:1053ac002e0090000000e0000c003a001e00780077
:1053bc009e00900001f0a20030ca880041ca88000b
:1053cc001e0078009e0090003bed070080407800a6
:1053dc0020a12100114098000a0037001e0178001e
:1053ec009e019000f2c9880003ca88001e00780054
:1053fc009e00900030ed07008040780020a1210035
:10540c000148780022a12100210020000004200086
:10541c00f1fa0700000000000080fa00000006000e
:10542c000000fa00889fbe0014ca800025ca8000c4
:10543c0070cc800081cc80000001be000400be0056
:10544c00f8ec07000000e00014003d0078cc800070
:10545c0089cc800014ca800025ca8000708380002b
:10546c00818380000001be000400be0050ed0700e7
:10547c0000017800010078008202780000027800b8
:10548c000801be0005007800840078000000be0012
:10549c00ea01070010ca880021ca880014ca8000db
:1054ac0025ca800070cc800081cc80000001be0039
:1054bc000400be00ddec07000000e0001400340026
:1054cc0078cc800089cc800014ca800025ca80006a
:1054dc0070838000818380000001be000400be0048
:1054ec002aed0700000178000100780082027800a4
:1054fc00000278000801be000500780084007800e6
:10550c000000be00b601070010ca880021ca88003e
:10551c0010ca800021ca80006011b800c3ec0700db
:10552c000000e0001e00340010ca800021ca800078
:10553c0002002000031c2400e1ee070000017800ab
:10554c0001007800820278000002780090838000cd
:10555c00a18380000001be00050078008400780063
:10556c000000be0012ed0700000178000100780079
:10557c008201780000017800030078008200780036
:10558c000000be00ccec07003061880090838000e6
:10559c00a1838000c8ec0700706188001e003700f2
:1055ac0090838000a1838000c3ec070030618800e9
:1055bc0010ca800021ca800001f0a2000200200065
:1055cc00031c2400beee07000001780001007800e7
:1055dc00820278000002780090838000a183800012
:1055ec000001be0005007800840078000000be00b9
:1055fc00efec0700000178000100780082017800d0
:10560c000001780003007800820078000000be00e2
:10561c00a9ec07007061880054ca800065ca80003c
:10562c0050cc800061cc80000001be000400be00a4
:10563c007cec07000000e00014003d0058cc80001a
:10564c0069cc800054ca800065ca800070838000d9
:10565c00818380000001be000400be00d4ec070072
:10566c0000017800010078008202780000027800c6
:10567c000801be0005007800840078000000be0020
:10568c006e01070050ca880061ca880054ca8000a5
:10569c0065ca800050cc800061cc80000001be0047
:1056ac000400be0061ec07000000e00014003400b0
:1056bc0058cc800069cc800054ca800065ca800038
:1056cc0070838000818380000001be000400be0056
:1056dc00aeec07000001780001007800820278002f
:1056ec00000278000801be000500780084007800f4
