:020000040000fa
:080000000002040000000000f2
:020000040000fa
:0400080012040000de
:020000040000fa
:04000c0012040000da
:020000040000fa
:0400100012040000d6
:020000040000fa
:0400140012040000d2
:020000040000fa
:0400180012040000ce
:020000040000fa
:04001c0012040000ca
:020000040000fa
:0400200012040000c6
:020000040000fa
:0400240012040000c2
:020000040000fa
:0400280012040000be
:020000040000fa
:04002c0012040000ba
:020000040000fa
:0400300012040000b6
:020000040000fa
:0400340004030000c1
:020000040000fa
:0400380012040000ae
:020000040000fa
:04003c0012040000aa
:020000040000fa
:0400400012040000a6
:020000040000fa
:0400440012040000a2
:020000040000fa
:040048006e03000043
:020000040000fa
:04004c00120400009a
:020000040000fa
:040050001204000096
:020000040000fa
:04005400ca030000db
:020000040000fa
:040058009e03000003
:020000040000fa
:04005c007803000025
:020000040000fa
:040060001204000086
:020000040000fa
:040064001204000082
:020000040000fa
:04006800120400007e
:020000040000fa
:04006c00120400007a
:020000040000fa
:040070001204000076
:020000040000fa
:040074001204000072
:020000040000fa
:04007800120400006e
:020000040000fa
:04007c00120400006a
:020000040000fa
:040080001204000066
:020000040000fa
:040084001204000062
:020000040000fa
:04008800120400005e
:020000040000fa
:04008c00120400005a
:020000040000fa
:040090001204000056
:020000040000fa
:040094004203000023
:020000040000fa
:04009800120400004e
:020000040000fa
:04009c00120400004a
:020000040000fa
:0400a0001204000046
:020000040000fa
:0400a4001204000042
:020000040000fa
:0400a800120400003e
:020000040000fa
:0400ac00120400003a
:020000040000fa
:0400b0001204000036
:020000040000fa
:0400b4001204000032
:020000040000fa
:0400b800120400002e
:020000040000fa
:0400bc00120400002a
:020000040000fa
:0400c0001204000026
:020000040000fa
:0400c4001204000022
:020000040000fa
:0400c800120400001e
:020000040000fa
:0400cc00120400001a
:020000040000fa
:0400d0001204000016
:020000040000fa
:0400d4001204000012
:020000040000fa
:0400d800120400000e
:020000040000fa
:0400dc00120400000a
:020000040000fa
:0400e0001204000006
:020000040000fa
:0400e4001204000002
:020000040000fa
:0400e80012040000fe
:020000040000fa
:0400ec0012040000fa
:020000040000fa
:0400f00012040000f6
:020000040000fa
:0400f40012040000f2
:020000040000fa
:0400f80012040000ee
:020000040000fa
:0400fc0012040000ea
:020000040000fa
:0401000012040000e5
:020000040000fa
:0401040012040000e1
:020000040000fa
:0401080012040000dd
:020000040000fa
:04010c0012040000d9
:020000040000fa
:0401100012040000d5
:020000040000fa
:0401140012040000d1
:020000040000fa
:0401180012040000cd
:020000040000fa
:04011c0012040000c9
:020000040000fa
:0401200012040000c5
:020000040000fa
:0401240012040000c1
:020000040000fa
:0401280012040000bd
:020000040000fa
:04012c0012040000b9
:020000040000fa
:0401300012040000b5
:020000040000fa
:0401340012040000b1
:020000040000fa
:0401380012040000ad
:020000040000fa
:04013c0012040000a9
:020000040000fa
:0401400012040000a5
:020000040000fa
:0401440012040000a1
:020000040000fa
:04014800120400009d
:020000040000fa
:04014c001204000099
:020000040000fa
:040150001204000095
:020000040000fa
:040154001204000091
:020000040000fa
:04015800120400008d
:020000040000fa
:04015c001204000089
:020000040000fa
:040160001204000085
:020000040000fa
:040164001204000081
:020000040000fa
:04016800120400007d
:020000040000fa
:04016c001204000079
:020000040000fa
:040170001204000075
:020000040000fa
:040174001204000071
:020000040000fa
:04017800120400006d
:020000040000fa
:04017c001204000069
:020000040000fa
:040180001204000065
:020000040000fa
:040184001204000061
:020000040000fa
:04018800120400005d
:020000040000fa
:04018c001204000059
:020000040000fa
:040190001204000055
:020000040000fa
:040194001204000051
:020000040000fa
:04019800120400004d
:020000040000fa
:04019c001204000049
:020000040000fa
:0401a0001204000045
:020000040000fa
:0401a4001204000041
:020000040000fa
:0401a800120400003d
:020000040000fa
:0401ac001204000039
:020000040000fa
:0401b0001204000035
:020000040000fa
:0401b4001204000031
:020000040000fa
:0401b800120400002d
:020000040000fa
:0401bc001204000029
:020000040000fa
:0401c0001204000025
:020000040000fa
:0401c4001204000021
:020000040000fa
:0401c800120400001d
:020000040000fa
:0401cc001204000019
:020000040000fa
:0401d0001204000015
:020000040000fa
:0401d4001204000011
:020000040000fa
:0401d800120400000d
:020000040000fa
:0401dc001204000009
:020000040000fa
:0401e0001204000005
:020000040000fa
:0401e4001204000001
:020000040000fa
:0401e80012040000fd
:020000040000fa
:0401ec0012040000f9
:020000040000fa
:0401f00012040000f5
:020000040000fa
:0401f40012040000f1
:020000040000fa
:0401f80012040000ed
:020000040000fa
:0401fc0012040000e9
:020000040000fa
:0402000012040000e4
:020000040000fa
:0402040012040000e0
:020000040000fa
:0402080012040000dc
:020000040000fa
:04020c0012040000d8
:020000040000fa
:0402100012040000d4
:020000040000fa
:0402140012040000d0
:020000040000fa
:0402180012040000cc
:020000040000fa
:04021c0012040000c8
:020000040000fa
:0402200012040000c4
:020000040000fa
:0402240012040000c0
:020000040000fa
:0402280012040000bc
:020000040000fa
:04022c0012040000b8
:020000040000fa
:0402300012040000b4
:020000040000fa
:0402340012040000b0
:020000040000fa
:0402380012040000ac
:020000040000fa
:04023c0012040000a8
:020000040000fa
:0402400012040000a4
:020000040000fa
:0402440012040000a0
:020000040000fa
:04024800120400009c
:020000040000fa
:04024c001204000098
:020000040000fa
:040250001204000094
:020000040000fa
:040254001204000090
:020000040000fa
:04025800120400008c
:020000040000fa
:04025c001204000088
:020000040000fa
:040260001204000084
:020000040000fa
:040264001204000080
:020000040000fa
:10040000af9e21000eff27000e01880000000000b3
:10041000000020000000e000020032000001200087
:100420002002880018000700000107000000e0001b
:1004300003003a00e0f8220001002000020037002b
:100440000000200001002000810f70000200320037
:100450000001eb0012000700100007000000200060
:100460000000e00002003200000002000000000076
:100470009e040700b611020000000000ac04070053
:100480000040da000000fe00200020000000e00034
:1004900002003200100020009001880000000600d9
:1004a000a1028800800478000000eb0020003700e3
:1004b0000a054100e284440054a0b4009905ba0042
:1004c000e284440054a0b4009906ba00e2844400d7
:1004d00054a0b4000006eb00476fde00fd07b20039
:1004e000ae018800636ce10003003a000ad8010005
:1004f0000000eb000e003700606ce10008003a00dd
:10050000004deb000a05e800020039003420ec0041
:100510000af0a0008b05e900f9ff3e000400370057
:100520006168e100010032000086eb000b0007006b
:1005300019c7ba000e04e0001905ba0003003a001a
:100540000a00e000daff3a0000000600fe07b200f1
:10055000ae0288008a047800f5ff37000cd0a300b3
:10056000e20f4d001c003b0089027800354dba00b7
:100570000a05e800020039003420ec000af0a0006f
:100580008b05e9000f003200254dba000a05e8008e
:10059000020039003420ec000af0a0008b05e900cd
:1005a000080032000c00e0000600320015cdba0051
:1005b0000a05e800020039003420ec000af0a0002f
:1005c0008b05e9008984e80054a0b4000b00e0002a
:1005d000e2ff3a00000006009902ba00055d7800cb
:1005e0008b05e900f7ff3200c82ade00055d7800c0
:1005f0008b05e900f3ff32000c00e000f1ff320050
:1006000019ddba00eeff37003600f800809fbe000b
:10061000829fbe00849fbe00869fbe000000fa003d
:100620000068a90036120700441507008b10070068
:100630002e0c0700f08180008000e800f181880026
:10064000e101200001017800110009000200d8003a
:100650008000fd000000e00002003a00bc1107002d
:10066000580c0700000000000080fa004f03be0095
:100670004f02be004f01be004f00be003600f90021
:10068000004006003600f800809fbe00829fbe003a
:10069000849fbe00869fbe000000fa000368a90088
:1006a000d0818000e181800061004000e08048004e
:1006b000d0818800e1818800f80807000000000070
:1006c0000080fa004f03be004f02be004f01be0083
:1006d0004f00be003600f900004006000000fa009e
:1006e0000108a900000000000080fa000040060098
:1006f000801f78000000fa0001a8a90000188000ff
:10070000b0ce880010188000c0ce8800201880006d
:10071000d0ce880030188000e0ce880040188000dd
:10072000f0ce880010c0b3005df0b70000000000fc
:100730000080fa004f007800004006003600f80004
:10074000809fbe00829fbe00849fbe00869fbe0029
:100750000000fa000188a9006182800050828000b8
:10076000808f5000020032008f1407000100370014
:100770004e70ef00000000000080fa004f03be0042
:100780004f02be004f01be004f00be003600f90010
:10079000004006003600f800809fbe00829fbe0029
:1007a000849fbe00869fbe000000fa000168a90079
:1007b000101180004200de0061406000e14f5000f7
:1007c00001003a002242a900101180000000d1006f
:1007d00061406000e14f500005003a002222a9006c
:1007e00003003700301180000040780081150700b9
:1007f000101180000040780061406000e14f50001f
:10080000f8ff3200000000000080fa004f03be0035
:100810004f02be004f01be004f00be003600f9007f
:10082000004006000040da000000fe000000050065
:1008300014002000c7033700f4ff2f00c503370062
:100840000001be003f0007000470a70003f0a100f4
:100850006509b100160032000d0035006828e1007e
:1008600006003500f0ff2f00f1ff27000300e00035
:1008700013003b00010028000000050000004000bc
:10088000818048008502e900fcff3a00080037003b
:10089000f88f420002003c008000eb0000000500e1
:1008a0008100d1000080d3008502e800fcff3a00ff
:1008b0000300e00002003b0060001000e080180030
:1008c000000006000001be001e0007000470a70023
:1008d00003f0a10003f8a30013003a006509b1007a
:1008e00010003200090035006928e10002003500df
:1008f0000100280000000500000040008180480041
:100900008502e900fcff3a0000000600f88f420073
:10091000050035008100d1000080d3008502e80089
:10092000fcff3a00000006008000eb00000005001c
:100930004f89de0082017800a10337006011b80002
:10094000af033700c70ade00f107b200f50fb200af
:1009500008003200e1cf4200020032000170a00026
:1009600024000500810f700001003200040805001a
:1009700044000500810f700002003a0014000500d9
:100980008502e9000000400081c04800fcff3b00f8
:100990000170a0002400050007f82700078361000c
:1009a0000638e10004003a00f70720008783610061
:1009b0008703710001003a0003f0a200889fbe0087
:1009c0008a9fbe008c9fbe00470ade000480a10003
:1009d000c71ade000580a100070028000785600017
:1009e00087856100f70f20000720e1009e0032009c
:1009f0000728e1009c003200010678000400e000b6
:100a0000b4003200f7072000878060000170a0006a
:100a10000500e000c0003200f70720008781610078
:100a20000370a000050652000f003a000b50e100d1
:100a30000b0032000308e10002003a000200e1006e
:100a40007e0032000204500083845800040031000c
:100a50000001fd008101fd008402fd008a05fd000a
:100a60006044b800210037000520e10005003d008a
:100a70000001fd008101fd008402fd008a05fd00ea
:100a8000050652007a60e100050035000170a10002
:100a90004722dd00848070008a8070006300370088
:100aa0006044b800ef02660007ff2f0007066600eb
:100ab0000500e00006003400f08312008714dd001a
:100ac0000511de00071bdd00060171008519de003f
:100ad0007060e100050035000904780082047800a8
:100ae000030178008001eb00700656000b50e10016
:100af00003003a00020040008380480004003700f1
:100b000060041400e0841c00020058008380580038
:100b10000188a300060032008100d1000080d300cc
:100b20008984d3000884d3000402e800270037003a
:100b30000178a30025003a000100e0000300320024
:100b40008186cf00698656000a0037008c0020009d
:100b50000000e00004003a000900780088047800f2
:100b60000004eb00700252008086cf000d064600a4
:100b70000c06e9007060e100060035008000780096
:100b800009007800880478000004eb007006560025
:100b9000700252000c00e0000c0034008c08dd00f4
:100ba000f00316000703de00868070000c00dd00f5
:100bb000074bde00060070008c4cdd000743de00b2
:100bc000868474000c44dd000c0252006120e100b8
:100bd0002000350061016000070028008781640063
:100be000f7ff270087836400070374000300e00019
:100bf0000600320082037300040032000000e800a7
:100c0000e08048000188a3000e003a00f70f2000a2
:100c10000720e1004a003d000170a1004722dd00ed
:100c2000810072008a8070000000be004f06be0086
:100c30004f05be004f04be00000006006000b80073
:100c4000faff37008100d1000080d3000402e800e1
:100c5000eeff37000401780089017400a10107004c
:100c60008a807000f1ff3700f70107000702780063
:100c70000001fd008101fd00f301070087027800fb
:100c8000850372000778a300040032000001fd0014
:100c90008101fd0006020700e4ff370085036200c2
:100ca0000768a300080032000b50e1000300320087
:100cb000f0ff2f00f1ff2700dcff37000001fd00ef
:100cc0008101fd00d9ff37000468a300d7ff32007f
:100cd000faff3700f8ff2700888360000b003a0016
:100ce0000000e00009003a0083036400828373007f
:100cf000020032000200be00ccff37000b50e100c2
:100d0000ceff3a000200be00c8ff370014002000ea
:100d1000810064003eff3700f8ff270088836100f0
:100d200004003a000200e00002003a008c00780063
:100d3000beff3700150020008301640039ff370033
:100d400001f827000000200081007500b7ff370080
:100d5000889fbe008a9fbe008c9fbe001b002000a3
:100d60000202be000586680006002800060666002e
:100d70004709de00f20fb200820032000243e800b1
:100d800080003200c729de00f30fb2007d00320080
:100d90000343e8007b003200f107b2000170a000bd
:100da000f507b2000570a000c708dd004903de00aa
:100db000868070004700dd00c72add004923de0081
:100dc000868272004722dd000305510004035000b3
:100dd00085835800030031000000400081804800f6
:100de0000a05e9008c1f78008a9fbe0004005000ad
:100df000858058000402420085824a0000004000bd
:100e0000818048000005eb000004be006033b8009c
:100e10000406be000d48e100560031001100090033
:100e20004dccd8000c01b8000d02b80084814100ff
:100e300060824a008283530003045c0084845c0067
:100e400060055d000a00e00025003a00800578009a
:100e50000d40e1004900310088007800070078006b
:100e6000110009004d88d8000c01b8000d02b8002f
:100e70008481410060824a006003110083835b002b
:100e800004045c00e0845c000900e00021003a00fa
:100e90004f01be000300e0002b003200e3016000c0
:100ea000070673008c81710001003200640070003d
:100eb0004200de004e5edd000c007000c258de0015
:100ec00001e0a00083010700cf017800818071005c
:100ed0004f06be004f05be004f04be0000000600d6
:100ee0008c8343000d044c00e0844c0060054d00f1
:100ef0000000e9000a00e000d4ff32008c834300c8
:100f00000d044c00e0844c0060054d000000e90039
:100f1000ceff37000c0343008d834b0060044c0070
:100f2000e0844c000000e9000900e000d8ff320036
:100f30000c0343008d834b0060044c00e0844c00a4
:100f40000000e900d2ff37004200de004e5edd0007
:100f50000c007000c258de0001e0a000cf01780054
:100f60000300e000daff320060001000e0801800ab
:100f7000d7ff3700f0ff2f00aaff3700f0ff2f0048
:100f8000b9ff37000404be002f0107008706780070
:100f90000004fd008104fd002b01070007836600ab
:100fa0000678a300030032000960a7000800be0015
:100fb0002c0037000d78a300020032000800be00ac
:100fc000280037000778a30026003a0001f0a100ae
:100fd00009f0a1000668a30003003200f1ff27001a
:100fe000f0ff2f00baff37000d68a30003003200a6
:100ff0000800be008c807000b5ff37000768a300b2
:1010000007003a000648a30003003200f1ff270062
:10101000f0ff2f00aeff37000d48a30003003200a1
:101020006000b8008c807000a9ff37000748a3005b
:101030000400320001f82700000020008c807000be
:10104000a3ff3700760107000004fd008104fd00c6
:1010500002057800720107000802be008a017800cc
:1010600059ff37000160a00012022000f2828800c0
:1010700097ff37000100e000120032000500e00099
:1010800010003200889fbe008a9fbe008c9fbe0069
:101090000006eb0001f8a30003003200600010001e
:1010a000e08018000cf0a00005f8a3000300320057
:1010b00060021200e0821a000cf0a2008005eb0032
:1010c00041ff37006000b80002000500038368009c
:1010d0000700280007036300470ade000480a10020
:1010e000c71ade000580a100f70f20000720e100ed
:1010f000420032000728e10040003200889fbe0015
:101100008a9fbe008c1f7800f107b200f307b2007f
:101110000400e000640032000170a0000500e0005f
:10112000680032000370a00085054200eb07b100a3
:101130000204b8000302b8008484440060854a00b9
:10114000020ab800848444000a854a00030ab800f1
:1011500004054500040033000804d0008984d2004f
:101160000a85d2008b05e9006158e1003d00350099
:10117000021020000901610003082000898161003c
:10118000f70720008783640008867300c84cde00e0
:10119000c853dd00878474004855de000300e0007a
:1011a0000600320082037600040032008904e80061
:1011b00060054d000a88a3000c003a00f70f2000dc
:1011c0000758e10044003d000a70a100c75ddd0042
:1011d0000a8575008a007300090078004f067800c0
:1011e0004f05be004f04be00000006000a05d100f6
:1011f0008984d3008b05e800f0ff3700881f780052
:101200000604780090000700070278000001fd0046
:101210008101fd008c0007008702780085037200c1
:101220000778a300050032000001fd008101fd00e8
:101230009f0007004f04780000000600850372003d
:101240000748a30003003200f0ff2f00f1ff270042
:10125000f8ff37000000200001f8270088807000a8
:10126000f4ff3700880178004848dd008081710074
:101270004848de00c850dd0001007000c850de00a4
:10128000060478000b0178001600070088807000c3
:10129000d2ff37000500e0000500320017002000f3
:1012a0003a0007009dff370081037000f9ff3a0004
:1012b000860078004f0678004f05be004f04be0040
:1012c0000000050083037100f9ff320027002000b1
:1012d0002e00070094ff370001f827008680700079
:1012e000f4ff37000100e000260032006101110028
:1012f0007810e10023003c006022b8007010e1008b
:101300000400350080027800010078008000eb00c6
:10131000700151000200e000090034007003110068
:10132000062add00822ade008603dd008782720045
:101330000200de00860bdd00070070008208de0080
:1013400084817100f4ff27000482620084817100af
:1013500004002800848262006102600005f0a6009b
:101360000000060004827100070032000000e8005f
:10137000e0804800000006000002be006000b800e7
:10138000efff37006000b80000000600889fbe0035
:101390000004eb006138e10016003a000100e000b3
:1013a00008003a00c800de004800dd008800200088
:1013b0000100e00003003a00c800de004800dd0044
:1013c000680444008184cf00e9845400060034009e
:1013d0008908dd00f08314008703de008780700039
:1013e0000900dd0009044400610214004f04be003e
:1013f000000006000300e00008003a00c811de000b
:101400004811dd00880020000300e00003003a00de
:10141000c811de004811dd00680444008384cf0059
:10142000e9845400060034008919dd00f0831400bb
:101430008713de00878171000911dd000904440073
:10144000e1021400e9ff37002700200001f0a700a7
:1014500017002000470bde00f60fb2000400320038
:101460000643e8000a0032004702b300000006000d
:1014700001037800f607b2000603700002003a008c
:101480000703b300000006008702b3000000060057
:1014900001037800f607b200060370000200320074
:1014a0000770a000000006000760a0000000060012
:1014b0000478a300040032000578a3000300320082
:1014c0000168a30001003a000200be000160a00014
:1014d0000000060081017000270032008002eb004e
:1014e00001f8a3000300320060001000e080180043
:1014f00015002000f4072000020242002000340002
:10150000f703200087036000060420000003630047
:1015100002082000000161004700de00c909dd006b
:1015200000807100c708de000600e00008003200fd
:1015300087037100060032001000b0000180b00087
:101540000188a30002003200c108de000402e800a6
:10155000f107b200f30f20000320e10003003d007b
:101560004722dd00810072002900370001f82700c2
:101570000000eb00260037006000b8000000060005
:10158000680212007f20e100020034006000b80011
:101590001f0037006011b8007020e1000400350022
:1015a00080017800010078008000eb00700252009a
:1015b0000400e00009003400f00312000719dd0008
:1015c0008419de000703dd00868171000400de005f
:1015d000070bdd00060070008408de00f7ff27001f
:1015e0008383630087037100060028000303630000
:1015f000070032000700e00003003a0061016000cc
:1016000002817300020032001000b0000180b000bf
:101610000500a6000000060001f0a0000000060082
:101620004f0ade004709de00f107b200f20fb200f8
:101630000b003200f207b1000170a000c708dd0006
:10164000c901de00838070004700dd000400a600b1
:101650000000060060001000e08018000000060096
:10166000810f700001003a00000006008182cf0067
:101670000500e00010003e008082cf00ee824200b4
:101680007028e1000400390007003e008000780067
:101690000000eb000e003700708312008600de00b1
:1016a0000500dd000a003700708352008600dd006f
:1016b0000000eb0006003700e28252008508dd00e2
:1016c000708312000603de00868070000500dd00d6
:1016d0007507b0000501ea000400a600000006003e
:1016e00060001000e080180000000600889fbe0027
:1016f0008a9fbe005400f8000a0020000a00e000a3
:10170000070032000900200008002000a90288001c
:10171000b805ba000b0001000a85e900fcff3c0097
:101720005400f9004f05be004f04be000000060043
:10173000889fbe008a9fbe005400f8000a00200067
:101740000a00e000f6ff3200090020000800200037
:10175000eeff3700889fbe008a9fbe00841f78007e
:101760007c0007004f00780011003300f0ff2f00cd
:10177000838f6c0006003b00040565000a00a7008b
:101780000800370009f0a60010002000080037000c
:10179000820f5400838f5c0003003900100020008a
:1017a00001003e000000200009f0a7000000ea0050
:1017b0004f05be004f04be000000e0000000060020
:1017c000881f7800030478000300e00007003d0054
:1017d00060001000e080180060011900e08119002d
:1017e00002003b0001f02d00030037000400070059
:1017f00008f0a70001f0a0004f04780000000600e8
:10180000889fbe008a9fbe000082700004027100a3
:1018100004827100260032000004be000200be00f7
:101820006011b8006b092000950220000182cf00f2
:101830000a0039000541b1000082cf0007003900dd
:101840000541b1000982cf00040039000541b10013
:101850000882cf00010039000541b1000542520065
:10186000120032000a003b008281710061016400b5
:101870008100d1000080d3008984d3000884d30084
:101880008b05e8000442e800f7ff3a000700370044
:101890000804440089844c0000004800818048000e
:1018a0008b05e9000442e900f9ff3a000300070054
:1018b0004f05be004f04be0000000600810020005e
:1018c000618055000b003d000b00200061fe2f00e1
:1018d0000100e1001d00340082817100610164009b
:1018e0008904d1000884d3000000e800faff3a0020
:1018f00071002000610064000300700002006000bd
:101900000900320061044400e0844c000988a5000d
:10191000050032008b05e8006808e10002003a008b
:101920008904d1000884d300f20f20000258e1009e
:1019300005003d00c75ddd00f907b2008980750034
:1019400008007800000006000bf827008b007800e4
:10195000000005000004be00fafb07000003be0003
:101960000405be000200be00f6fb0700844f7500b0
:10197000000006000400fa000001780081017800f0
:1019800003f0a100a4fd200095f42300840f510072
:10199000858f59000e003e00f4ff2f00f5972300bd
:1019a000840f5100858f59003a003e00020020004c
:1019b00003b8270001fc0700e0bf9f00f1bf9f00b4
:1019c0000000200001f823000080fa00000006005b
:1019d0004f0ade0005002000163d2500b707240051
:1019e000860f5100878f59001b003e0036be2c0029
:1019f00067012400860f5100878f59000a003600c6
:101a0000b2fd2000930424000400e0000400320032
:101a1000eafb07005a01070001f0a200eaff3700c5
:101a2000ddfb0700fbff37000400e000050032008b
:101a3000b2fd200093fc2300e0fb0700db01070060
:101a4000e1ff37000001be00b0fd200091fc230043
:101a5000d1fb0700f9ff3700561d2300270e240095
:101a6000860f5100878f590014003e00f6dd2e00ce
:101a7000f70a2400860f5100878f590009003600ad
:101a8000b2fd2000930c24000400e00003003200ab
:101a9000cafb07003a010700cbff3700befb070077
:101aa000fcff37000400e0000100320001f0a2005a
:101ab00042be2c0063092400e5ff3700f4ff2f002d
:101ac000f5f72700840f5100858f59000300360079
:101ad0000001be00b0fb0700bbff37006481570068
:101ae0005b010700630160006fb89700ffb89700c3
:101af000e10f510005003200e20f5100c5ff320036
:101b00000200e000cdff3a00e2ff370001f0a20042
:101b1000caff37000400fa00889fbe008a9fbe00fb
:101b20000203410083834900e00f5300e08f5b0014
:101b300010003200020278008302780005f0a10054
:101b40000800200009f82700880f5200898f5a00ea
:101b500008003e00a0bf9f00b1bf9f00470dde0000
:101b60000b002000f40f20000a056200840f5500ce
:101b700007003a0055fd07000001be0074fc070095
:101b80004f05be004f04be000080fa0000000600b2
:101b90000002400081824800840f5300858f5b0063
:101ba00006003900840f5300858f5b00f4ff3a0074
:101bb0006011b80045fd0700f1ff37000a00e000a2
:101bc0004c003a002fbb9700bfbb9700493add009d
:101bd000c732de00850272004932dd00e00f52009c
:101be000e08f5a003f003d00610215002fbb9700b7
:101bf000bfbb9700040478000804e9000300330029
:101c00000603430087834b00fbff37000602be003c
:101c1000471bde00070020000683fb000600e000f3
:101c20003d003a00491cdd00c714de008904740041
:101c30004914dd00e00f5400e08f5c0032003d00ed
:101c4000e10313000204be008703e9000300330030
:101c50000804440089844c00fbff3700080152004f
:101c600089815a00860f55002f003c00e00f51007b
:101c7000e08f590004003500e00f5100e08f59005b
:101c8000cbff32000202be004728de000100200028
:101c9000e00f5000e08f58002e0032000a00e000f4
:101ca000300034000000200001f82f000402400042
:101cb000858248006150b900c700dd0000002000a7
:101cc00004007000858070006022b80002002800c7
:101cd000bfb997008302610000007200818072002a
:101ce000a7ff37000a05e9000402420085824a0086
:101cf000baff37002fba9700bfba9700f507b200b6
:101d00000570a000c2ff37000603e9000804440084
:101d100089844c00c7ff37000204be00f907b200f7
:101d20000970a000cdff3700e00f5100e08f59008f
:101d300004003500e00f5100e08f59009cff320095
:101d40000202be000402420085824a000a05e90040
:101d5000c2ff37000402420085824a000a05e900fa
:101d6000c9ff3700610515000400be000a05e9003f
:101d7000030033008100d1000080d300fbff370057
:101d8000d1ff37000400fa00889fbe000004be00a7
:101d90008900780001f0a100a4fd200095f4230043
:101da000840f5000858f58001e003e00f4ff2f0066
:101db000f5972300840f5000858f580016003e00d1
:101dc0006000b80003f8270089806100e00f500030
:101dd000e08f58000b003a0002002000033820007a
:101de0000800be00b9fc07000001be00c2bf9f0092
:101df000d3bf9f000800be004f04be000080fa0061
:101e0000000006000200200003b827000800be0002
:101e1000eafa0700f4ff37000800be00e3000700fd
:101e2000180037004f49de0003002000143d250054
:101e3000b5072400840f5000858f58001d003e0018
:101e400034be2c0065012400840f5000858f58009b
:101e50000e003e000800be000200e000b2fd2000bf
:101e600093fc230005003200d4fa07004400070069
:101e70000004be0009f0a200deff3700c6fa07002a
:101e80003f0007000004be00daff37000800be0074
:101e90000200e000b2fd20009304240003003200a1
:101ea000c6fa070001f0a200dcff3700bafa07000b
:101eb000fcff3700541d2300250e2400840f500022
:101ec000858f580017003e00f4dd2e00f50a24002f
:101ed000840f5000858f580009003e000800be00a6
:101ee0000200e00042be2c00630924000200320020
:101ef000b2fa0700e2ff3700a7fa0700dbff37005e
:101f00000800be000200e000b2fd2000930c240097
:101f100002003200a9fa0700c0ff37009efa07004e
:101f2000beff3700f2ff2f00f3f72700820f5000ab
:101f3000838f5800050036000801be000800be006f
:101f400095fa07000004be00aaff37006881570019
:101f50000800be003e000700630160004fb8970014
:101f6000dfb89700e10f5100c5ff3200e20f5100ca
:101f7000ccff32000200e000bcff3a00a7ff3700b0
:101f80000400fa00889fbe008a9fbe008c9fbe009e
:101f90000001be004dfc07000004be000001be00b1
:101fa0004afc07000005be000200200003f02b00e1
:101fb0000800be0045fc07000200200003f82300d3
:101fc0007efa07000006be00f2a92a00a3d2230071
:101fd0000a00be003dfc07000001be000c00be0070
:101fe00076fa07000002be0072a12900c37c23001c
:101ff0000800be0084bf9f0095bf9f0033fc070010
:10200000f243200063ab230063fa07000006be0022
:102010000a01be000800be002cfc07000001be0043
:102020000c00be0029fc07000001be000fba97009b
:102030009fba97000400be0060fa07004f06be007a
:102040004f05be004f04be000080fa0000000600ed
:102050000400fa00889fbe008a9fbe008c9fbe00cd
:1020600000067800810478008206780001f0a10063
:10207000a2fd200093dc2400820f5000838f5800c3
:1020800023003e0032982f0023f2230089007800bd
:102090000efc07000200200003b4240047fa0700ea
:1020a0000200200003b424003bfa07000005be0034
:1020b000e3f9070000047800a2fd200093fc230050
:1020c0000a00be0001fc07000001be000c00780001
:1020d0008900780030fa07000002be00325a28005a
:1020e000832823000a00be0084bf9f0095bf9f0085
:1020f000f6fb07000001be000fba97009fba9700d9
:102100000400be0024fa0700808ebe000b003700da
:10211000f2ff2f00f3f72700820f5000838f580043
:102120000c003600000178008901780089007800f1
:1021300019fa0700808ebe000004eb00080078004a
:102140004f06be004f05be004f04be000080fa00df
:1021500000000600890078004c0007000005be0062
:1021600032982f0023f22300d8fb07000200200042
:1021700003f0230011fa0700530007000004780061
:102180008ffd070032982f0023f22300f0fa07009a
:102190000001be000a00be00fff907006000b800a1
:1021a000a0069800b1069800d7ff37000400fa0097
:1021b000889fbe008a9fbe008c9fbe000006be00a6
:1021c0000001be00c1fb07000004be000001be000c
:1021d0000c00be00bdfb07000005be000801be00ec
:1021e0000800be00b9fb07000a01be00b7fb0700ec
:1021f0000002be00c2c32600636323000800be00c5
:1022000084bf9f0095bf9f00b0fb0700f27c2000b9
:1022100003952300e0f907000001be000fba970004
:102220009fba97000400be00a8fb07000002be0092
:102230004288280083c023000800be0084bf9f009e
:1022400095bf9f00a1fb0700b2aa2a00a3e22300ca
:10225000d1f907000a01be009cfb07000c01be007b
:10226000d6f907000001be000fba97009fba970089
:102270000400be00d1f907004f06be004f05be00a6
:102280004f04be000080fa00000006000400fa00bf
:102290006011b800e2bf9f00f3bf9f006fbb9700c3
:1022a000ffbb97000002be00f3ff2700838163009d
:1022b000f2ff2f00020062008280620002016300d0
:1022c0000080fa00000006000003be009df9070030
:1022d0006011b8000470a70007f0a1006509b10003
:1022e0001b00320012003500860220000628e100a3
:1022f00008003500f3ff2700f2ff2f006110b9003e
:102300000700e00018003b00030028006000b80050
:1023100002000500000040008180480002014900e1
:10232000838149008502e900faff3a00080037007e
:10233000f88f420002003c008000eb000000050026
:102340008100d1000080d3008502e800fcff3a0044
:102350000700e00004003b0060001000e08018006f
:0c23600060011900e08119000000060077
:020000040000fa
:10236c000e00fa00040e0700510e0700b30d070013
:10237c00a10a07008807070093070700260f07002c
:10238c009d0707002009070029090700854ea800b2
:10239c006000b800809fbe00000020008134240043
:1023ac00809fbe000000200001122400809fbe0010
:1023bc006033b80004002000c53024000200200067
:1023cc00030e2400e09621003c030700ec87570025
:1023dc006000b800809fbe00000020008134240003
:1023ec00809fbe000000200001122400809fbe00d0
:1023fc006033b80004002000c53024000200200027
:10240c00030e2400e09921002c030700ec875700f1
:10241c000000eb00000f780005003700860e070067
:10242c00204798002e409000f60507001e0fe8008c
:10243c009b0e07009e007800808f5000f7ff350040
:10244c00c40d07000004e000f1ff3200c50d0700c9
:10245c00bc0d0700200798002e009000100078009b
:10246c008000eb0032f907003233230033052400df
:10247c0013fb07000001780001007800820278004d
:10248c0000027800020020000358240005007800a8
:10249c00840078000000be002afa0700300798007c
:1024ac00410798003e019000ce01900000002000f2
:1024bc008120240023fa0700000178000100780035
:1024cc00820278000002780002002000030a240037
:1024dc0005007800840078000000be002bf907008e
:1024ec0080017800010178000300780082007800f8
:1024fc000000be0070c9880081c9880064004700d4
:10250c001080e800100078008000eb0008f907004c
:10251c003233230033052400e9fa07000001780068
:10252c00010078008202780000027800020020008e
:10253c000358240005007800840078000000be00d9
:10254c0000fa070030079800410798003e01900000
:10255c00ce0190000000200081202400f9f9070032
:10256c0000017800010078008202780000027800f7
:10257c0002002000030a2400050078008400780083
:10258c000000be0001f9070080017800010178000d
:10259c0003007800820078000000be0090c988001b
:1025ac00a1c9880064004700410020001080400051
:1025bc00100078008000eb00ddf8070032332300b8
:1025cc0033052400befa07000001780001007800f2
:1025dc0082027800000278000200200003582400d8
:1025ec0005007800840078000000be00d5f90700d3
:1025fc0030079800410798003e019000ce019000f2
:10260c000000200081202400cef907000001780092
:10261c00010078008202780000027800020020009d
:10262c00030a240005007800840078000000be0036
:10263c00d6f80700800178000101780003007800cb
:10264c00820078000000be0050c9880061c9880073
:10265c006400470062002000100041001000780068
:10266c008000eb00b2f8070032332300330524005e
:10267c0093fa0700000178000100780082027800cc
:10268c0000027800020020000358240005007800a6
:10269c00840078000000be00aaf9070030079800fb
:1026ac00410798003e019000ce01900000002000f0
:1026bc0081202400a3f907000001780001007800b4
:1026cc00820278000002780002002000030a240035
:1026dc0005007800840078000000be00abf807000d
:1026ec0080017800010178000300780082007800f6
:1026fc000000be0030c9880041c988006400470052
:10270c008100200010804000100078008000eb0059
:10271c0087f80700323323003305240068fa0700da
:10272c000001780001007800820278000002780035
:10273c000200200003582400050078008400780073
:10274c000000be007ff90700300798004107980091
:10275c003e019000ce01900000002000812024005a
:10276c0078f90700000178000100780082027800f7
:10277c000002780002002000030a24000500780003
:10278c00840078000000be0080f80700800178000b
:10279c000101780003007800820078000000be0080
:1027ac0010c9880021c98800b08180008000e80031
:1027bc00b18188002103200001017800110009007b
:1027cc000200d8008000fd000000e00019003a0073
:1027dc0090c98000a1c9800037f8070080407800bc
:1027ec00a00020000177780050c9800061c98000ea
:1027fc0031f8070080407800a00020000000e800bd
:10280c000177780030c9800041c980002af80700a0
:10281c0080407800a00020000080e800017778005c
:10282c006a004700000178003100200000032000fe
:10283c00a304070070c9800081c980000200200039
:10284c00031f2400f7f707000000e00005003d001f
:10285c0084cea800908180000040a0009081880068
:10286c000400370084cea900908180006f006000c6
:10287c009081880090c98000a1c9800002002000ce
:10288c0003202400e7f707000000e00005003d00ee
:10289c0084aea800908180000030a0009081880058
:1028ac000400370084aea90090818000770060009e
:1028bc009081880050c9800061c98000020020000e
:1028cc0003222400d7f707000000e00005003d00bc
:1028dc00848ea800908180000020a0009081880048
:1028ec0004003700848ea900908180007b0060007a
:1028fc009081880030c9800041c98000020020000e
:10290c0003202400c7f707000000e00005003d008d
:10291c00856ea800908180000010a0009081880036
:10292c0004003700856ea900908180007d00600056
:10293c009081880010c9800021c98000020020000d
:10294c00031f2400b7f707000000e00005003d005e
:10295c00754ea800908180000000a0009081880036
:10296c0004003700754ea900908180007e00600045
:10297c009081880050c9800061c98000020020004d
:10298c00c3202400a9f707000000e0001e0034005b
:10299c0090c98000a1c9800002002000031a240005
:1029ac00a2f707000000e0001700340030c98000d7
:1029bc0041c9800002002000031a24009bf7070085
:1029cc000000e0001000340010c9800021c9800014
:1029dc0002002000031a240094f707000000e00016
:1029ec000900340070c9800081c9800002002000f9
:1029fc00031a24008df707000000e00002003400e9
:102a0c00100120009081880081fe37000600fa003a
:102a1c0038d0bf00004f7800d0818000e181800069
:102a2c004808de00010020000040780010479800a4
:102a3c00d0818000e18180004008de000100200090
:102a4c000040780020479800d0818000e181800010
:102a5c004809dd004800de0000007100c808de00f7
:102a6c000040780030479800d0818000004078000a
:102a7c00404798000e01780051002000000520000e
:102a8c000f040700000000000080fa0000000600a0
:102a9c000000fa0038d0bf000080fb006100b900d4
:102aac000001be004001200001002000800f5100f9
:102abc00818f590077003e00020601001400370098
:102acc001e003700270037002e0037003200370079
:102adc00390037003d00370044003700480037000c
:102aec0050003700540037005c0037006900370095
:102afc006800370067003700660037006500370054
:102b0c00640037006300370062003700580037005c
:102b1c003a30ef003c30ef006011b8006000b800b4
:102b2c008e010700608080000000e0005b00320036
:102b3c0010c0b30038f0b70058003700d2818000c5
:102b4c00e3818000803e200001002000800f5100b6
:102b5c00818f59005300360020c0b30038f0b70005
:102b6c0050003700a9ff07006011b80000002000da
:102b7c0001f823007901070030c0b30038f0b7002a
:102b8c0053003700608080000000e00047003200f6
:102b9c0052000700450037009cff070052592200e5
:102bac00030324006000b8006c01070050c0b300a0
:102bbc0038f0b70046003700608080000000e0006d
:102bcc003c003200450007003a0037008fff070039
:102bdc006011b800a099290091e923005f0107005a
:102bec0070c0b30038f0b700390037006080800047
:102bfc000000e00031003200380007002f003700e1
:102c0c0082ff070062cc2d00a3062c00d0cc2c0038
:102c1c00c1ec23005101070090c0b30038f0b7009d
:102c2c002b003700608080000000e000250032009f
:102c3c002a0007002300370074ff070062cc2d0028
:102c4c00a3062400d0cc2c00c1ec2b0043010700c0
:102c5c00b0c0b30038f0b7001d00370060808000b2
:102c6c000000e000190032001c00070017003700bc
:102c7c0066ff0700c29f2c0023092c0000002000d7
:102c8c0001f02b0035010700b0c0b30038f0b700dd
:102c9c000f0037003870ef000d0037000000000007
:102cac000b00370000000000090037000000000096
:102cbc00070037000000000005003700000000008e
:102ccc000300370000000000010037000000000086
:102cdc00000000000080fa00000006000200fa006c
:102cec000040eb00004f780090818000e10f500015
:102cfc0003003a0050c0b300004f7800b900370011
:102d0c0090818000e20f500003003a0050c0b300e5
:102d1c00004f7800b300370090818000e40f500022
:102d2c0003003a0030c0b300004f7800ad0037000c
:102d3c0090818000e80f500003003a0010c0b300ef
:102d4c00004f7800a700370090818000f00f5000f2
:102d5c0003003a0030c0b300004f7800a1003700e8
:102d6c0090818000f10f500003003a0080c0b30046
:102d7c00004f78009b00370090818000fb0f5000c3
:102d8c0003003a0030c0b300004f780095003700c4
:102d9c0090818000f80f500003003a0030c0b3005f
:102dac00004f78008f00370090818000fc0f50009e
:102dbc0003003a0030c0b300004f780089003700a0
:102dcc0090818000fe0f500003003a0030c0b30029
:102ddc00004f78008300370090818000e30f500093
:102dec0003003a0050c0b300004f78007d0037005c
:102dfc0090818000e70f500003003a0050c0b300f0
:102e0c00004f78007700370090818000ef0f500062
:102e1c0003003a0050c0b300004f78007100370037
:102e2c0090818000ff0f500003003a0050c0b300a7
:102e3c00004f78006b00370090818000e60f500047
:102e4c0003003a0050c0b300004f78006500370013
:102e5c0090818000ec0f500003003a0030c0b300aa
:102e6c00004f78005f00370090818000e90f500020
:102e7c0003003a0020c0b300004f7800590037001f
:102e8c0090818000f20f500003003a0010c0b30094
:102e9c00004f78005300370090818000eb0f5000fa
:102eac0003003a0050c0b300004f78004d003700cb
:102ebc0090818000ea0f500003003a0030c0b3004c
:102ecc00004f78004700370090818000f30f5000ce
:102edc0003003a0020c0b300004f780041003700d7
:102eec0090818000f90f500003003a0010c0b3002d
:102efc00004f78003b00370090818000f50f5000a8
:102f0c0003003a0030c0b300004f780035003700a2
:102f1c0090818000fd0f500003003a0030c0b300d8
:102f2c00004f78002f00370090818000f70f500081
:102f3c0003003a0010c0b300004f7800290037009e
:102f4c0090818000fa0f500003003a0050c0b3008b
:102f5c00004f78002300370090818000ee0f500066
:102f6c0003003a0050c0b300004f78001d0037003a
:102f7c0090818000ed0f500003003a0050c0b30068
:102f8c00004f78001700370090818000f60f50003a
:102f9c0003003a0030c0b300004f78001100370036
:102fac0090818000e50f500003003a0050c0b30040
:102fbc00004f78000b00370090818000f40f500018
:102fcc0003003a0030c0b300004f78000500370012
:102fdc00908180000000e00002003a000040eb000d
:102fec00004f78001e4078000004e00003003a0017
:102ffc0020c0b30039f0b700230037001e40780022
:10300c00e24f500003003a0040c0b30039f0b70063
:10301c001d0037001e407800e14f500003003a00bd
:10302c0060c0b30039f0b700170037001e407800bd
:10303c00e14f500003003a0060c0b30039f0b70014
:10304c00110037001e407800e54f500003003a0095
:10305c0080c0b30039f0b7000b0037001e40780079
:10306c00e84f500003003a0020c0b30039f0b7001d
:10307c00050037001e407800e34f500002003a0074
:10308c00a0c0b30039f0b70039d0bf000080fb00fe
:10309c0081032100914078008180fb008100e900d0
:1030ac00810f50000200320039d0bf0038f0b70059
:1030bc00000000000080fa00000006000e00fa007c
:1030cc00000f780012079800230798003407980027
:1030dc004507980056079800670798001e0078006f
:1030ec001e019000ae0190000288be001e00780008
:1030fc003eb99700ceb99700620098007300980013
:10310c001e0078003e019000ce0190002200980035
:10311c00330098001e0078001eb99700aeb99700d6
:10312c0002089800130898001e0078005e019000b9
:10313c00ee01900042009800530098001e007800a9
:10314c007eb197008eb9970022089800330898003a
:10315c00000000000080fa00000006000800fa00e1
:10316c00008fbe0022079800330798001e017800dc
:10317c009e01900072ce880083ce88002e019000b4
:10318c00be01900092ce8800a3ce88000000000003
:10319c000080fa00000006000800fa00008fbe0054
:1031ac00220798003307980042b62300f3dd230072
:1031bc002e009000be009000c1f7070000017800bf
:1031cc000100780082027800000278001e0178006d
:1031dc009e01900005007800840078000000be007d
:1031ec00f3f50700800178000101780003007800f6
:1031fc00820078000000be00d0c88800e1c88800ba
:10320c0042b62300f3dd23002e009000be00900098
:10321c00abf707000001780001007800820178000c
:10322c000001780003007800820078000001be00e5
:10323c001e0078009e009000d4f5070080017800f5
:10324c000101780003007800820078000000be00c5
:10325c0090c88800a1c88800d0c88000e1c8800050
:10326c000200200003202c0095f707008001780055
:10327c000101780003007800820078000000be0095
:10328c00f0ca880001cb880090c88000a1c88000db
:10329c00020020000320240089f707008001780039
:1032ac000101780003007800820078000000be0065
:1032bc0010cb880021cb8800f0ca800001cb8000a5
:1032cc0004002000852c240002002000832c2c00fc
:1032dc004908070010cb800021cb8000040020009f
:1032ec00852c240002002000832c2c0042080700af
:1032fc00000000000080fa00000006001200fa0036
:10330c00889fbe006007980072079800030f980012
:10331c006e0090007e0190008e09900002109800c3
:10332c00131098006e00900060029000f002900064
:10333c006e00900090009000100078000001be001c
:10334c000400be007ff60700000178000100780041
:10335c0082047800000478006e009000f000900069
:10336c006000900001f0a2006e01900092019000ac
:10337c001201780073f60700000178000100780054
:10338c0082017800000178007e0390008e0b900083
:10339c0009007800880078000002be000300780065
:1033ac00820078000001be000600be001208070073
:1033bc00008fbe006e00900090009000100078000e
:1033cc001e0178009e0190003df7070080017800f7
:1033dc000101780003007800820078000001be0033
:1033ec006e00900022109800331098006e00900030
:1033fc00400c9000d00c900002002000a337240059
:10340c007e0090008e0890004ef6070000017800b8
:10341c000100780082017800000178000300780038
:10342c00820078000001be000800be0060f50700b5
:10343c008001780001017800030078008200780098
:10344c000001be006e0090004208980053089800de
:10345c006e009000000a9000900a90006e009000a0
:10346c00b0009000200090000001be000400be00df
:10347c0034f607000001780001007800820478001f
:10348c00000478006e0090009008900000089000f6
:10349c0001f0a2006e019000b20190002201900098
:1034ac0028f60700000178000100780082017800fe
:1034bc00000178006e009000400b9000d00b900043
:1034cc0009007800880078000002be000300780034
:1034dc00820078000001be000600be00c60707008f
:1034ec000001be006e00900042089800530898003e
:1034fc006e00900020029000b00290006e009000d0
:10350c00d0089000400890000001be000400be00ee
:10351c00ebf60700800178000101780003007800c9
:10352c00820078000001be006e00900042109800ee
:10353c00531098006e009000f00890006008900006
:10354c000001be007e0090008e0890000ff5070071
:10355c0000017800010078008202780000027800f7
:10356c0002002000a33724000500780084007800b6
:10357c000000be00d2f60700200798003107980023
:10358c006e009000200a9000b00a90006e0090002f
:10359c00d0009000400090000001be000400be006e
:1035ac00e8f507000001780001007800820478003b
:1035bc00000478006e009000b00890002008900085
:1035cc0001f0a2006e019000d20190004201900027
:1035dc00dcf507000001780001007800820178001a
:1035ec00000178002e039000be03900009007800c3
:1035fc00880078000002be0003007800820078008a
:10360c000001be000600be007b07070040079800c3
:10361c00510798006e0090007e0190008e0990007a
:10362c0062089800730898006e009000d00090001b
:10363c00400090004e019000de019000a0f60700c3
:10364c008001780001017800030078008200780086
:10365c000001be006e00900062109800731098007c
:10366c006e00900020129000b01290006e0090003e
:10367c00d0109000401090000001be000400be006d
:10368c00cbf407000001780001007800820278007a
:10369c00000278006e009000f01090006010900016
:1036ac000001be0005007800840078000000be0018
:1036bc00bff4070000017800010078008200780058
:1036cc008101780000017800030078008200780006
:1036dc000000be004f04be000080fa00000006008f
:1036ec000000fa0074ce800085ce8000f0c9800006
:1036fc0001ca80000001be000400be00a3f4070054
:10370c0080017800010178000300780082007800c5
:10371c000000be0070cc880081cc880094ce800064
:10372c00a5ce800010ca800021ca80000001be0016
:10373c000400be0095f407008001780001017800b8
:10374c0003007800820078000000be00f0cd8800f5
:10375c0001ce880070cc800081cc80000001be00be
:10376c00e0962100e5fe070030cb880041cb8800b5
:10377c00f0cd800001ce80000001be00e099210058
:10378c00defe070050cb880061cb880050cb800058
:10379c0061cb800034cb800045cb80000001be00a3
:1037ac000400be007cfe07000300070000000000c0
:1037bc000080fa00000006005800fa0070cc80006f
:1037cc0081cc80000001be008000eb000e00780070
:1037dc00da070700f0c9800001ca80000001be00b2
:1037ec00410020000e007800d407070070cb800049
:1037fc0081cb80000001be00810020000e0078000b
:10380c00ce07070090cc8000a1cc80000001be0048
:10381c00c10020000e007800c8070700d0cb800044
:10382c00e1cb80000001be00010120000e007800f9
:10383c00c207070090cb8000a1cb80000001be0026
:10384c00410120000e007800bc070700b0cc8000be
:10385c00c1cc80000001be00810120000e00780068
:10386c00b6070700f0cb800001cc80000001be0041
:10387c00c10120000e007800b0070700b0cb80001b
:10388c00c1cb80000001be00010220000e007800b8
:10389c00aa070700d0cc8000e1cc80000001be005c
:1038ac00410220000e007800a407070010cc800015
:1038bc0021cc80000001be00810220000e007800a7
:1038cc009e070700f0cd800001ce80000001be00f5
:1038dc00c10220000e0078009807070010ca800073
:1038ec0021ca80000001be00010320000e007800f8
:1038fc0092070700f0cc800001cd80000001be00d3
:10390c00410320000e0078008c07070010ce8000c9
:10391c0021ce80000001be00810320000e00780043
:10392c008607070050cd800061cd80000001be00ed
:10393c00c10320000e0078008007070010cd800026
:10394c0021cd80000001be00010420000e00780093
:10395c007a07070030ce800041ce80000001be0007
:10396c00410420000e0078007407070070cd800021
:10397c0081cd80000001be00810420000e00780083
:10398c006e07070030cd800041cd80000001be00e5
:10399c00c10420000e0078006807070050ce80009c
:1039ac0061ce80000001be00010520000e007800f1
:1039bc006207070090cd8000a1cd80000001be0001
:1039cc00410520000e0078005c0707000e0178000e
:1039dc00810520009006200039000700000000003f
:1039ec000080fa00000006000a00fa002007980088
:1039fc0031079800420798000040eb00004f780018
:103a0c009e407800e0cfb30000c06800004f780003
:103a1c002e0090004880de00804078001e40780028
:103a2c0000c06800004f78002e00900080407800a5
:103a3c001e40780000c06800004f78003e009000e7
:103a4c004880de00804078001e40780000c068008e
:103a5c00004f78003e009000804078001e407800b7
:103a6c0000c06800004f78000000eb0010079800c1
:103a7c000c0037001e009000e800470011004000c9
:103a8c00104078009e40780000c06800004f78001d
:103a9c000e80e8008e80e8001108e80090007800a5
:103aac00110798009e0090003e009000808f5000ff
:103abc00f0ff35001e4078000080fa000000060080
:103acc000a00fa00881f7800200798003107980038
:103adc00420798000000eb00000f78009e00780071
:103aec00010fe8000011210001004000e1cfb300fc
:103afc00014878002e0090004880de009e0078007f
:103b0c00010fe80000417800001121000100400085
:103b1c00024878009e007800010fe8002e0090000b
:103b2c00004178000011210001004000024878009b
:103b3c003e0090004880de009e007800010fe800f7
:103b4c00004178000011210001004000024878007b
:103b5c009e007800010fe8003e00900000417800c4
:103b6c000011210001004000024878000000eb0029
:103b7c00100798000e0037001e009000e800470068
:103b8c00110040009e007800010fe8001041780001
:103b9c000011210001004000024878000e80e8006e
:103bac008e80e8001108e80090007800110798005a
:103bbc009e0090003e009000808f5000eeff35007c
:103bcc001e047800080fe8004e019000be00900023
:103bdc002e00900084ff0700804078000011210027
:103bec0008004000014878009e0078000011210078
:103bfc002a070700000000004f0478000080fa003c
:103c0c00000006000200fa00004f7800508080008f
:103c1c00e30f500022003200e30f500007003c007d
:103c2c00e10f500012003200e10f500015003c0073
:103c3c000000e0000800320045003700e50f50009e
:103c4c0024003200e50f50001b003500e60f500039
:103c5c002f0032003e0037001e407800e24f40003b
:103c6c003d003a0010002000508088003a003700d8
:103c7c001e80fb00008088002000200050808800ff
:103c8c00380037001e80fb000180800001004000de
:103c9c000080880030002000508088003100370000
:103cac001e80fb004800dd001080880040002000d2
:103cbc00508088002b0037001e80fb001180800094
:103ccc0001004000108088005000200050808800c7
:103cdc0024003700218080000006210001004000f4
:103cec001e487800208080000000e80020808800ba
:103cfc002180800010808000808f500018003500db
:103d0c0060002000508088000430ef001400370061
:103d1c0011808000008080000206210032ff070025
:103d2c000080fb00408088001e80fb0041808000ea
:103d3c00810f500004003a00118080000080800048
:103d4c00020621000a0007000a30ef0005003700c8
:103d5c000a30ef00030037000000000001003700bc
:103d6c0000000000000000000080fa0000000600c7
:103d7c000600fa00889fbe008a9fbe00000f7800e4
:103d8c001107980022079800100520009e0078006b
:103d9c00808f500059003200100520009e007800e2
:103dac00808f500005003c00000220009e0078002f
:103dbc00808f50000a003200b1003700200520002f
:103dcc009e007800808f500050003200700620005a
:103ddc009e007800808f500050003200a800370001
:103dec002e0090009040780010c3b30080cf50009c
:103dfc0009003a00640047001000e8009040780089
:103e0c0010c3b30080cf500002003a0084cea8004b
:103e1c000100370084cea9002e009000904078005d
:103e2c0020c3b30080cf500009003a006400470063
:103e3c001000e8009040780010c3b30080cf500011
:103e4c0002003a0084aea8000100370084aea9003d
:103e5c002e0090009040780030c3b30080cf50000b
:103e6c0009003a00640047001000e8009040780018
:103e7c0010c3b30080cf500002003a00848ea8001b
:103e8c0001003700848ea9002e009000904078002d
:103e9c0040c3b30080cf500009003a0064004700d3
:103eac001000e8009040780010c3b30080cf5000a1
:103ebc0002003a00856ea80001003700856ea9004b
:103ecc002e0090009040780050c3b30080cf50007b
:103edc006a003a00640047001000e8009040780047
:103eec0010c3b30080cf500002003a00754ea800fa
:103efc0062003700754ea900600037002e0090005c
:103f0c0010407800630007005d0037002e00900021
:103f1c00104078009300070059003700c1012000c1
:103f2c002e0090008e0507000005be0081012000c8
:103f3c002e0090008a0507000004be0041012000fd
:103f4c002e009000860507000001be006000b8003e
:103f5c00809fbe0000002000813c2400809fbe009a
:103f6c000000200001122400809fbe000a03be0046
:103f7c000802be00e096210050fc0700ec875700b9
:103f8c008000eb002e009000750507000005be00b8
:103f9c00410020002e009000710507000004be00b7
:103fac00810020002e0090006d0507000001be006e
:103fbc006000b800809fbe0000002000813c2400ff
:103fcc00809fbe000000200001122400809fbe00d4
:103fdc000a03be000802be00e099210037fc07006e
:103fec00ec8757002e0190009e0090008006200068
:103ffc00b3fe0700010120002e00900058050700b9
:10400c000004be00c10020002e00900054050700e3
:10401c000801be0051fc0700010120002e00900099
:10402c004f0507000004be00c10020002e009000c8
:10403c004b0507000801be0057fc0700410120009a
:10404c002e00900046050700708088008180880053
:10405c00810120002e00900041050700908088000f
:10406c00a1808800c10120002e0090003c050700b3
:10407c00b0808800c180880001003700000000007b
:10408c00000000004f05be004f04be000080fa0087
:10409c00000006000200fa00004f78001e80fb00b2
:1040ac00e60f50001c003200e60f500007003c00e9
:1040bc00e20f500012003200e40f500013003200e7
:1040cc000000e0000d00320021003700ea0f500024
:1040dc0017003200ea0f500003003c00e80f5000bc
:1040ec00100032001a003700ec0f500013003200a1
:1040fc00ee0f500013003200150037003870ef003f
:10410c0020c0b30038f0b7001300370040c0b30034
:10411c0038f0b7001000370060c0b30038f0b700bb
:10412c000d00370080c0b30038f0b7000a0037002c
:10413c00a0c0b30038f0b70007003700c0c0b30010
:10414c0038f0b700e0c0b30038f0b7000200370019
:10415c003870ef0000000000000000000080fa0042
:10416c00000006000200fa00004f78001e407800a4
:10417c000004e00003003a000c30ef003870ef0050
:10418c000200370010002000608088000000000052
:10419c000080fa00000006000000fa0005e1a9000a
:1041ac000421a90000002000a13724002c000700e6
:1041bc000068a9002068a80005e1a8000000000024
:1041cc000080fa00000006000000fa001fe1a900c0
:1041dc001e21a90000002400c1612400d5000700a5
:1041ec000368a9002368a8001fe1a80000000000d4
:1041fc000080fa00000006000000fa0013e1a9009c
:10420c0011e1a9001061a8001021a900800880000c
:10421c000040a1000050a100800888000a21ef0096
:10422c000621ef00605621007008880060562100be
:10423c0060088800204280000000a0000010a1004f
:10424c000020a100204288000108a9002108a80034
:10425c0011e1a800000000000080fa000000060038
:10426c000400fa00008fbe00200880000040a1006e
:10427c000050a10020088800a0828000b18280003c
:10428c001e0178009e019000aef20700000178003c
:10429c0001007800820278000002780002f02f0002
:1042ac00f377240005007800840078000000be003d
:1042bc005ef107000000e0008d0034002008800053
:1042cc000040a0000050a10020088800a0828000bf
:1042dc00b18280001e0178009e01900099f20700c7
:1042ec00000178000100780082027800000278005a
:1042fc0002002000031024000500780084007800e0
:10430c000000be008ff20700000178000100780069
:10431c00820278000002780002f02f00f37724006c
:10432c0005007800840078000000be003ff1070013
:10433c000000e00055003400200880000040a1007f
:10434c000050a00020088800a0828000b18280006c
:10435c001e0178009e0190007af20700000178009f
:10436c000100780082027800000278000200200030
:10437c000328240005007800840078000000be00ab
:10438c0070f20700000178000100780082027800ca
:10439c000002780002f02f00f3772400050078006b
:1043ac00840078000000be0020f107000000e0004f
:1043bc001d003400200880000040a0000050a00028
:1043cc0020088800a0828000b18280001e01780045
:1043dc009e0190005bf2070000017800010078005c
:1043ec0082027800000278000200200003382400ca
:1043fc0005007800840078000000be0051f2070030
:10440c00000178000100780082017800000178003a
:10441c0003007800820078000000be0005f1070060
:10442c001008880040003700a0828000b182800014
:10443c001e0178009e01900042f2070000017800f6
:10444c00010078008202780000027800020020004f
:10445c000328240005007800840078000000be00ca
:10446c0038f2070000017800010078008201780022
:10447c000001780003007800820078000000be0084
:10448c00ecf007001008880027003700a08280009d
:10449c00b18280001e0178009e01900029f2070075
:1044ac000001780001007800820278000002780098
:1044bc00020020000310240005007800840078001e
:1044cc000000be001ff20700000178000100780018
:1044dc0082017800000178000300780082007800e7
:1044ec000000be00d3f00700100888000e00370053
:1044fc00a0828000b18280001e0178009e01900095
:10450c0010f20700000178000100780082017800a9
:10451c000001780003007800820078000000be00e3
:10452c00c4f0070010088800000000000080fa00aa
:10453c00000006000400fa00008fbe00f0088000a6
:10454c000040a1000050a100f0088800a08280006b
:10455c00b18280001e0178009e019000f9f10700e5
:10456c0000017800010078008202780000027800d7
:10457c0002f02f00f3772400050078008400780007
:10458c000000be00a9f007000000e0008d00340020
:10459c00f00880000040a0000050a100f008880046
:1045ac00a0828000b18280001e0178009e019000e4
:1045bc00e4f1070000017800010078008202780025
:1045cc00000278000200200003102400050078008f
:1045dc00840078000000be00daf1070000017800ca
:1045ec0001007800820278000002780002f02f00af
:1045fc00f377240005007800840078000000be00ea
:10460c008af007000000e00055003400f00880003c
:10461c000040a1000050a000f0088800a08280009b
:10462c00b18280001e0178009e019000c5f1070048
:10463c000001780001007800820278000002780006
:10464c000200200003282400050078008400780074
:10465c000000be00bbf107000001780001007800eb
:10466c00820278000002780002f02f00f377240019
:10467c0005007800840078000000be006bf0070095
:10468c000000e0001d003400f00880000040a00095
:10469c000050a000f0088800a0828000b182800049
:1046ac001e0178009e019000a6f107000001780021
:1046bc0001007800820278000002780002002000dd
:1046cc000338240005007800840078000000be0048
:1046dc009cf107000001780001007800820178004d
:1046ec000001780003007800820078000000be0012
:1046fc0050f00700d008880040003700a0828000ee
:10470c00b18280001e0178009e0190008df107009f
:10471c000001780001007800820278000002780025
:10472c000200200003282400050078008400780093
:10473c000000be0083f10700000178000100780042
:10474c008201780000017800030078008200780074
:10475c000000be0037f00700d008880027003700a3
:10476c00a0828000b18280001e0178009e01900022
:10477c0074f10700000178000100780082027800d3
:10478c0000027800020020000310240005007800cd
:10479c00840078000000be006af107000001780078
:1047ac000100780082017800000178000300780095
:1047bc00820078000000be001ef00700d0088800c0
:1047cc000e003700a0828000b18280001e017800ac
:1047dc009e0190005bf10700000178000100780059
:1047ec0082017800000178000300780082007800d4
:1047fc000000be000ff00700d00888000000000089
:10480c000080fa00000006000000fa00c301a800b6
:10481c00dca1ef00dea1ef00c1e1a8003a30ef000f
:10482c003c30ef00000000000080fa0000000600a1
:10483c000000fa00c305a800dca5ef00dea5ef0020
:10484c00c1e5a800000000000080fa00000006008e
:10485c000800fa00889fbe008a9fbe00f08080008e
:10486c0001818000d0808800e18088003081800048
:10487c00418180001081880021818800300e8000e9
:10488c008000eb00008fbe00500e80008000eb001b
:10489c00c000dd00000020001e0f40005e974800a5
:1048ac00302e80008000eb00200798003107980024
:1048bc00502e80008000eb00c000dd0000002000c6
:1048cc0064014700e401470033194000239148007c
:1048dc001202780092029000240798003507980085
:1048ec001e0078009e0090000ef00700c2532e00b0
:1048fc0073782300f2f107000001780001007800c2
:10490c0082017800000178000300780082007800b2
:10491c00f0808800018188002e009000be0090007d
:10492c0000f00700c2532e0073782b00e4f107004f
:10493c000001780001007800820178000001780005
:10494c000300780082007800308188004181880063
:10495c00f480800005818000d0808000e1808000a0
:10496c000001be000400be0008f007000001780042
:10497c0001007800820178000001780003007800c3
:10498c008200780050818800618188003481800029
:10499c004581800010818000218180000001be00d3
:1049ac000400be00f9ef0700000178000100780058
:1049bc008201780000017800030078008200780002
:1049cc007081880081818800508180006181800025
:1049dc0002002000a3372400b9f107008001780001
:1049ec000101780003007800820078000000be000e
:1049fc00b0c98800c1c988007081800081818000a5
:104a0c0002002000a3372400adf1070080017800dc
:104a1c000101780003007800820078000000be00dd
:104a2c00d0c98800e1c98800b4c98000c5c980001c
:104a3c00d0c98000e1c980000001be000400be00a6
:104a4c00dbef07000001780001007800820278009b
:104a5c00000278000200200003002400050078000a
:104a6c00840078000000be00b6f0070080017800da
:104a7c000101780003007800820078000000be007d
:104a8c00f0c9880001ca8800b4c98000c5c980007b
:104a9c00d0c98000e1c980000001be000400be0046
:104aac00baef07000001780001007800820278005c
:104abc000002780042b62300f3e5230005007800dd
:104acc00840078000000be009ef007008001780092
:104adc000101780003007800820078000000be001d
:104aec0010ca880021ca880050ca800061ca8000a0
:104afc0030ca880041ca880090ca8000a1ca8000d0
:104b0c0070ca880081ca8800d0ca8000e1ca8000bf
:104b1c00b0ca8800c1ca880038ca800049ca80005f
:104b2c00fac980000bca8000d0ca8000e1ca80009c
:104b3c008df307000001be000a00be0060f1070003
:104b4c0000017800010078008202780000027800f1
:104b5c0002002000a33724000500780084007800b0
:104b6c000000be0077f0070000017800010078001b
:104b7c008201780000017800030078008200780040
:104b8c000001be000800be0089ef0700800178001c
:104b9c000101780003007800820078000000be005c
:104bac0050ca880061ca880078ca800089ca80000f
:104bbc00fac980000bca8000d0ca8000e1ca80000c
:104bcc006df407000001be000a00be003cf10700b6
:104bdc000001780001007800820278000002780061
:104bec0002002000a3372400050078008400780020
:104bfc000000be0053f007000001780001007800af
:104c0c0082017800000178000300780082007800af
:104c1c000001be000800be0065ef070080017800af
:104c2c000101780003007800820078000000be00cb
:104c3c0090ca8800a1ca8800b8ca8000c9ca80007e
:104c4c0010ca800021ca800002002000a337240073
:104c5c003cf0070000017800010078008201780028
:104c6c000001780003007800820078000001be008b
:104c7c000800be004eef07008001780001017800ab
:104c8c0003007800820078000000be00d0ca8800c3
:104c9c00e1ca8800d0ca8000e1ca8000b2fd2000c1
:104cac0093042400e1ee07000000e0000c00340047
:104cbc00d0ca8000e1ca8000b2fd2000930c240011
:104ccc0032ef0700800178000101780003007800c2
:104cdc00820078000000be00d0ca8800e1ca8800bb
:104cec00d0ca8000e1ca8000b2fd200093042c00e1
:104cfc00ccee07000000e000010035000c0037008e
:104d0c00d0ca8000e1ca8000b2fd2000930c2400c0
:104d1c0027ef07008001780001017800030078007c
:104d2c00820078000000be00d0ca8800e1ca88006a
:104d3c00000000004f05be004f04be000080fa00ca
:104d4c00000006001800fa00d0818000e18180008c
:104d5c0000017800810178008000eb000e007800e3
:104d6c009302070050ca800061ca80000001be0097
:104d7c00410020000e0078007002070090ca8000ed
:104d8c00a1ca80000001be00810020000e00780046
:104d9c006a020700d0ca8000e1ca80000001be0090
:104dac00c10020000e00780064020700f0c98000ea
:104dbc0001ca80000001be00010120000e00780035
:104dcc005e02070010ca800021ca80000001be00ec
:104ddc00410120000e007800580207000e017800f7
:104dec00810120001006200035fb070000000000a8
:104dfc000080fa00000006000000fa0002ccbf00a0
:104e0c000000a1000010a1000020a10002ecb700de
:104e1c0000962000206088001061800000a0a00097
:104e2c0000b0a0001061880023cca80023eca800df
:104e3c0030002000206188001062800000a0a000db
:104e4c0000b0a0001062880043cca80043eca8007e
:104e5c00300020002062880001eca8000000000057
:104e6c000080fa00000006000600fa00008fbe0069
:104e7c00220798002e0090000000e0000c003a0081
:104e8c001e0078009e00900001f0a200d0c888009f
:104e9c00e1c888001e0078009e00900086ee070096
:104eac0080407800609e2100114098000a00370075
:104ebc001e0178009e01900092c88800a3c888004b
:104ecc001e0078009e0090007bee0700804078006a
:104edc00609e210001487800629e21002100200084
:104eec0000042000f6fa0700000000000080fa0021
:104efc00000006000000fa00889fbe00b4c88000c5
:104f0c00c5c8800010cb800021cb80000001be0002
:104f1c000400be0043ee07000000e00014003d005a
:104f2c0018cb800029cb8000b4c88000c5c8800095
:104f3c0010828000218280000001be000400be00af
:104f4c009bee0700000178000100780082027800d7
:104f5c00000278000801be0005007800840078008b
:104f6c000000be000d010700b0c88800c1c8880051
:104f7c00b4c88000c5c8800010cb800021cb800055
:104f8c000001be000400be0028ee07000000e00097
:104f9c001400340018cb800029cb8000b4c88000ea
:104fac00c5c8800010828000218280000001be00f4
:104fbc000400be0075ee07000001780001007800c7
:104fcc0082027800000278000801be00050078001b
:104fdc00840078000000be00d9000700b0c888002b
:104fec00c1c88800b0c88000c1c880006011b8007a
:104ffc000eee07000000e0001e003400b0c8800078
:10500c00c1c8800002002000031c24002cf0070003
:10501c00000178000100780082027800000278001c
:10502c0030828000418280000001be0005007800c3
:10503c00840078000000be005dee070000017800df
:10504c0001007800820178000001780003007800ec
:10505c00820078000000be0017ee07003061880067
:10506c00308280004182800013ee0700706188005e
:10507c001e00370030828000418280000eee070057
:10508c0030618800b0c88000c1c8800001f0a20067
:10509c0002002000031c240009f007000001780026
:1050ac0001007800820278000002780030828000d3
:1050bc00418280000001be00050078008400780069
:1050cc000000be003aee07000001780001007800f5
:1050dc0082017800000178000300780082007800db
:1050ec000000be00f4ed070070618800f4c8800079
:1050fc0005c98000f0ca800001cb80000001be0011
:10510c000400be00c7ed07000000e00014003d00e5
:10511c00f8ca800009cb8000f4c8800005c9800063
:10512c0010828000218280000001be000400be00bd
:10513c001fee070000017800010078008202780061
:10514c00000278000801be00050078008400780099
:10515c000000be0091000700f0c8880001c988005b
:10516c00f4c8800005c98000f0ca800001cb800023
:10517c000001be000400be00aced07000000e00022
:10518c0014003400f8ca800009cb8000f4c88000f9
:10519c0005c9800010828000218280000001be00c1
:1051ac000400be00f9ed0700000178000100780052
:1051bc0082027800000278000801be000500780029
:1051cc00840078000000be005d000700f0c8880075
:1051dc0001c98800f0c8800001c980006011b800c6
:1051ec0092ed07000000e0001e003500f0c88000c2
:1051fc0001c9800002002000031c2400b0ef07004e
:10520c00000178000100780082027800000278002a
:10521c0030828000418280000001be0005007800d1
:10522c00840078000000be00e1ed0700000178006a
:10523c0001007800820178000001780003007800fa
:10524c00820078000000be009bed070030628800f1
:10525c00308280004182800097ed070070628800e8
:10526c001e003700308280004182800092ed0700e2
:10527c0030628800f0c8800001c9800001f0a200f3
:10528c0002002000031c24008def070000017800b1
:10529c0001007800820278000002780030828000e1
:1052ac00418280000001be00050078008400780077
:1052bc000000be00beed0700000178000100780080
:1052cc0082017800000178000300780082007800e9
:1052dc000000be0078ed070070628800000000003e
:1052ec004f04be000080fa00000006000400fa0023
:1052fc00008fbe006011b8001e0078009e00900068
:10530c004aed07000000e000030035001e007800a5
:10531c009e009000030037001e0078009e00900055
:10532c0001f0a200800178000101780003007800f0
:10533c00820078000000be000080fa000000060029
:10534c000800fa00008fbe0022079800330798006f
:10535c002e019000be0190001e0078009e0090006f
:10536c0032ed07000000e000030034009e007800de
:10537c001e00900002003700ae0090003e0090002e
:10538c008101780000017800030078008200780029
:10539c000000be000080fa00000006000800fa00c1
:1053ac00008fbe0022079800330798002e01900052
:1053bc00be0190001e0078009e00900019ed0700c1
:1053cc000000e00003003d009e0078001e009000ed
:1053dc0002003700ae0090003e0090008101780082
:1053ec000001780003007800820078000000be0005
:1053fc000080fa00000006000c00fa00008fbe00ce
:10540c002207980033079800440798005507980026
:10541c004e019000de0190001e0078009e0090006e
:10542c0002ed07000000e000040034004e01900083
:10543c00de019000028fbe000a0037002e019000a2
:10544c00be0190001e0078009e009000f5ec070055
:10545c000000e00003003d002e019000be01900012
:10546c00028fbe009e0078001e0090008101780023
:10547c000001780003007800820078000000be0074
:10548c000080fa00000006000400fa00008fbe0045
:10549c00b2fd2000930424001e0078009e009000b2
:1054ac0028ee0700000178000100780082027800e5
:1054bc00000278000200200043332400050078002d
:1054cc00840078000000be00fdee070000017800ab
:1054dc0001007800820078008101780000017800da
:1054ec0003007800820078000000be000080fa0003
:1054fc00000006000400fa00008fbe00b2fd200080
:10550c00930424001e0078009e009000ecee07002f
:10551c000001780001007800820278000002780017
:10552c00020020004333240005007800840078003a
:10553c000000be0003ee07000001780001007800b7
:10554c008200780081017800000178000300780067
:10555c00820078000000be000080fa000000060007
:10556c000c00fa0040079800510798000e80e800e4
:10557c006408470090007800110798000000eb00c9
:10558c00000f78000b0037006a004700900078008d
:10559c001e804000e8004700910040001e0078008b
:1055ac000e81e8001200400091407800014878001c
:1055bc001e0fe8001e007800e30f5000f2ff3400cd
:1055cc00ae0090003e009000810178000001780050
:1055dc0003007800820078000000be000080fa0012
:1055ec00000006000800fa00200798003107980018
:1055fc00b2fd2000930424002e009000be00900009
:10560c00e2ec0700000178000100780082027800cb
:10561c0000027800b2fd2000930c240005007800f5
:10562c00840078000000be0037f10700b2fd2000b6
:10563c0093042400deec0700008fbe00b2fd2000b6
:10564c00930424001e0078009e009000d8ec070004
:10565c0000017800010078008202780000027800d6
:10566c00b2fd2000930c2400050078008400780023
:10567c000000be0024f10700b2fd200093042400ba
:10568c00c2ec07000001780001007800820078006d
:10569c008101780000017800030078008200780016
:1056ac000000be000080fa00000006000a00fa00ac
:1056bc0030079800410798004e009000e600470024
:1056cc00110f40001e00780010017800900190002e
:1056dc0012079800230798009e0090002e0090005f
:1056ec0081017800000178000300780082007800c6
