:020000040000fa
:080000000002040000000000f2
:020000040000fa
:040008000e040000e2
:020000040000fa
:04000c000e040000de
:020000040000fa
:040010000e040000da
:020000040000fa
:040014000e040000d6
:020000040000fa
:040018000e040000d2
:020000040000fa
:04001c000e040000ce
:020000040000fa
:040020000e040000ca
:020000040000fa
:040024000e040000c6
:020000040000fa
:040028000e040000c2
:020000040000fa
:04002c000e040000be
:020000040000fa
:040030000e040000ba
:020000040000fa
:0400340004030000c1
:020000040000fa
:040038000e040000b2
:020000040000fa
:04003c000e040000ae
:020000040000fa
:040040000e040000aa
:020000040000fa
:040044000e040000a6
:020000040000fa
:040048006a03000047
:020000040000fa
:04004c000e0400009e
:020000040000fa
:040050000e0400009a
:020000040000fa
:04005400c6030000df
:020000040000fa
:040058009a03000007
:020000040000fa
:04005c007403000029
:020000040000fa
:040060000e0400008a
:020000040000fa
:040064000e04000086
:020000040000fa
:040068000e04000082
:020000040000fa
:04006c000e0400007e
:020000040000fa
:040070000e0400007a
:020000040000fa
:040074000e04000076
:020000040000fa
:040078000e04000072
:020000040000fa
:04007c000e0400006e
:020000040000fa
:040080000e0400006a
:020000040000fa
:040084000e04000066
:020000040000fa
:040088000e04000062
:020000040000fa
:04008c000e0400005e
:020000040000fa
:040090000e0400005a
:020000040000fa
:040094003e03000027
:020000040000fa
:040098000e04000052
:020000040000fa
:04009c000e0400004e
:020000040000fa
:0400a0000e0400004a
:020000040000fa
:0400a4000e04000046
:020000040000fa
:0400a8000e04000042
:020000040000fa
:0400ac000e0400003e
:020000040000fa
:0400b0000e0400003a
:020000040000fa
:0400b4000e04000036
:020000040000fa
:0400b8000e04000032
:020000040000fa
:0400bc000e0400002e
:020000040000fa
:0400c0000e0400002a
:020000040000fa
:0400c4000e04000026
:020000040000fa
:0400c8000e04000022
:020000040000fa
:0400cc000e0400001e
:020000040000fa
:0400d0000e0400001a
:020000040000fa
:0400d4000e04000016
:020000040000fa
:0400d8000e04000012
:020000040000fa
:0400dc000e0400000e
:020000040000fa
:0400e0000e0400000a
:020000040000fa
:0400e4000e04000006
:020000040000fa
:0400e8000e04000002
:020000040000fa
:0400ec000e040000fe
:020000040000fa
:0400f0000e040000fa
:020000040000fa
:0400f4000e040000f6
:020000040000fa
:0400f8000e040000f2
:020000040000fa
:0400fc000e040000ee
:020000040000fa
:040100000e040000e9
:020000040000fa
:040104000e040000e5
:020000040000fa
:040108000e040000e1
:020000040000fa
:04010c000e040000dd
:020000040000fa
:040110000e040000d9
:020000040000fa
:040114000e040000d5
:020000040000fa
:040118000e040000d1
:020000040000fa
:04011c000e040000cd
:020000040000fa
:040120000e040000c9
:020000040000fa
:040124000e040000c5
:020000040000fa
:040128000e040000c1
:020000040000fa
:04012c000e040000bd
:020000040000fa
:040130000e040000b9
:020000040000fa
:040134000e040000b5
:020000040000fa
:040138000e040000b1
:020000040000fa
:04013c000e040000ad
:020000040000fa
:040140000e040000a9
:020000040000fa
:040144000e040000a5
:020000040000fa
:040148000e040000a1
:020000040000fa
:04014c000e0400009d
:020000040000fa
:040150000e04000099
:020000040000fa
:040154000e04000095
:020000040000fa
:040158000e04000091
:020000040000fa
:04015c000e0400008d
:020000040000fa
:040160000e04000089
:020000040000fa
:040164000e04000085
:020000040000fa
:040168000e04000081
:020000040000fa
:04016c000e0400007d
:020000040000fa
:040170000e04000079
:020000040000fa
:040174000e04000075
:020000040000fa
:040178000e04000071
:020000040000fa
:04017c000e0400006d
:020000040000fa
:040180000e04000069
:020000040000fa
:040184000e04000065
:020000040000fa
:040188000e04000061
:020000040000fa
:04018c000e0400005d
:020000040000fa
:040190000e04000059
:020000040000fa
:040194000e04000055
:020000040000fa
:040198000e04000051
:020000040000fa
:04019c000e0400004d
:020000040000fa
:0401a0000e04000049
:020000040000fa
:0401a4000e04000045
:020000040000fa
:0401a8000e04000041
:020000040000fa
:0401ac000e0400003d
:020000040000fa
:0401b0000e04000039
:020000040000fa
:0401b4000e04000035
:020000040000fa
:0401b8000e04000031
:020000040000fa
:0401bc000e0400002d
:020000040000fa
:0401c0000e04000029
:020000040000fa
:0401c4000e04000025
:020000040000fa
:0401c8000e04000021
:020000040000fa
:0401cc000e0400001d
:020000040000fa
:0401d0000e04000019
:020000040000fa
:0401d4000e04000015
:020000040000fa
:0401d8000e04000011
:020000040000fa
:0401dc000e0400000d
:020000040000fa
:0401e0000e04000009
:020000040000fa
:0401e4000e04000005
:020000040000fa
:0401e8000e04000001
:020000040000fa
:0401ec000e040000fd
:020000040000fa
:0401f0000e040000f9
:020000040000fa
:0401f4000e040000f5
:020000040000fa
:0401f8000e040000f1
:020000040000fa
:0401fc000e040000ed
:020000040000fa
:040200000e040000e8
:020000040000fa
:040204000e040000e4
:020000040000fa
:040208000e040000e0
:020000040000fa
:04020c000e040000dc
:020000040000fa
:040210000e040000d8
:020000040000fa
:040214000e040000d4
:020000040000fa
:040218000e040000d0
:020000040000fa
:04021c000e040000cc
:020000040000fa
:040220000e040000c8
:020000040000fa
:040224000e040000c4
:020000040000fa
:040228000e040000c0
:020000040000fa
:04022c000e040000bc
:020000040000fa
:040230000e040000b8
:020000040000fa
:040234000e040000b4
:020000040000fa
:040238000e040000b0
:020000040000fa
:04023c000e040000ac
:020000040000fa
:040240000e040000a8
:020000040000fa
:040244000e040000a4
:020000040000fa
:040248000e040000a0
:020000040000fa
:04024c000e0400009c
:020000040000fa
:040250000e04000098
:020000040000fa
:040254000e04000094
:020000040000fa
:040258000e04000090
:020000040000fa
:04025c000e0400008c
:020000040000fa
:040260000e04000088
:020000040000fa
:040264000e04000084
:020000040000fa
:10040000ef6321000eff27000e01880000000000ae
:10041000000020000000e000020032000001200087
:100420002002880018000700fe0007000000e0001e
:1004300003003a00c0ae2200010020000200370095
:100440000000200001002000810f70000200320037
:100450000001eb0012000700100007000000200060
:100460000000e00002003200000002000000000076
:100470009c040700b211020000000000aa0407005b
:100480000040da000000fe00200020000000e00034
:1004900002003200100020009001880000000600d9
:1004a000a1028800800478000000eb0020003700e3
:1004b0000a054100e284440054a0b4009905ba0042
:1004c000e284440054a0b4009906ba00e2844400d7
:1004d00054a0b4000006eb00476fde00fd07b20039
:1004e000ae018800636ce10003003a000ad8010005
:1004f0000000eb000e003700606ce10008003a00dd
:10050000004deb000a05e800020039003420ec0041
:100510000af0a0008b05e900f9ff3e000400370057
:100520006168e100010032000086eb000b0007006b
:1005300019c7ba000e04e0001905ba0003003a001a
:100540000a00e000daff3a0000000600fe07b200f1
:10055000ae0288008a047800f5ff37000cd0a300b3
:10056000e20f4d001c003b0089027800354dba00b7
:100570000a05e800020039003420ec000af0a0006f
:100580008b05e9000f003200254dba000a05e8008e
:10059000020039003420ec000af0a0008b05e900cd
:1005a000080032000c00e0000600320015cdba0051
:1005b0000a05e800020039003420ec000af0a0002f
:1005c0008b05e9008984e80054a0b4000b00e0002a
:1005d000e2ff3a00000006009902ba00055d7800cb
:1005e0008b05e900f7ff3200c82ade00055d7800c0
:1005f0008b05e900f3ff32000c00e000f1ff320050
:1006000019ddba00eeff37003600f800809fbe000b
:10061000829fbe00849fbe00869fbe000000fa003d
:100620000068a900640f0700f3120700b90d070066
:10063000808180008000e80081818800e101200045
:1006400001017800110009000200d8008000fd00bf
:100650000000e00001003a00eb0e0700000000007f
:100660000080fa004f03be004f02be004f01be00e3
:100670004f00be003600f900004006003600f800ca
:10068000809fbe00829fbe00849fbe00869fbe00ea
:100690000000fa000368a900608180007181800079
:1006a00061004000e080480060818800718188001e
:1006b000d6080700000000000080fa004f03be00cb
:1006c0004f02be004f01be004f00be003600f900d1
:1006d000004006000000fa000108a9000000000028
:1006e0000080fa0000400600801f78000000fa0039
:1006f00001a8a9000018800050b1880010188000df
:1007000060b188002018800070b188003018800027
:1007100080b188004018800090b1880010c0b300fc
:100720004ff0b700000000000080fa004f00780092
:10073000004006003600f800809fbe00829fbe0089
:10074000849fbe00869fbe000000fa000188a900b9
:10075000f1818000e0818000808f50000200320033
:1007600040120700010037004070ef000000000059
:100770000080fa004f03be004f02be004f01be00d2
:100780004f00be003600f900004006003600f800b9
:10079000809fbe00829fbe00849fbe00869fbe00d9
:1007a0000000fa000168a900101180004200de007c
:1007b00061406000e14f500001003a002242a90070
:1007c000101180000000d10061406000e14f500036
:1007d00005003a002222a9000300370030118000f2
:1007e00000407800321307001011800000407800ac
:1007f00061406000e14f5000f8ff3200000000004f
:100800000080fa004f03be004f02be004f01be0041
:100810004f00be003600f900004006000040da003c
:100820000000fe000000050014002000c703370090
:10083000f4ff2f00c50337000001be003f00070092
:100840000470a70003f0a1006509b1001600320092
:100850000d0035006828e10006003500f0ff2f008c
:10086000f1ff27000300e00013003b000100280017
:100870000000050000004000818048008502e9007a
:10088000fcff3a0008003700f88f420002003c00ed
:100890008000eb00000005008100d1000080d30043
:1008a0008502e800fcff3a000300e00002003b0084
:1008b00060001000e0801800000006000001be008b
:1008c0001e0007000470a70003f0a10003f8a300b6
:1008d00013003a006509b10010003200090035002c
:1008e0006928e10002003500010028000000050031
:1008f00000004000818048008502e900fcff3a00ca
:1009000000000600f88f4200050035008100d1008c
:100910000080d3008502e800fcff3a0000000600da
:100920008000eb00000005004f89de0082017800a6
:10093000a10337006011b800af033700c70ade001b
:10094000f107b200f50fb20008003200e1cf42001b
:10095000020032000170a00024000500810f700029
:10096000010032000408050044000500810f7000fa
:1009700002003a00140005008502e9000000400072
:1009800081c04800fcff3b000170a000240005006e
:1009900007f82700078361000638e10004003a00e9
:1009a000f7072000878361008703710001003a0088
:1009b00003f0a200889fbe008a9fbe008c9fbe00ed
:1009c000470ade000480a100c71ade000580a100ee
:1009d000070028000785600087856100f70f200069
:1009e0000720e1009e0032000728e1009c00320051
:1009f000010678000400e000b4003200f707200090
:100a0000878060000170a0000500e000c000320097
:100a1000f7072000878161000370a00005065200df
:100a20000f003a000b50e1000b0032000308e10018
:100a300002003a000200e1007e0032000204500091
:100a400083845800040031000001fd008101fd0095
:100a50008402fd008a05fd006044b80021003700d3
:100a60000520e10005003d000001fd008101fd00c1
:100a70008402fd008a05fd00050652007a60e1004f
:100a8000050035000170a1004722dd008480700060
:100a90008a807000630037006044b800ef0266008f
:100aa00007ff2f00070666000500e000060034007f
:100ab000f08312008714dd000511de00071bdd0046
:100ac000060171008519de007060e1000500350047
:100ad0000904780082047800030178008001eb00ab
:100ae000700656000b50e10003003a00020040007f
:100af000838048000400370060041400e0841c0078
:100b000002005800838058000188a30006003200cc
:100b10008100d1000080d3008984d3000884d300f1
:100b20000402e800270037000178a30025003a00fe
:100b30000100e000030032008186cf006986560084
:100b40000a0037008c0020000000e00004003a009a
:100b500009007800880478000004eb00700252005d
:100b60008086cf000d0646000c06e9007060e100ab
:100b700006003500800078000900780088047800bd
:100b80000004eb0070065600700252000c00e000fa
:100b90000c0034008c08dd00f00316000703de00b3
:100ba000868070000c00dd00074bde000600700040
:100bb0008c4cdd000743de00868474000c44dd00ad
:100bc0000c0252006120e10020003500610160004c
:100bd0000700280087816400f7ff270087836400ef
:100be000070374000300e000060032008203730074
:100bf000040032000000e800e08048000188a30003
:100c00000e003a00f70f20000720e1004a003d00e7
:100c10000170a1004722dd00810072008a8070000f
:100c20000000be004f06be004f05be004f04be00d0
:100c3000000006006000b800faff37008100d10014
:100c40000080d3000402e800eeff370004017800c2
:100c500089017400a10107008a807000f1ff37004c
:100c6000f7010700070278000001fd008101fd0087
:100c7000f301070087027800850372000778a3005c
:100c8000040032000001fd008101fd0006020700a2
:100c9000e4ff3700850362000768a3000800320004
:100ca0000b50e10003003200f0ff2f00f1ff27009e
:100cb000dcff37000001fd008101fd00d9ff370096
:100cc0000468a300d7ff3200faff3700f8ff2700bf
:100cd000888360000b003a000000e00009003a0041
:100ce0008303640082837300020032000200be00ae
:100cf000ccff37000b50e100ceff3a000200be00ef
:100d0000c8ff370014002000810064003eff370058
:100d1000f8ff27008883610004003a000200e00029
:100d200002003a008c007800beff3700150020005a
:100d30008301640039ff370001f82700000020001c
:100d400081007500b7ff3700889fbe008a9fbe00f4
:100d50008c9fbe001b0020000202be0005866800ba
:100d600006002800060666004709de00f20fb20002
:100d7000820032000243e80080003200c729de0012
:100d8000f30fb2007d0032000343e8007b00320025
:100d9000f107b2000170a000f507b2000570a000d5
:100da000c708dd004903de00868070004700dd00d3
:100db000c72add004923de00868272004722dd005b
:100dc00003055100040350008583580003003100df
:100dd00000004000818048000a05e9008c1f78006f
:100de0008a9fbe0004005000858058000402420023
:100df00085824a0000004000818048000005eb0029
:100e00000004be006033b8000406be000d48e100d7
:100e100056003100110009004dccd8000c01b8007b
:100e20000d02b8008481410060824a008283530031
:100e300003045c0084845c0060055d000a00e0003f
:100e400025003a00800578000d40e100490031009e
:100e50008800780007007800110009004d88d8004c
:100e60000c01b8000d02b8008481410060824a0084
:100e70006003110083835b0004045c00e0845c0079
:100e80000900e00021003a004f01be000300e0002d
:100e90002b003200e3016000070673008c817100b3
:100ea00001003200640070004200de004e5edd0092
:100eb0000c007000c258de0001e0a00083010700b2
:100ec000cf017800818071004f06be004f05be0043
:100ed0004f04be00000006008c8343000d044c004c
:100ee000e0844c0060054d000000e9000a00e000cd
:100ef000d4ff32008c8343000d044c00e0844c008e
:100f000060054d000000e900ceff37000c034300f0
:100f10008d834b0060044c00e0844c000000e9002d
:100f20000900e000d8ff32000c0343008d834b0022
:100f300060044c00e0844c000000e900d2ff370060
:100f40004200de004e5edd000c007000c258de0084
:100f500001e0a000cf0178000300e000daff3200da
:100f600060001000e0801800d7ff3700f0ff2f006e
:100f7000aaff3700f0ff2f00b9ff37000404be00be
:100f80002f010700870678000004fd008104fd00a2
:100f90002b010700078366000678a30003003200d8
:100fa0000960a7000800be002c0037000d78a300e0
:100fb000020032000800be00280037000778a300b6
:100fc00026003a0001f0a10009f0a1000668a30084
:100fd00003003200f1ff2700f0ff2f00baff3700b7
:100fe0000d68a300030032000800be008c80700072
:100ff000b5ff37000768a30007003a000648a300c2
:1010000003003200f1ff2700f0ff2f00aeff370092
:101010000d48a300030032006000b8008c8070000f
:10102000a9ff37000748a3000400320001f8270099
:10103000000020008c807000a3ff370076010700bd
:101040000004fd008104fd00020578007201070024
:101050000802be008a01780059ff37000160a00035
:10106000120220009282880097ff37000100e00002
:10107000120032000500e00010003200889fbe0020
:101080008a9fbe008c9fbe000006eb0001f8a30003
:101090000300320060001000e08018000cf0a00097
:1010a00005f8a3000300320060021200e0821a007b
:1010b0000cf0a2008005eb0041ff37006000b80093
:1010c000020005000383680007002800070363008f
:1010d000470ade000480a100c71ade000580a100d7
:1010e000f70f20000720e100420032000728e1004e
:1010f00040003200889fbe008a9fbe008c1f78008f
:10110000f107b200f307b2000400e000640032000f
:101110000170a0000500e000680032000370a0002c
:1011200085054200eb07b1000204b8000302b800d5
:101130008484440060854a00020ab8008484440024
:101140000a854a00030ab80004054500040033007c
:101150000804d0008984d2000a85d2008b05e900fa
:101160006158e1003d0035000210200009016100d6
:101170000308200089816100f7072000878364004d
:1011800008867300c84cde00c853dd0087847400f5
:101190004855de000300e0000600320082037600be
:1011a000040032008904e80060054d000a88a300ad
:1011b0000c003a00f70f20000758e10044003d0002
:1011c0000a70a100c75ddd000a8575008a00730002
:1011d000090078004f0678004f05be004f04be009e
:1011e000000006000a05d1008984d3008b05e800c1
:1011f000f0ff3700881f7800060478009000070091
:10120000070278000001fd008101fd008c0007004d
:1012100087027800850372000778a300050032007a
:101220000001fd008101fd009f0007004f047800d0
:1012300000000600850372000748a3000300320087
:10124000f0ff2f00f1ff2700f8ff3700000020001b
:1012500001f8270088807000f4ff370088017800cb
:101260004848dd00808171004848de00c850dd003c
:1012700001007000c850de00060478000b01780001
:101280001600070088807000d2ff37000500e000dc
:1012900005003200170020003a0007009dff3700cc
:1012a00081037000f9ff3a00860078004f0678004d
:1012b0004f05be004f04be0000000500830371000f
:1012c000f9ff3200270020002e00070094ff3700ae
:1012d00001f8270086807000f4ff37000100e0006d
:1012e00026003200610111007810e10023003c006b
:1012f0006022b8007010e100040035008002780020
:10130000010078008000eb00700151000200e00055
:101310000900340070031100062add00822ade0075
:101320008603dd00878272000200de00860bdd008e
:10133000070070008208de0084817100f4ff27003e
:1013400004826200848171000400280084826200ab
:101350006102600005f0a600000006000482710032
:10136000070032000000e800e080480000000600ae
:101370000002be006000b800efff37006000b80058
:1013800000000600889fbe000004eb006138e10009
:1013900016003a000100e00008003a00c800de0034
:1013a0004800dd00880020000100e00003003a0052
:1013b000c800de004800dd00680444008184cf00de
:1013c000e9845400060034008908dd00f08314002d
:1013d0008703de00878070000900dd0009044400f7
:1013e000610214004f04be00000006000300e0008c
:1013f00008003a00c811de004811dd008800200016
:101400000300e00003003a00c811de004811dd00cf
:10141000680444008384cf00e9845400060034004b
:101420008919dd00f08314008713de0087817100c5
:101430000911dd0009044400e1021400e9ff37004e
:101440002700200001f0a70017002000470bde0056
:10145000f60fb200040032000643e8000a00320032
:101460004702b3000000060001037800f607b2004f
:101470000603700002003a000703b30000000600f4
:101480008702b3000000060001037800f607b200ef
:1014900006037000020032000770a0000000060082
:1014a0000760a000000006000478a30004003200da
:1014b0000578a300030032000168a30001003a0090
:1014c0000200be000160a000000006008101700063
:1014d000270032008002eb0001f8a3000300320075
:1014e00060001000e080180015002000f4072000c4
:1014f0000202420020003400f7032000870360004e
:1015000006042000000363000208200000016100bf
:101510004700de00c909dd0000807100c708de0059
:101520000600e00008003200870371000600320068
:101530001000b0000180b0000188a300020032005a
:10154000c108de000402e800f107b200f30f20003a
:101550000320e10003003d004722dd00810072000e
:101560002900370001f827000000eb0026003700b3
:101570006000b80000000600680212007f20e10051
:10158000020034006000b8001f0037006011b8008e
:101590007020e1000400350080017800010078002f
:1015a0008000eb00700252000400e00009003400eb
:1015b000f00312000719dd008419de000703dd00c7
:1015c000868171000400de00070bdd00060070005c
:1015d0008408de00f7ff2700838363008703710020
:1015e0000600280003036300070032000700e00044
:1015f00003003a00610160000281730002003200c2
:101600001000b0000180b0000500a6000000060038
:1016100001f0a000000006004f0ade004709de00ce
:10162000f107b200f20fb2000b003200f207b10076
:101630000170a000c708dd00c901de0083807000d2
:101640004700dd000400a600000006006000100056
:10165000e080180000000600810f700001003a00d1
:10166000000006008182cf000500e00010003e006f
:101670008082cf00ee8242007028e1000400390031
:1016800007003e00800078000000eb000e003700ed
:10169000708312008600de000500dd000a003700be
:1016a000708352008600dd000000eb00060037006a
:1016b000e28252008508dd00708312000603de001e
:1016c000868070000500dd007507b0000501ea00a6
:1016d0000400a6000000060060001000e080180072
:1016e00000000600889fbe008a9fbe005400f800dc
:1016f0000a0020000a00e000070032000900200074
:1017000008002000a9028800b805ba000b000100fb
:101710000a85e900fcff3c005400f9004f05be00bb
:101720004f04be0000000600889fbe008a9fbe00d6
:101730005400f8000a0020000a00e000f6ff320022
:101740000900200008002000eeff3700889fbe003f
:101750008a9fbe00841f78007c0007004f0078003d
:1017600011003300f0ff2f00838f6c0006003b0058
:10177000040565000a00a7000800370009f0a6006c
:101780001000200008003700820f5400838f5c0097
:10179000030039001000200001003e00000020007e
:1017a00009f0a7000000ea004f05be004f04be008c
:1017b0000000e00000000600881f780003047800a5
:1017c0000300e00007003d0060001000e08018000a
:1017d00060011900e081190002003b0001f02d00ba
:1017e000030037000400070008f0a70001f0a00084
:1017f0004f04780000000600889fbe008a9fbe004c
:101800000082700004027100048271002600320020
:101810000004be000200be006011b8006b09200089
:10182000950220000182cf000a0039000541b10075
:101830000082cf00070039000541b1000982cf00c6
:10184000040039000541b1000882cf0001003900d1
:101850000541b10005425200120032000a003b006f
:1018600082817100610164008100d1000080d30099
:101870008984d3000884d3008b05e8000442e80083
:10188000f7ff3a00070037000804440089844c0041
:1018900000004800818048008b05e9000442e9000f
:1018a000f9ff3a00030007004f05be004f04be00d9
:1018b0000000060081002000618055000b003d0003
:1018c0000b00200061fe2f000100e1001d0034002c
:1018d00082817100610164008904d1000884d30011
:1018e0000000e800faff3a00710020006100640087
:1018f000030070000200600009003200610444002f
:10190000e0844c000988a500050032008b05e80042
:101910006808e10002003a008904d1000884d3007d
:10192000f20f20000258e10005003d00c75ddd0018
:10193000f907b200898075000800780000000600f1
:101940000bf827008b007800000005000004be00a3
:10195000fafb07000003be000405be000200be0043
:10196000f6fb0700844f7500000006000400fa0033
:10197000000178008101780003f0a100a4fd20009f
:1019800095f42300840f5100858f59000e003e000e
:10199000f4ff2f00f5972300840f5100858f590025
:1019a0003a003e000200200003b8270001fc0700b7
:1019b000e0bf9f00f1bf9f000000200001f823005e
:1019c0000080fa00000006004f0ade00050020003b
:1019d000163d2500b7072400860f5100878f590058
:1019e0001b003e0036be2c0067012400860f51000c
:1019f000878f59000a003600b2fd200093042400ae
:101a00000400e00004003200eafb07005a0107006e
:101a100001f0a200eaff3700ddfb0700fbff370003
:101a20000400e00005003200b2fd200093fc23001a
:101a3000e0fb0700db010700e1ff37000001be000b
:101a4000b0fd200091fc2300d1fb0700f9ff370017
:101a5000561d2300270e2400860f5100878f590042
:101a600014003e00f6dd2e00f70a2400860f510018
:101a7000878f590009003600b2fd2000930c240026
:101a80000400e00003003200cafb07003a0107002f
:101a9000cbff3700befb0700fcff37000400e0006f
:101aa0000100320001f0a20042be2c0063092400b4
:101ab000e5ff3700f4ff2f00f5f72700840f5100f2
:101ac000858f5900030036000001be00b0fb0700ff
:101ad000bbff3700648157005b01070063016000b2
:101ae0006fb89700ffb89700e10f51000500320072
:101af000e20f5100c5ff32000200e000cdff3a00c6
:101b0000e2ff370001f0a200caff37000400fa002c
:101b1000889fbe008a9fbe00020341008383490064
:101b2000e00f5300e08f5b001000320002027800eb
:101b30008302780005f0a1000800200009f82700c2
:101b4000880f5200898f5a0008003e00a0bf9f00f6
:101b5000b1bf9f00470dde000b002000f40f2000f6
:101b60000a056200840f550007003a0055fd070082
:101b70000001be0074fc07004f05be004f04be000c
:101b80000080fa0000000600000240008182480048
:101b9000840f5300858f5b0006003900840f5300cb
:101ba000858f5b00f4ff3a006011b80045fd070027
:101bb000f1ff37000a00e0004c003a002fbb97000d
:101bc000bfbb9700493add00c732de0085027200d4
:101bd0004932dd00e00f5200e08f5a003f003d0027
:101be000610215002fbb9700bfbb9700040478006b
:101bf0000804e900030033000603430087834b0019
:101c0000fbff37000602be00471bde000700200076
:101c10000683fb000600e0003d003a00491cdd00a1
:101c2000c714de00890474004914dd00e00f54007d
:101c3000e08f5c0032003d00e10313000204be00af
:101c40008703e900030033000804440089844c0042
:101c5000fbff37000801520089815a00860f5500aa
:101c60002f003c00e00f5100e08f590004003500c8
:101c7000e00f5100e08f5900cbff32000202be009e
:101c80004728de0001002000e00f5000e08f5800e0
:101c90002e0032000a00e000300034000000200076
:101ca00001f82f0004024000858248006150b9000d
:101cb000c700dd0000002000040070008580700077
:101cc0006022b80002002800bfb9970083026100bb
:101cd0000000720081807200a7ff37000a05e9004a
:101ce0000402420085824a00baff37002fba9700eb
:101cf000bfba9700f507b2000570a000c2ff370019
:101d00000603e9000804440089844c00c7ff37003b
:101d10000204be00f907b2000970a000cdff370031
:101d2000e00f5100e08f590004003500e00f510032
:101d3000e08f59009cff32000202be000402420004
:101d400085824a000a05e900c2ff3700040242000a
:101d500085824a000a05e900c9ff370061051500c0
:101d60000400be000a05e900030033008100d10031
:101d70000080d300fbff3700d1ff37000400fa00da
:101d8000889fbe000004be008900780001f0a10019
:101d9000a4fd200095f42300840f5000858f580087
:101da0001e003e00f4ff2f00f5972300840f500023
:101db000858f580016003e006000b80003f8270029
:101dc00089806100e00f5000e08f58000b003a005e
:101dd00002002000033820000800be00b9fc070004
:101de0000001be00c2bf9f00d3bf9f000800be001d
:101df0004f04be000080fa00000006000200200030
:101e000003b827000800be00eafa0700f4ff370015
:101e10000800be00e3000700180037004f49de004d
:101e200003002000143d2500b5072400840f500056
:101e3000858f58001d003e0034be2c006501240033
:101e4000840f5000858f58000e003e000800be0031
:101e50000200e000b2fd200093fc230005003200e8
:101e6000d4fa0700440007000004be0009f0a200f5
:101e7000deff3700c6fa07003f0007000004be007f
:101e8000daff37000800be000200e000b2fd2000cb
:101e90009304240003003200c6fa070001f0a200f8
:101ea000dcff3700bafa0700fcff3700541d23009f
:101eb000250e2400840f5000858f580017003e0027
:101ec000f4dd2e00f50a2400840f5000858f5800a1
:101ed00009003e000800be000200e00042be2c00e7
:101ee0006309240002003200b2fa0700e2ff370063
:101ef000a7fa0700dbff37000800be000200e00081
:101f0000b2fd2000930c240002003200a9fa070061
:101f1000c0ff37009efa0700beff3700f2ff2f0018
:101f2000f3f72700820f5000838f5800050036001a
:101f30000801be000800be0095fa07000004be00bc
:101f4000aaff3700688157000800be003e00070066
:101f5000630160004fb89700dfb89700e10f5100b0
:101f6000c5ff3200e20f5100ccff32000200e0005a
:101f7000bcff3a00a7ff37000400fa00889fbe00ac
:101f80008a9fbe008c9fbe000001be004dfc070072
:101f90000004be000001be004afc07000005be00b0
:101fa0000200200003f02b000800be0045fc0700e3
:101fb0000200200003f823007efa07000006be009e
:101fc000f2a92a00a3d223000a00be003dfc0700ac
:101fd0000001be000c00be0076fa07000002be0041
:101fe00072a12900c37c23000800be0084bf9f00ab
:101ff00095bf9f0033fc0700f243200063ab230032
:1020000063fa07000006be000a01be000800be0019
:102010002cfc07000001be000c00be0029fc0700dc
:102020000001be000fba97009fba97000400be00df
:1020300060fa07004f06be004f05be004f04be0009
:102040000080fa00000006000400fa00889fbe002d
:102050008a9fbe008c9fbe00000678008104780035
:102060008206780001f0a100a2fd200093dc24008c
:10207000820f5000838f580023003e0032982f00bb
:1020800023f22300890078000efc070002002000e4
:1020900003b4240047fa07000200200003b4240020
:1020a0003bfa07000005be00e3f9070000047800d2
:1020b000a2fd200093fc23000a00be0001fc0700e3
:1020c0000001be000c0078008900780030fa07009b
:1020d0000002be00325a2800832823000a00be00f6
:1020e00084bf9f0095bf9f00f6fb07000001be0064
:1020f0000fba97009fba97000400be0024fa0700a9
:10210000808ebe000b003700f2ff2f00f3f7270090
:10211000820f5000838f58000c00360000017800b9
:10212000890178008900780019fa0700808ebe00c6
:102130000004eb00080078004f06be004f05be000b
:102140004f04be000080fa000000060089007800fd
:102150004c0007000005be0032982f0023f2230038
:10216000d8fb07000200200003f0230011fa07004b
:1021700053000700000478008ffd070032982f00fd
:1021800023f22300f0fa07000001be000a00be009f
:10219000fff907006000b800a0069800b10698009b
:1021a000d7ff37000400fa00889fbe008a9fbe0058
:1021b0008c9fbe000006be000001be00c1fb0700f0
:1021c0000004be000001be000c00be00bdfb070005
:1021d0000005be000801be000800be00b9fb0700f4
:1021e0000a01be00b7fb07000002be00c2c3260002
:1021f000636323000800be0084bf9f0095bf9f005b
:10220000b0fb0700f27c200003952300e0f90700f3
:102210000001be000fba97009fba97000400be00ed
:10222000a8fb07000002be004288280083c02300ec
:102230000800be0084bf9f0095bf9f00a1fb070060
:10224000b2aa2a00a3e22300d1f907000a01be00c6
:102250009cfb07000c01be00d6f907000001be0080
:102260000fba97009fba97000400be00d1f907008b
:102270004f06be004f05be004f04be000080fa00ae
:10228000000006000400fa006011b800e2bf9f00e1
:10229000f3bf9f006fbb9700ffbb97000002be001b
:1022a000f3ff270083816300f2ff2f00020062002a
:1022b00082806200020163000080fa0000000600d4
:1022c0000003be009df907006011b8000470a7006c
:1022d00007f0a1006509b1001b00320012003500b3
:1022e000860220000628e10008003500f3ff2700e1
:1022f000f2ff2f006110b9000700e00018003b005a
:10230000030028006000b800020005000000400043
:102310008180480002014900838149008502e9006b
:10232000faff3a0008003700f88f420002003c0034
:102330008000eb00000005008100d1000080d30088
:102340008502e800fcff3a000700e00004003b00c3
:1023500060001000e080180060011900e0811900a1
:042360000000060073
:020000040000fa
:102364000e00fa00b50b0700020c0700640b07000f
:10237400d1070700300307003b030700db0c07000d
:10238400450307005006070059060700854ea800bc
:102394000000eb00000f780003003700570c070023
:1023a400204798001e0fe8006e0c07009e0078007e
:1023b400808f5000f9ff3500970b07000004e00000
:1023c400f3ff3200980b07008f0b070020079800db
:1023d4002e009000100078008000eb0054f90700f4
:1023e400323323003305240035fb07000001780055
:1023f40001007800820278000002780002002000c8
:102404000358240005007800840078000000be0012
:102414004cfa070030079800410798003e019000ed
:10242400ce019000000020008120240045fa07001e
:102434000001780001007800820278000002780030
:1024440002002000030a24000500780084007800bc
:102454000000be004df907008001780001017800fa
:1024640003007800820078000000be0090af88006e
:10247400a1af8800640047001080e80010007800d5
:102484008000eb002af907003233230033052400cf
:102494000bfb07000001780001007800820278003d
:1024a4000002780002002000035824000500780090
:1024b400840078000000be0022fa0700300798006c
:1024c400410798003e019000ce01900000002000da
:1024d400812024001bfa0700000178000100780025
:1024e400820278000002780002002000030a24001f
:1024f40005007800840078000000be0023f907007e
:1025040080017800010178000300780082007800df
:102514000000be00b0af8800c1af8800640047006f
:102524004100200010804000100078008000eb0083
:10253400fff807003233230033052400e0fa0700d4
:10254400000178000100780082027800000278001f
:10255400020020000358240005007800840078005d
:102564000000be00f7f90700300798004107980003
:102574003e019000ce019000000020008120240044
:10258400f0f9070000017800010078008202780069
:102594000002780002002000030a240005007800ed
:1025a400840078000000be00f8f80700800178007d
:1025b4000101780003007800820078000000be006a
:1025c40070af880081af880064004700620020007b
:1025d40010004100100078008000eb00d4f80700e0
:1025e4003233230033052400b5fa070000017800d4
:1025f40001007800820278000002780002002000c6
:102604000358240005007800840078000000be0010
:10261400ccf9070030079800410798003e0190006c
:10262400ce0190000000200081202400c5f907009d
:10263400000178000100780082027800000278002e
:1026440002002000030a24000500780084007800ba
:102654000000be00cdf80700800178000101780079
:1026640003007800820078000000be0050af8800ac
:1026740061af8800640047008100200010804000a2
:10268400100078008000eb00a9f807003233230023
:10269400330524008afa070000017800010078005d
:1026a400820278000002780002002000035824000f
:1026b40005007800840078000000be00a1f907003e
:1026c40030079800410798003e019000ce01900029
:1026d40000002000812024009af9070000017800fe
:1026e40001007800820278000002780002002000d5
:1026f400030a240005007800840078000000be006e
:10270400a2f8070080017800010178000300780036
:10271400820078000000be0030af880041af88001e
:10272400408180008000e80041818800210320006e
:1027340001017800110009000200d8008000fd00aa
:102744000000e00019003a00b0af8000c1af800083
:1027540059f8070080407800a00020000177780035
:1027640070af800081af800053f80700804078008c
:10277400a00020000000e8000177780050af80003e
:1027840061af80004cf8070080407800a000200072
:102794000080e800017778006a00470000017800b3
:1027a4003100200000032000f503070090af8000f3
:1027b400a1af800002002000031f240019f80700c5
:1027c4000000e00005003d0084cea80020818000c8
:1027d4000040a000208188000400370084cea900b6
:1027e400208180006f00600020818800b0af8000ed
:1027f400c1af8000020020000320240009f8070074
:102804000000e00005003d0084aea80020818000a7
:102814000030a000208188000400370084aea900a5
:1028240020818000770060002081880070af8000e4
:1028340081af80000200200003222400f9f7070082
:102844000000e00005003d00848ea8002081800087
:102854000020a0002081880004003700848ea90095
:10286400208180007b0060002081880050af8000c0
:1028740061af80000200200003202400e9f7070074
:102884000000e00005003d00856ea8002081800066
:102894000010a0002081880004003700856ea90084
:1028a400208180007d0060002081880030af80009e
:1028b40041af800002002000031f2400d9f7070065
:1028c4000000e00005003d00754ea8002081800056
:1028d4000000a0002081880004003700754ea90084
:1028e400208180007e0060002081880070af80001d
:1028f40081af800002002000c3202400cbf7070032
:102904000000e0001e003400b0af8000c1af8000c2
:1029140002002000031a2400c4f707000000e000ae
:102924001700340050af800061af80000200200027
:10293400031a2400bdf707000000e0001000340073
:1029440030af800041af800002002000031a240051
:10295400b6f707000000e0000900340090af8000e3
:10296400a1af800002002000031a2400aff7070083
:102974000000e000020034001001200020818800e3
:1029840083fe37000600fa002ad0bf00004f78000b
:1029940060818000718180004808de000100200011
:1029a40000407800104798006081800071818000a9
:1029b4004008de0001002000004078002047980015
:1029c40060818000718180004809dd004800de00dc
:1029d40000007100c808de0000407800304798000d
:1029e4006081800000407800404798000e01780024
:1029f40051002000000520006103070000000000d2
:102a04000080fa00000006000000fa002ad0bf008f
:102a14000080fb006100b9000001be0040012000fd
:102a240001002000800f5100818f590078003e0082
:102a340002060100140037001e003700270037008b
:102a44002f003700330037003a0037003e003700cc
:102a54004500370049003700510037005500370062
:102a64005d0037006a0037006900370068003700ee
:102a740067003700660037006500370064003700e0
:102a840063003700590037002c30ef002e30ef0080
:102a94006011b8006000b800d80807008082800088
:102aa4000000e0005c00320010c0b3002af0b70060
:102ab400590037006281800073818000803e2000cd
:102ac40001002000800f5100818f5900540036000e
:102ad40020c0b3002af0b70051003700a9ff070057
:102ae40002002000031f24000000200001f823003e
:102af400c208070030c0b3002af0b7005300370003
:102b0400808280000000e00047003200520007008d
:102b1400450037009bff070052592200030324009d
:102b24006000b800b508070050c0b3002af0b70031
:102b340046003700808280000000e0003c00320044
:102b4400450007003a0037008eff07006011b80007
:102b5400a099290091e92300a808070070c0b300d8
:102b64002af0b70039003700808280000000e000be
:102b740031003200380007002f00370081ff0700c2
:102b840062cc2d00a3062c00d0cc2c00c1ec230079
:102b94009a08070090c0b3002af0b7002b00370052
:102ba400808280000000e000250032002a00070037
:102bb4002300370073ff070062cc2d00a306240016
:102bc400d0cc2c00c1ec2b008c080700b0c0b300a3
:102bd4002af0b7001d003700808280000000e0006a
:102be400190032001c0007001700370065ff0700ba
:102bf400c29f2c0023092c000000200001f02b00b0
:102c04007e080700b0c0b3002af0b7000f003700f9
:102c14002a70ef000d003700000000000b003700a1
:102c24000000000009003700000000000700370022
:102c3400000000000500370000000000030037001a
:102c44000000000001003700000000000000000048
:102c54000080fa00000006000200fa000040eb00c9
:102c6400004f780020818000e10f500003003a00fb
:102c740050c0b300004f7800b900370020818000b5
:102c8400e20f500003003a0050c0b300004f780038
:102c9400b300370020818000e40f500003003a00a5
:102ca40030c0b300004f7800ad00370020818000b1
:102cb400e80f500003003a0010c0b300004f780042
:102cc400a700370020818000f00f500003003a0075
:102cd40030c0b300004f7800a1003700208180008d
:102ce400f10f500003003a0080c0b300004f780099
:102cf4009b00370020818000fb0f500003003a0046
:102d040030c0b300004f7800950037002081800068
:102d1400f80f500003003a0030c0b300004f7800b1
:102d24008f00370020818000fc0f500003003a0020
:102d340030c0b300004f7800890037002081800044
:102d4400fe0f500003003a0030c0b300004f78007b
:102d54008300370020818000e30f500003003a0015
:102d640050c0b300004f78007d0037002081800000
:102d7400e70f500003003a0050c0b300004f780042
:102d84007700370020818000ef0f500003003a00e5
:102d940050c0b300004f78007100370020818000dc
:102da400ff0f500003003a0050c0b300004f7800fa
:102db4006b00370020818000e60f500003003a00ca
:102dc40050c0b300004f78006500370020818000b8
:102dd400ec0f500003003a0030c0b300004f7800fd
:102de4005f00370020818000e90f500003003a00a3
:102df40020c0b300004f78005900370020818000c4
:102e0400f20f500003003a0010c0b300004f7800e6
:102e14005300370020818000eb0f500003003a007c
:102e240050c0b300004f78004d003700208180006f
:102e3400ea0f500003003a0030c0b300004f78009e
:102e44004700370020818000f30f500003003a0050
:102e540020c0b300004f780041003700208180007b
:102e6400f90f500003003a0010c0b300004f78007f
:102e74003b00370020818000f50f500003003a002a
:102e840030c0b300004f7800350037002081800047
:102e9400fd0f500003003a0030c0b300004f78002b
:102ea4002f00370020818000f70f500003003a0004
:102eb40010c0b300004f7800290037002081800043
:102ec400fa0f500003003a0050c0b300004f7800de
:102ed4002300370020818000ee0f500003003a00e9
:102ee40050c0b300004f78001d00370020818000df
:102ef400ed0f500003003a0050c0b300004f7800bb
:102f04001700370020818000f60f500003003a00bc
:102f140030c0b300004f78001100370020818000da
:102f2400e50f500003003a0050c0b300004f780092
:102f34000b00370020818000f40f500003003a009a
:102f440030c0b300004f78000500370020818000b6
:102f54000000e00002003a000040eb00004f78005f
:102f64001e4078000004e00003003a0020c0b300d3
:102f74002bf0b700230037001e407800e24f5000ca
:102f840003003a0040c0b3002bf0b7001d00370027
:102f94001e407800e14f500003003a0060c0b300c7
:102fa4002bf0b700170037001e407800e14f5000a7
:102fb40003003a0060c0b3002bf0b70011003700e3
:102fc4001e407800e54f500003003a0080c0b30073
:102fd4002bf0b7000b0037001e407800e84f50007c
:102fe40003003a0020c0b3002bf0b70005003700ff
:102ff4001e407800e34f500002003a00a0c0b30026
:103004002bf0b7002bd0bf000080fb00a1022100f1
:10301400914078008180fb008100e900810f50001d
:10302400020032002bd0bf002af0b70000000000dd
:103034000080fa00000006000000fa0005e1a90083
:103044000421a90000002000a13724002c0007005f
:103054000068a9002068a80005e1a800000000009d
:103064000080fa00000006000000fa001fe1a90039
:103074001e21a90000002400c1612400d50007001e
:103084000368a9002368a8001fe1a800000000004d
:103094000080fa00000006000000fa0013e1a90015
:1030a40011e1a9001061a8001021a9008008800086
:1030b4000040a1000050a100800888000a21ef0010
:1030c4000621ef0060562100700888006056210038
:1030d40060088800204280000000a0000010a100c9
:1030e4000020a100204288000108a9002108a800ae
:1030f40011e1a800000000000080fa0000000600b2
:103104000400fa00008fbe00200880000040a100e7
:103114000050a10020088800308280004182800095
:103124001e0178009e01900006f707000001780058
:1031340001007800820278000002780002f02f007b
:10314400f377240005007800840078000000be00b6
:10315400b6f507000000e0008d0034002008800070
:103164000040a0000050a1002008880030828000a8
:10317400418280001e0178009e019000f1f6070054
:1031840000017800010078008202780000027800d3
:103194000200200003102400050078008400780059
:1031a4000000be00e7f60700000178000100780087
:1031b400820278000002780002f02f00f3772400e6
:1031c40005007800840078000000be0097f5070031
:1031d4000000e00055003400200880000040a100f9
:1031e4000050a000200888003082800041828000c6
:1031f4001e0178009e019000d2f6070000017800bd
:1032040001007800820278000002780002002000a9
:103214000328240005007800840078000000be0024
:10322400c8f60700000178000100780082027800e7
:103234000002780002f02f00f377240005007800e4
:10324400840078000000be0078f507000000e0006c
:103254001d003400200880000040a0000050a000a1
:103264002008880030828000418280001e0178009e
:103274009e019000b3f60700000178000100780079
:103284008202780000027800020020000338240043
:1032940005007800840078000000be00a9f607004d
:1032a40000017800010078008201780000017800b4
:1032b40003007800820078000000be005df507007e
:1032c400100888004000370030828000418280006e
:1032d4001e0178009e0190009af607000001780014
:1032e40001007800820278000002780002002000c9
:1032f4000328240005007800840078000000be0044
:1033040090f607000001780001007800820178003f
:103314000001780003007800820078000000be00fd
:1033240044f5070010088800270037003082800029
:10333400418280001e0178009e01900081f6070002
:103344000001780001007800820278000002780011
:103354000200200003102400050078008400780097
:103364000000be0077f60700000178000100780035
:103374008201780000017800030078008200780060
:103384000000be002bf50700100888000e0037006f
:1033940030828000418280001e0178009e019000ee
:1033a40068f60700000178000100780082017800c7
:1033b4000001780003007800820078000000be005d
:1033c4001cf5070010088800000000000080fa00c7
:1033d400000006000400fa00008fbe00f008800020
:1033e4000040a1000050a100f00888003082800055
:1033f400418280001e0178009e01900051f6070072
:103404000001780001007800820278000002780050
:1034140002f02f00f3772400050078008400780080
:103424000000be0001f507000000e0008d0034003c
:10343400f00880000040a0000050a100f0088800bf
:1034440030828000418280001e0178009e0190003d
:103454003cf6070000017800010078008202780041
:103464000002780002002000031024000500780008
:10347400840078000000be0032f6070000017800e6
:1034840001007800820278000002780002f02f0028
:10349400f377240005007800840078000000be0063
:1034a400e2f407000000e00055003400f00880005a
:1034b4000040a1000050a000f00888003082800085
:1034c400418280001e0178009e0190001df60700d5
:1034d4000001780001007800820278000002780080
:1034e40002002000032824000500780084007800ee
:1034f4000000be0013f60700000178000100780008
:10350400820278000002780002f02f00f377240092
:1035140005007800840078000000be00c3f40700b2
:103524000000e0001d003400f00880000040a0000e
:103534000050a000f00888003082800041828000a2
:103544001e0178009e019000fef50700000178003e
:103554000100780082027800000278000200200056
:103564000338240005007800840078000000be00c1
:10357400f4f507000001780001007800820178006a
:103584000001780003007800820078000000be008b
:10359400a8f40700d008880040003700308280007b
:1035a400418280001e0178009e019000e5f507002d
:1035b400000178000100780082027800000278009f
:1035c400020020000328240005007800840078000d
:1035d4000000be00dbf50700000178000100780060
:1035e40082017800000178000300780082007800ee
:1035f4000000be008ff40700d008880027003700c1
:1036040030828000418280001e0178009e0190007b
:10361400ccf50700000178000100780082027800f0
:103624000002780002002000031024000500780046
:10363400840078000000be00c2f507000001780095
:10364400010078008201780000017800030078000e
:10365400820078000000be0076f40700d0088800dd
:103664000e00370030828000418280001e01780005
:103674009e019000b3f50700000178000100780076
:10368400820178000001780003007800820078004d
:103694000000be0067f40700d008880000000000a6
:1036a4000080fa00000006000a00fa0020079800d3
:1036b40031079800420798000040eb00004f780063
:1036c4009e407800e0cfb30000c06800004f78004f
:1036d4002e0090004880de00804078001e40780074
:1036e40000c06800004f78002e00900080407800f1
:1036f4001e40780000c06800004f78003e00900033
:103704004880de00804078001e40780000c06800d9
:10371400004f78003e009000804078001e40780002
:1037240000c06800004f78000000eb00100798000c
:103734000c0037001e009000e80047001100400014
:10374400104078009e40780000c06800004f780068
:103754000e80e8008e80e8001108e80090007800f0
:10376400110798009e0090003e009000808f50004a
:10377400f0ff35001e4078000080fa0000000600cb
:103784000a00fa00881f7800200798003107980083
:10379400420798000000eb00000f78009e007800bc
:1037a400010fe800400d210001004000e1cfb3000b
:1037b400014878002e0090004880de009e007800ca
:1037c400010fe80000417800400d21000100400095
:1037d400024878009e007800010fe8002e00900057
:1037e40000417800400d21000100400002487800ab
:1037f4003e0090004880de009e007800010fe80043
:1038040000417800400d210001004000024878008a
:103814009e007800010fe8003e009000004178000f
:10382400400d210001004000024878000000eb0038
:10383400100798000e0037001e009000e8004700b3
:10384400110040009e007800010fe800104178004c
:10385400400d210001004000024878000e80e8007d
:103864008e80e8001108e8009000780011079800a5
:103874009e0090003e009000808f5000eeff3500c7
:103884001e047800080fe8004e019000be0090006e
:103894002e00900084ff070080407800400d210036
:1038a40008004000014878009e007800400d210087
:1038b400ab050700000000004f0478000080fa0008
:1038c400000006000200fa00004f7800108180001a
:1038d400e30f500022003200e30f500007003c00c9
:1038e400e10f500012003200e10f500015003c00bf
:1038f4000000e0000800320045003700e50f5000ea
:1039040024003200e50f50001b003500e60f500084
:103914002f0032003e0037001e407800e24f400086
:103924003d003a0010002000108188003a00370062
:103934001e80fb00c08088002000200010818800c9
:10394400380037001e80fb00c18080000100400069
:10395400c0808800300020001081880031003700ca
:103964001e80fb004800dd00d0808800400020005d
:10397400108188002b0037001e80fb00d18080005e
:1039840001004000d0808800500020001081880091
:1039940024003700e1808000400521000100400040
:1039a4001e487800e08080000000e800e080880085
:1039b400e1808000d0808000808f500018003500a6
:1039c40060002000108188001c30ef0014003700d4
:1039d400d1808000c08080004205210032ff0700b2
:1039e4000080fb00008188001e80fb0001818000b4
:1039f400810f500004003a00d1808000c080800014
:103a0400420521000a0007002230ef0005003700bc
:103a14002230ef00030037000000000001003700ef
:103a240000000000000000000080fa000000060012
:103a34000600fa00000f780011079800220798008a
:103a4400100520009e007800808f50004f00320047
:103a5400200520009e007800808f50004f00320027
:103a6400000220009e007800808f50004f003a0032
:103a74002e0090009040780010c3b30080cf500017
:103a840009003a00640047001000e8009040780004
:103a940010c3b30080cf500002003a0084cea800c7
:103aa4000100370084cea9002e00900090407800d9
:103ab40020c3b30080cf500009003a0064004700df
:103ac4001000e8009040780010c3b30080cf50008d
:103ad40002003a0084aea8000100370084aea900b9
:103ae4002e0090009040780030c3b30080cf500087
:103af40009003a00640047001000e8009040780094
:103b040010c3b30080cf500002003a00848ea80096
:103b140001003700848ea9002e00900090407800a8
:103b240040c3b30080cf500009003a00640047004e
:103b34001000e8009040780010c3b30080cf50001c
:103b440002003a00856ea80001003700856ea900c6
:103b54002e0090009040780050c3b30080cf5000f6
:103b640014003a00640047001000e8009040780018
:103b740010c3b30080cf500002003a00754ea80075
:103b84000c003700754ea9000a0037002e00900083
:103b9400104078000b000700070037002e0090004b
:103ba400104078003b0007000300370000000000cd
:103bb4000100370000000000000000000080fa004f
:103bc400000006000200fa00004f78001e80fb008f
:103bd400e60f50001c003200e60f500007003c00c6
:103be400e20f500012003200e40f500013003200c4
:103bf4000000e0000d00320021003700ea0f500001
:103c040017003200ea0f500003003c00e80f500098
:103c1400100032001a003700ec0f5000130032007d
:103c2400ee0f500013003200150037002a70ef0029
:103c340020c0b3002af0b7001300370040c0b3001f
:103c44002af0b7001000370060c0b3002af0b700b4
:103c54000d00370080c0b3002af0b7000a00370017
:103c6400a0c0b3002af0b70007003700c0c0b300fb
:103c74002af0b700e0c0b3002af0b7000200370012
:103c84002a70ef0000000000000000000080fa002d
:103c9400000006000200fa00004f78001e40780081
:103ca4000004e00003003a005030ef002a70ef00f7
:103cb400020037001000200080828800000000000d
:103cc4000080fa00000006000000fa00c301a8000a
:103cd400dca1ef00dea1ef00c1e1a8002c30ef0071
:103ce4002e30ef00000000000080fa000000060003
:103cf4000000fa00c305a800dca5ef00dea5ef0074
:103d0400c1e5a800000000000080fa0000000600e1
:103d14000800fa00889fbe008a9fbe0020808000b1
:103d240031808000008088001180880060808000dd
:103d3400718080004080880051808800300e8000af
:103d44008000eb00008fbe00500e80008000eb006e
:103d5400c000dd00000020001e0f40005e974800f8
:103d6400302e80008000eb00200798003107980077
:103d7400502e80008000eb00c000dd000000200019
:103d840064014700e40147003319400023914800cf
:103d940012027800920290002407980035079800d8
:103da4001e0078009e009000def20700c2532e0031
:103db40073782300c2f40700000178000100780042
:103dc4008201780000017800030078008200780006
:103dd40020808800318088002e009000be00900072
:103de400d0f20700c2532e0073782b00b4f40700fe
:103df4000001780001007800820178000001780059
:103e04000300780082007800608088007180880058
:103e14002480800035808000008080001180800034
:103e24000001be000400be00d8f2070000017800c3
:103e34000100780082017800000178000300780016
:103e440082007800808088009180880064808000ef
:103e54007580800040808000518080000001be0099
:103e64000400be00c9f207000001780001007800d8
:103e74008201780000017800030078008200780055
:103e8400a0808800b18088008080800091808000bc
:103e940002002000a337240089f407008001780081
:103ea4000101780003007800820078000000be0061
:103eb400d0af8800e1af8800a0808000b18080008e
:103ec40002002000a33724007df40700800178005d
:103ed4000101780003007800820078000000be0031
:103ee400f0af880001b08800d4af8000e5af800057
:103ef400f0af800001b080000001be000400be00ed
:103f0400abf207000001780001007800820278001b
:103f1400000278000200200003002400050078005d
:103f2400840078000000be0086f30700800178005a
:103f34000101780003007800820078000000be00d0
:103f440010b0880021b08800d4af8000e5af8000b5
:103f5400f0af800001b080000001be000400be008c
:103f64008af20700000178000100780082027800dc
:103f74000002780042b62300f3e523000500780030
:103f8400840078000000be006ef307008001780012
:103f94000101780003007800820078000000be0070
:103fa40030b0880041b0880070b0800081b08000db
:103fb40050b0880061b08800b0b08000c1b080000b
:103fc40090b08800a1b08800f0b0800001b18000fa
:103fd400d0b08800e1b0880058b0800069b080009b
:103fe4001ab080002bb08000f0b0800001b18000d6
:103ff4005df607000001be000a00be0030f40700b1
:104004000001780001007800820278000002780044
:1040140002002000a3372400050078008400780003
:104024000000be0047f3070000017800010078009b
:104034008201780000017800030078008200780093
:104044000001be000800be0059f20700800178009c
:104054000101780003007800820078000000be00af
:1040640070b0880081b0880098b08000a9b080004a
:104074001ab080002bb08000f0b0800001b1800045
:104084003df707000001be000a00be000cf4070063
:1040940000017800010078008202780000027800b4
:1040a40002002000a3372400050078008400780073
:1040b4000000be0023f3070000017800010078002f
:1040c4008201780000017800030078008200780003
:1040d4000001be000800be0035f207008001780030
:1040e4000101780003007800820078000000be001f
:1040f400b0b08800c1b08800d8b08000e9b08000ba
:1041040030b0800041b0800002002000a3372400ba
:104114000cf30700000178000100780082017800a8
:104124000001780003007800820078000001be00de
:104134000800be001ef2070080017800010178002b
:1041440003007800820078000000be00f0b0880010
:1041540001b18800f0b0800001b18000b2fd200000
:1041640093042400b1f107000000e0000c003400c7
:10417400f0b0800001b18000b2fd2000930c240057
:1041840002f2070080017800010178000300780042
:10419400820078000000be00f0b0880001b1880001
:1041a400f0b0800001b18000b2fd200093042c0027
:1041b4009cf107000000e000010035000c0037000e
:1041c400f0b0800001b18000b2fd2000930c240007
:1041d400f7f10700800178000101780003007800fe
:1041e400820078000000be00f0b0880001b18800b1
:1041f400000000004f05be004f04be000080fa001e
:10420400000006001800fa006081800071818000bf
:1042140000017800810178008000eb000e00780036
:104224009302070070b0800081b080000001be00de
:10423400410020000e00780070020700b0b080003a
:10424400c1b080000001be00810020000e00780093
:104254006a020700f0b0800001b180000001be00d6
:10426400c10020000e0078006402070010b0800036
:1042740021b080000001be00010120000e00780082
:104284005e02070030b0800041b080000001be0033
:10429400410120000e007800580207000e0178004a
:1042a400810120001006200035fd070000000000f9
:1042b4000080fa00000006000000fa0002ccbf00f3
:1042c4000000a1000010a1000020a10002ecb70032
:1042d40000962000206088001061800000a0a000eb
:1042e40000b0a0001061880023cca80023eca80033
:1042f40030002000206188001062800000a0a0002f
:1043040000b0a0001062880043cca80043eca800d1
:10431400300020002062880001eca80000000000aa
:104324000080fa00000006000600fa00008fbe00bc
:10433400220798002e0090000000e0000c003a00d4
:104344001e0078009e00900001f0a200f0ae8800ec
:1043540001af88001e0078009e00900056f107000f
:1043640080407800a0632100114098000a003700c3
:104374001e0178009e019000b2ae8800c3ae880092
:104384001e0078009e0090004bf1070080407800ea
:10439400a063210001487800a263210021002000cd
:1043a40000042000f6fc0700000000000080fa0072
:1043b400000006000000fa00889fbe00d4ae800012
:1043c400e5ae800030b1800041b180000001be0044
:1043d4000400be0013f107000000e00014003d00db
:1043e40038b1800049b18000d4ae8000e5ae8000d1
:1043f400a0818000b18180000001be000400be00e5
:104404006bf1070000017800010078008202780057
:10441400000278000801be000500780084007800de
:104424000000be000d010700d0ae8800e1ae880098
:10443400d4ae8000e5ae800030b1800041b1800090
:104444000001be000400be00f8f007000000e00018
:104454001400340038b1800049b18000d4ae80002b
:10446400e5ae8000a0818000b18180000001be0023
:104474000400be0045f10700000178000100780047
:1044840082027800000278000801be00050078006e
:10449400840078000000be00d9000700d0ae880078
:1044a400e1ae8800d0ae8000e1ae80006011b800bb
:1044b400def007000000e0001e003400d0ae8000f3
:1044c400e1ae800002002000031c2400fcf207007f
:1044d4000001780001007800820278000002780070
:1044e400c0818000d18180000001be0005007800f9
:1044f400840078000000be002df107000001780060
:10450400010078008201780000017800030078003f
:10451400820078000000be00e7f0070030618800e8
:10452400c0818000d1818000e3f0070070618800c1
:104534001e003700c0818000d1818000def00700ba
:1045440030618800d0ae8000e1ae800001f0a200ae
:1045540002002000031c2400d9f2070000017800a7
:10456400010078008202780000027800c081800097
:10457400d18180000001be0005007800840078002d
:104584000000be000af10700000178000100780075
:10459400820178000001780003007800820078002e
:1045a4000000be00c4f007007061880014af8000f2
:1045b40025af800010b1800021b180000001be0051
:1045c4000400be0097f007000000e00014003d0066
:1045d40018b1800029b1800014af800025af80009d
:1045e400a0818000b18180000001be000400be00f3
:1045f400eff00700000178000100780082027800e3
:10460400000278000801be000500780084007800ec
:104614000000be009100070010af880021af8800a1
:1046240014af800025af800010b1800021b180005c
:104634000001be000400be007cf007000000e000a2
:104644001400340018b1800029b1800014af800038
:1046540025af8000a0818000b18180000001be00f0
:104664000400be00c9f007000001780001007800d2
:1046740082027800000278000801be00050078007c
:10468400840078000000be005d00070010af8800c1
:1046940021af880010af800021af80006011b80006
:1046a40062f007000000e0001e00350010af80003b
:1046b40021af800002002000031c240080f20700c8
:1046c400000178000100780082027800000278007e
:1046d400c0818000d18180000001be000500780007
:1046e400840078000000be00b1f0070000017800eb
:1046f400010078008201780000017800030078004e
:10470400820078000000be006bf007003062880071
:10471400c0818000d181800067f00700706288004a
:104724001e003700c0818000d181800062f0070044
:104734003062880010af800021af800001f0a20039
:1047440002002000031c24005df207000001780031
:10475400010078008202780000027800c0818000a5
:10476400d18180000001be0005007800840078003b
:104774000000be008ef00700000178000100780000
:10478400820178000001780003007800820078003c
:104794000000be0048f007007062880000000000be
:1047a4004f04be000080fa00000006000400fa0076
:1047b400008fbe006011b8001e0078009e009000bb
:1047c4001af007000000e000030035001e00780026
:1047d4009e009000030037001e0078009e009000a9
:1047e40001f0a20080017800010178000300780044
:1047f400820078000000be000080fa00000006007d
:104804000800fa00008fbe002207980033079800c2
:104814002e019000be0190001e0078009e009000c2
:1048240002f007000000e000030034009e0078005e
:104834001e00900002003700ae0090003e00900081
:10484400810178000001780003007800820078007c
:104854000000be000080fa00000006000800fa0014
:10486400008fbe0022079800330798002e019000a5
:10487400be0190001e0078009e009000e9ef070042
:104884000000e00003003d009e0078001e00900040
:1048940002003700ae0090003e00900081017800d5
:1048a4000001780003007800820078000000be0058
:1048b4000080fa00000006000c00fa00008fbe0021
:1048c400220798003307980044079800550798007a
:1048d4004e019000de0190001e0078009e009000c2
:1048e400d2ef07000000e000040034004e01900005
:1048f400de019000028fbe000a0037002e019000f6
:10490400be0190001e0078009e009000c5ef0700d5
:104914000000e00003003d002e019000be01900065
:10492400028fbe009e0078001e0090008101780076
:104934000001780003007800820078000000be00c7
:104944000080fa00000006000400fa00008fbe0098
:10495400b2fd2000930424001e0078009e00900005
:10496400f8f0070000017800010078008202780066
:104974000002780002002000433324000500780080
:10498400840078000000be00cdf10700000178002b
:10499400010078008200780081017800000178002d
:1049a40003007800820078000000be000080fa0056
:1049b400000006000400fa00008fbe00b2fd2000d3
:1049c400930424001e0078009e009000bcf10700b0
:1049d400000178000100780082027800000278006b
:1049e400020020004333240005007800840078008e
:1049f4000000be00d3f00700000178000100780039
:104a040082007800810178000001780003007800ba
:104a1400820078000000be000080fa00000006005a
:104a24000c00fa0040079800510798000e80e80037
:104a34006408470090007800110798000000eb001c
:104a4400000f78000b0037006a00470090007800e0
:104a54001e804000e8004700910040001e007800de
:104a64000e81e8001200400091407800014878006f
:104a74001e0fe8001e007800e30f5000f2ff340020
:104a8400ae0090003e0090008101780000017800a3
:104a940003007800820078000000be000080fa0065
:104aa400000006000800fa0020079800310798006b
:104ab400b2fd2000930424002e009000be0090005c
:104ac400b2ef07000001780001007800820278004c
:104ad40000027800b2fd2000930c24000500780049
:104ae400840078000000be0007f40700b2fd200037
:104af40093042400aeef0700008fbe00b2fd200037
:104b0400930424001e0078009e009000a8ef070084
:104b14000001780001007800820278000002780029
:104b2400b2fd2000930c2400050078008400780076
:104b34000000be00f4f30700b2fd2000930424003b
:104b440092ef0700000178000100780082007800ed
:104b54008101780000017800030078008200780069
:104b64000000be000080fa00000006000a00fa00ff
:104b740030079800410798004e009000e600470077
:104b8400110f40001e007800100178009001900081
:104b940012079800230798009e0090002e009000b2
:104ba4008101780000017800030078008200780019
:104bb4000000be000080fa00000006000600fa00b3
:104bc40010079800210798002e0090008e80e800be
:104bd400110f40001e007800900078001000900033
:104be40081017800000178000300780082007800d9
:104bf4000000be000080fa00000006000c00fa006d
:104c0400200798003107980042079800530798003e
:104c14000e80e800680847009000780011079800ab
:104c24000000eb00000f78000b0037001e00780036
:104c34008e80e80091004000660047001001780073
:104c44001e004100640147001200400091407800ba
:104c5400014878001e0fe8001e007800e30f5000a2
:104c6400f2ff3400000000000080fa00000006009b
:104c74000c00fa00200798003107980042079800ba
:104c8400530798000e80e8006808470090007800f9
:104c9400110798000000eb00000f78000c003700ab
:104ca400300020001e0050008e80e800910040007b
:104cb40066004700100178001e00410064014700af
:104cc4001200400091407800014878001e0fe8006f
:104cd4001e007800e30f5000f1ff340000000000d4
:104ce4000080fa00000006000c00fa00200798007b
:104cf4003107980042079800530798000e80e80097
:104d04006808470090007800110798000000eb0045
:104d1400000f78000b0037001e0078008e80e8003a
:104d24009100400066004700100178001e00410019
:104d34006401470012004000914078000148780067
:104d44001e0fe8001e007800e70f5000f2ff340049
:104d5400000000000080fa00000006000e00fa00c7
:104d6400000f780012079800230798003407980072
:104d74004507980056079800670798001e007800ba
:104d84001e019000ae0190000288be001e00780053
:104d94003eb99700ceb9970062009800730098005e
:104da4001e0078003e019000ce0190002200980081
:104db400330098001e0078001eb99700aeb9970022
:104dc40002089800130898001e0078005e01900005
:104dd400ee01900042009800530098001e007800f5
:104de4007eb197008eb99700220898003308980086
:104df400000000000080fa00000006000800fa002d
:104e0400008fbe00220798003307980042b62300a3
:104e1400f3dd23002e009000be009000a8f00700f0
:104e24000001780001007800820278000002780016
:104e34001e0178009e01900005007800840078002f
:104e44000000be00daee070080017800010178005e
:104e540003007800820078000000be00f0ae8800f5
:104e640001af880042b62300f3dd23002e0090003a
:104e7400be00900092f00700000178000100780065
:104e84008201780000017800030078008200780035
:104e94000001be001e0078009e009000bbee0700db
:104ea4008001780001017800030078008200780016
:104eb4000000be00b0ae8800c1ae8800f0ae800035
:104ec40001af80000200200003202c007cf00700ca
:104ed40080017800010178000300780082007800e6
:104ee4000000be0010b1880021b18800b0ae80007f
:104ef400c1ae8000020020000320240070f00700ef
:104f040080017800010178000300780082007800b5
:104f14000000be0030b1880041b1880010b18000ab
:104f240021b1800004002000852c24000200200010
:104f3400832c2c0060fe070030b1800041b180005a
:104f440004002000852c240002002000832c2c0067
:104f540059fe0700000000000080fa00000006006f
:104f64000600fa0010079800210798000040eb00a3
:104f7400004f78005b000700ae009000808f500067
:104f840013003d000040eb00004f7800080037009c
:104f94001e80fb008e80e800110040001040780065
:104fa4000e0007001e4078000040e800004f780023
:104fb4001e80fb00ae009000808f5000f4ff3c0088
:104fc400310007000004e00001003a00240007005b
:104fd400000000000080fa00000006000200fa0051
:104fe400004f7800e1818000404d21000100400025
:104ff4001e487800e08180000000e800e08188001d
:10500400e1818000f0072000808f5000010034000f
:105014003c30ef00000000000080fa0000000600b1
:105024000200fa00f1818000404d2100010040009f
:10503400104f7800f08180000000e800f0818800c3
:10504400f1818000f0072000808f500001003400bf
:105054003e30ef001e4078000080fa000000060099
:105064000200fa0010c0b30040f0b700ecff0700e4
:10507400004f78001e80fb00201188000000000013
:105084000080fa00000006000000fa0040d0bf00d3
:105094000080fa00000006000200fa00e1818000ae
:1050a400f0818000808f500005003500e181800090
:1050b400f081800000805000000f78000600370067
:1050c400f1818000e0818000808050000008200091
:1050d40001005000000f78001e0078000080fa00e4
:1050e400000006000000fa00ebff070080007800d3
:1050f40000082000010050000080fa0000000600b3
:105104000000fa0021e3a9002143a800001980004f
:105114000080a1000090a100001988002043a9008c
:10512400001980000050a0000060a0000070a000e2
:10513400001988001019800000d0a10000e0a1002f
:1051440000f0a100101988002343a8001019800062
:105154000080a1000090a10010198800111980009e
:1051640030f82f00008060000040a0001019880073
:105174002203a9002223a90025e3a900f0c0b3005b
:1051840024e3b70021198000f00f2e008080600016
:1051940000f0200001007000201988003303a900ea
:1051a4001e0ea8001f0ea8001f2ea8001f4ea80048
:1051b4001f6ea8003003a8003103a8003123a80003
:1051c4003143a8003163a8004119800000fe2f007c
:1051d400008060004019880028e3a90001a8a90004
:1051e40021a8a80021e3a800000000000080fa0024
:1051f400000006000000fa002023a80000000000c0
:105204000080fa00000006000000fa00a0622100fd
:105214000080fa00000006000000fa004fd0bf0032
:105224000080fa00000006000000fa004f70ef0052
:10523400000000000080fa00000006000000fa00f0
:10524400817420009140780000ccb30000c060005d
:105254007041b30048e7b700313a800000e02f0006
:10526400808060008005200001007000303a8800d2
:10527400203a80000060a1000070a100203a88005c
:10528400213a800000fe2f00008060000000a00092
:10529400203a880012c0b30080c7b300a1c9b3008c
:1052a400337420008049780081497800824978006d
:1052b400103a800000407800004178000204a00009
:1052c40060c4b30071c5b300237420008049780022
:1052d400814978008249780000000000103a80007b
:1052e4004c00de0067406000e14f5000fbff3a00d5
:1052f4005927a800c03a80000000a0000010a100b7
:105304000020a100c03a88005ac7bf000000a000d6
:105314000010a0000020a0005ae7b700c03a8000a7
:105324000050a1000060a0000070a000c03a8800f6
:1053340059a7a80059e7a80000000000c03a80005f
:105344004e00de0061406000e14f5000fbff3a0078
:1053540000000000103a80004500de00614060005b
:10536400e14f5000fbff3a00000000000080fa000b
:10537400000006000000fa000e2eef001e2eef00c3
:105384003e2eef002e2eef004e2eef006e2eef007d
:105394000136800000f82f00808060001006200095
:1053a400010070000036880001368000f00f2800ec
:1053b4008080600000102700010070000036880023
:1053c400e135800000f82f0080806000e0072000b5
:1053d40001007000e0358800e1358000f00f2800fe
:1053e4008080600000c0270001007000e035880064
:1053f40080cea90080aea900808ea900816ea9008c
:10540400714ea900012ea900014ea900706ea900d9
:1054140091eea900000ea900814ea9001900070011
:105424002136800000f82f0080806000e004200016
:1054340001007000203688004134800000fc2f00f9
:10544400008060000000a0004034880003000700d2
:10545400000000000080fa00000006000000fa00ce
:105464002174200062042000730520008248780023
:105474008348780042c7a800000000000080fa00ba
:10548400000006000000fa002174200062042000dd
:1054940073052000824878008348780042c7a90039
:1054a400000000000080fa00000006000200fa007c
:1054b400004f78003e0007000000e0000c003400bc
:1054c4005182800040552100010040001e487800b0
:1054d400508280000000e8005082880051828000e1
:1054e400f0072000808f5000010034004a30ef00a4
:1054f400000000000080fa00000006000200fa002c
:10550400618280004055210001004000104f780066
:10551400608280000000e800608288006182800070
:10552400f0072000808f5000010034004c30ef0061
:105534001e4078000080fa00000006000000fa0017
:105544005182800060828000808f5000020032000f
:1055540010c0b300010037000040eb000080fa00e7
:10556400000006000200fa00518280006082800080
:10557400808f5000050035005182800060828000d9
:1055840000805000000f7800060037006182800020
:1055940050828000808050000008200001005000ec
:1055a400000f78001e0078000080fa00000006005a
:1055b4000200fa00ebff07008000780000082000da
:1055c40001005000000f78001e0078000080fa00ef
:0455d40000000600cd
:020000040000fa
:1055d80036160000040000008000000024100000bf
:1055e80008000000800000004210000004000000d5
:1055f8008200000033333600420000002c10000007
:1056080008000000800000004610000004000000b0
:1056180082000000c0e164004c000000d4150000c6
:1056280056000000800000003a160000020000004a
:105638008000000034100000080000008200000014
:105648000000f00041000000484200002a16000057
:105658000c000000800000004e1000000200000056
:1056680080000000d41400008000000080000000ca
:105678003c100000060000008000000054150000e7
:1056880080000000800000004a10000004000000b4
:10569800800000005410000080040000800000001a
:1056a800181000000c0000008000000050100000de
:1056b800020000008200000001000000001000004d
:1056c80018000000800000003c16000002000000e6
:1056d80082000000010000005210000002000000db
:0856e80080000000000000003a
:020000040000fa
