:020000040000fa
:080000000002040000000000f2
:020000040000fa
:040008004c030000a5
:020000040000fa
:04000c004c030000a1
:020000040000fa
:040010004c0300009d
:020000040000fa
:040014004c03000099
:020000040000fa
:040018004c03000095
:020000040000fa
:04001c004c03000091
:020000040000fa
:040020004c0300008d
:020000040000fa
:040024004c03000089
:020000040000fa
:040028004c03000085
:020000040000fa
:04002c004c03000081
:020000040000fa
:040030004c0300007d
:020000040000fa
:04003400fa020000cc
:020000040000fa
:040038004c03000075
:020000040000fa
:04003c004c03000071
:020000040000fa
:040040004c0300006d
:020000040000fa
:040044004c03000069
:020000040000fa
:04004800240300008d
:020000040000fa
:04004c004c03000061
:020000040000fa
:040050004c0300005d
:020000040000fa
:040054004c03000059
:020000040000fa
:040058004c03000055
:020000040000fa
:04005c004c03000051
:020000040000fa
:040060004c0300004d
:020000040000fa
:040064004c03000049
:020000040000fa
:040068004c03000045
:020000040000fa
:04006c004c03000041
:020000040000fa
:040070004c0300003d
:020000040000fa
:040074004c03000039
:020000040000fa
:040078004c03000035
:020000040000fa
:04007c004c03000031
:020000040000fa
:040080004c0300002d
:020000040000fa
:040084004c03000029
:020000040000fa
:040088004c03000025
:020000040000fa
:04008c004c03000021
:020000040000fa
:040090004c0300001d
:020000040000fa
:040094004c03000019
:020000040000fa
:040098004c03000015
:020000040000fa
:04009c004c03000011
:020000040000fa
:0400a0004c0300000d
:020000040000fa
:0400a4004c03000009
:020000040000fa
:0400a8004c03000005
:020000040000fa
:0400ac004c03000001
:020000040000fa
:0400b0004c030000fd
:020000040000fa
:0400b4004c030000f9
:020000040000fa
:0400b8004c030000f5
:020000040000fa
:0400bc004c030000f1
:020000040000fa
:0400c0004c030000ed
:020000040000fa
:0400c4004c030000e9
:020000040000fa
:0400c8004c030000e5
:020000040000fa
:0400cc004c030000e1
:020000040000fa
:0400d0004c030000dd
:020000040000fa
:0400d4004c030000d9
:020000040000fa
:0400d8004c030000d5
:020000040000fa
:0400dc004c030000d1
:020000040000fa
:0400e0004c030000cd
:020000040000fa
:0400e4004c030000c9
:020000040000fa
:0400e8004c030000c5
:020000040000fa
:0400ec004c030000c1
:020000040000fa
:0400f0004c030000bd
:020000040000fa
:0400f4004c030000b9
:020000040000fa
:0400f8004c030000b5
:020000040000fa
:0400fc004c030000b1
:020000040000fa
:040100004c030000ac
:020000040000fa
:040104004c030000a8
:020000040000fa
:040108004c030000a4
:020000040000fa
:04010c004c030000a0
:020000040000fa
:040110004c0300009c
:020000040000fa
:040114004c03000098
:020000040000fa
:040118004c03000094
:020000040000fa
:04011c004c03000090
:020000040000fa
:040120004c0300008c
:020000040000fa
:040124004c03000088
:020000040000fa
:040128004c03000084
:020000040000fa
:04012c004c03000080
:020000040000fa
:040130004c0300007c
:020000040000fa
:040134004c03000078
:020000040000fa
:040138004c03000074
:020000040000fa
:04013c004c03000070
:020000040000fa
:040140004c0300006c
:020000040000fa
:040144004c03000068
:020000040000fa
:040148004c03000064
:020000040000fa
:04014c004c03000060
:020000040000fa
:040150004c0300005c
:020000040000fa
:040154004c03000058
:020000040000fa
:040158004c03000054
:020000040000fa
:04015c004c03000050
:020000040000fa
:040160004c0300004c
:020000040000fa
:040164004c03000048
:020000040000fa
:040168004c03000044
:020000040000fa
:04016c004c03000040
:020000040000fa
:040170004c0300003c
:020000040000fa
:040174004c03000038
:020000040000fa
:040178004c03000034
:020000040000fa
:04017c004c03000030
:020000040000fa
:040180004c0300002c
:020000040000fa
:040184004c03000028
:020000040000fa
:040188004c03000024
:020000040000fa
:04018c004c03000020
:020000040000fa
:040190004c0300001c
:020000040000fa
:040194004c03000018
:020000040000fa
:040198004c03000014
:020000040000fa
:04019c004c03000010
:020000040000fa
:0401a0004c0300000c
:020000040000fa
:0401a4004c03000008
:020000040000fa
:0401a8004c03000004
:020000040000fa
:0401ac004c03000000
:020000040000fa
:0401b0004c030000fc
:020000040000fa
:0401b4004c030000f8
:020000040000fa
:0401b8004c030000f4
:020000040000fa
:0401bc004c030000f0
:020000040000fa
:0401c0004c030000ec
:020000040000fa
:0401c4004c030000e8
:020000040000fa
:0401c8004c030000e4
:020000040000fa
:0401cc004c030000e0
:020000040000fa
:0401d0004c030000dc
:020000040000fa
:0401d4004c030000d8
:020000040000fa
:0401d8004c030000d4
:020000040000fa
:0401dc004c030000d0
:020000040000fa
:0401e0004c030000cc
:020000040000fa
:0401e4004c030000c8
:020000040000fa
:0401e8004c030000c4
:020000040000fa
:0401ec004c030000c0
:020000040000fa
:0401f0004c030000bc
:020000040000fa
:0401f4004c030000b8
:020000040000fa
:0401f8004c030000b4
:020000040000fa
:0401fc004c030000b0
:020000040000fa
:040200004c030000ab
:020000040000fa
:040204004c030000a7
:020000040000fa
:040208004c030000a3
:020000040000fa
:04020c004c0300009f
:020000040000fa
:040210004c0300009b
:020000040000fa
:040214004c03000097
:020000040000fa
:040218004c03000093
:020000040000fa
:04021c004c0300008f
:020000040000fa
:040220004c0300008b
:020000040000fa
:040224004c03000087
:020000040000fa
:040228004c03000083
:020000040000fa
:04022c004c0300007f
:020000040000fa
:040230004c0300007b
:020000040000fa
:040234004c03000077
:020000040000fa
:040238004c03000073
:020000040000fa
:04023c004c0300006f
:020000040000fa
:040240004c0300006b
:020000040000fa
:040244004c03000067
:020000040000fa
:040248004c03000063
:020000040000fa
:04024c004c0300005f
:020000040000fa
:040250004c0300005b
:020000040000fa
:040254004c03000057
:020000040000fa
:040258004c03000053
:020000040000fa
:04025c004c0300004f
:020000040000fa
:040260004c0300004b
:020000040000fa
:040264004c03000047
:020000040000fa
:100400000f0021000eff2d000e01880000000000eb
:10041000000020000000e000020032000001200087
:1004200020028800140007009d0007000000e00083
:1004300003003a0000002000010020000200370005
:100440000000200001002000810f70000100320038
:100450000f000700000020000000e0000200320052
:100460000000020000000000520302000000000033
:100470000040da000000fe00200020000000e00044
:1004800002003200100020009001880000000600e9
:10049000a1028800800478000000eb001f003700f4
:1004a000e284440054a0b4009905ba00e2844400f8
:1004b00054a0b4009906ba00e284440054a0b400e9
:1004c0000006eb00476fde00fd07b200ae018800ba
:1004d000636ce10003003a000ad801000000eb0061
:1004e0000e003700606ce10008003a00004deb00a0
:1004f0000a05e800020039003420ec000af0a000f0
:100500008b05e900f9ff3e00040037006168e10057
:10051000010032000086eb000b00070019c7ba008b
:100520000e04e0001905ba0003003a000a00e000da
:10053000dbff3a0000000600fe07b200ae028800b2
:100540008a047800f5ff37000cd0a300e20f4d00bd
:100550001c003b0089027800354dba000a05e8000e
:10056000020039003420ec000af0a0008b05e900fd
:100570000f003200254dba000a05e80002003900dc
:100580003420ec000af0a0008b05e90008003200de
:100590000c00e0000600320015cdba000a05e800a4
:1005a000020039003420ec000af0a0008b05e900bd
:1005b0008984e80054a0b4000b00e000e2ff3a0098
:1005c000000006009902ba00055d78008b05e9007d
:1005d000f7ff3200c82ade00055d78008b05e900d0
:1005e000f3ff32000c00e000f1ff320019ddba0029
:1005f000eeff3700809fbe000000fa000068a900ef
:1006000021748000000420000080600000f0a7003a
:100610000000ea000000e9004f00de000040780022
:100620000080fb00610060004600dd002174800056
:100630000160a10001007000207488000080fa00b1
:100640004f00be0000400600809fbe000000fa0080
:100650000108a900207480007000600000f0a7006d
:100660000000ea000000e9004f00de0000407800d2
:100670000080fb00610060004400dd002174800008
:100680000140a10001007000207488000080fa0081
:100690004f00be00004006000040da000000fe00ef
:0406a0000000050051
:020000040000fa
:1006a4000000fa0057000700c9000700a000070077
:1006b40084cea80084aea800848ea800856ea8000d
:1006c400754ea800052ea800746ea800054ea8005b
:1006d40095eea800040ea8002174800000042000f8
:1006e4000080600000f0a7000000ea000000e900bc
:1006f4004f00de00004078000080fb0061006000d5
:100704004600dd00217480000160a100010070003a
:1007140020748800217480000002200000806000a2
:1007240000f0a7000000ea000000e9004f00de002e
:10073400004078000080fb00610060004500dd009f
:10074400217480000150a100010070002074880011
:10075400207480007000600000f0a7000000ea0030
:100764000000e9004f00de00004078000080fb003c
:10077400610060004400dd00217480000140a1009c
:100784000100700020748800217480000080200023
:100794000080600000f0a7000000ea000000e9000b
:1007a4004f00de00004078000080fb006100600024
:1007b4004b00dd002174800001b0a1000100700035
:1007c40020748800a1738000004020000080600035
:1007d40000f0a7000000ea000000e9004f00de007e
:1007e400004078000080fb00610060004a00dd00ea
:1007f400a173800001a0a10001007000a073880013
:10080400b5ff37000000fa00413a800000fc2f00d9
:10081400008060007001b300403a8800313a8000e3
:1008240000e02f008080600080052000010070003f
:10083400303a8800213a8000f0f32f0000806000f5
:10084400203a8800213a800000fe2f0000806000da
:100854000000a000203a8800120020008007200039
:10086400a109200033742000804978008149780070
:1008740082497800103a8000000178000200a0004c
:100884006004200071052000237420008049780052
:10089400814978008249780000000000113a800004
:1008a400000027008080600000002100808f50003d
:1008b400faff3a005927a800c13a800080ff2f00b0
:1008c400008060000000a000c03a8800d03a800098
:1008d4007000b300d03a8800c13a8000f0f12f00d4
:1008e40080806000000c200001007000c03a880085
:1008f40059a7a80059e7a80000000000c13a8000e9
:1009040000002400008060000000e000fbff3200d3
:1009140000000000113a8000000220000080600006
:100924000000e000fbff32000080fa000000060037
:100934000000fa0005e1a90021088000f0fc2f0066
:10094400008060000040a000200888000421a90065
:10095400c0d42100100888000068a9002068a800fd
:1009640005e1a8000080fa00000006000000fa007b
:1009740013e1a90011e1a9001061a8001021a90048
:1009840081088000f0fc2f0000806000800888004f
:100994000a21ef000621ef0030392000700888009a
:1009a40000702800600888002142800080ff2f002a
:1009b400008060000000a000204288000108a90017
:1009c4002108a80011e1a8000080fa000000060038
:1009d4000000fa000e2eef001e2eef003e2eef0058
:1009e4002e2eef004e2eef006e2eef0080cea900cb
:1009f40080aea900808ea900816ea900714ea90065
:100a0400012ea900014ea900706ea90091eea90063
:100a1400000ea9000c000700020007000080fa0085
:100a2400000006000000fa00217420006204200087
:100a340073052000824878008348780042c7a800e4
:100a44000080fa00000006000000fa002174200073
:100a540062042000730520008248780083487800ef
:0c0a640042c7a9000080fa000000060054
:020000040000fa
:0200000401f009
:04000800cfffff0027
:020000040000fa
:0200000401f009
:04000c00f9ffff00f9
:020000040000fa
:0200000401f009
:040010005bffff0093
:020000040000fa
:0200000401f009
:040014007fffff006b
:020000040000fa
:0200000401f009
:04001800cfffff0017
:020000040000fa
:0200000401f009
:04001c00deffff0004
:020000040000fa
:0200000401f009
:04002000cfffff000f
:00000001FF
